{
	"fifth.sol": {
		"loops": {
			"abi": [
				{
					"inputs": [],
					"name": "getvalue",
					"outputs": [
						{
							"internalType": "uint256",
							"name": "",
							"type": "uint256"
						}
					],
					"stateMutability": "view",
					"type": "function"
				},
				{
					"inputs": [],
					"name": "sum",
					"outputs": [
						{
							"internalType": "uint256",
							"name": "",
							"type": "uint256"
						}
					],
					"stateMutability": "view",
					"type": "function"
				}
			],
			"devdoc": {
				"kind": "dev",
				"methods": {},
				"version": 1
			},
			"evm": {
				"assembly": "    /* \"fifth.sol\":74:586  contract loops {... */\n  mstore(0x40, 0x80)\n    /* \"fifth.sol\":92:151  uint [10]  array = [10,20 ,30 ,40 ,50 ,60 ,70 ,80 ,90 ,100] */\n  mload(0x40)\n  dup1\n  0x0140\n  add\n  0x40\n  mstore\n  dup1\n    /* \"fifth.sol\":112:114  10 */\n  0x0a\n    /* \"fifth.sol\":92:151  uint [10]  array = [10,20 ,30 ,40 ,50 ,60 ,70 ,80 ,90 ,100] */\n  0xff\n  and\n  dup2\n  mstore\n  0x20\n  add\n    /* \"fifth.sol\":115:117  20 */\n  0x14\n    /* \"fifth.sol\":92:151  uint [10]  array = [10,20 ,30 ,40 ,50 ,60 ,70 ,80 ,90 ,100] */\n  0xff\n  and\n  dup2\n  mstore\n  0x20\n  add\n    /* \"fifth.sol\":119:121  30 */\n  0x1e\n    /* \"fifth.sol\":92:151  uint [10]  array = [10,20 ,30 ,40 ,50 ,60 ,70 ,80 ,90 ,100] */\n  0xff\n  and\n  dup2\n  mstore\n  0x20\n  add\n    /* \"fifth.sol\":123:125  40 */\n  0x28\n    /* \"fifth.sol\":92:151  uint [10]  array = [10,20 ,30 ,40 ,50 ,60 ,70 ,80 ,90 ,100] */\n  0xff\n  and\n  dup2\n  mstore\n  0x20\n  add\n    /* \"fifth.sol\":127:129  50 */\n  0x32\n    /* \"fifth.sol\":92:151  uint [10]  array = [10,20 ,30 ,40 ,50 ,60 ,70 ,80 ,90 ,100] */\n  0xff\n  and\n  dup2\n  mstore\n  0x20\n  add\n    /* \"fifth.sol\":131:133  60 */\n  0x3c\n    /* \"fifth.sol\":92:151  uint [10]  array = [10,20 ,30 ,40 ,50 ,60 ,70 ,80 ,90 ,100] */\n  0xff\n  and\n  dup2\n  mstore\n  0x20\n  add\n    /* \"fifth.sol\":135:137  70 */\n  0x46\n    /* \"fifth.sol\":92:151  uint [10]  array = [10,20 ,30 ,40 ,50 ,60 ,70 ,80 ,90 ,100] */\n  0xff\n  and\n  dup2\n  mstore\n  0x20\n  add\n    /* \"fifth.sol\":139:141  80 */\n  0x50\n    /* \"fifth.sol\":92:151  uint [10]  array = [10,20 ,30 ,40 ,50 ,60 ,70 ,80 ,90 ,100] */\n  0xff\n  and\n  dup2\n  mstore\n  0x20\n  add\n    /* \"fifth.sol\":143:145  90 */\n  0x5a\n    /* \"fifth.sol\":92:151  uint [10]  array = [10,20 ,30 ,40 ,50 ,60 ,70 ,80 ,90 ,100] */\n  0xff\n  and\n  dup2\n  mstore\n  0x20\n  add\n    /* \"fifth.sol\":147:150  100 */\n  0x64\n    /* \"fifth.sol\":92:151  uint [10]  array = [10,20 ,30 ,40 ,50 ,60 ,70 ,80 ,90 ,100] */\n  0xff\n  and\n  dup2\n  mstore\n  pop\n  0x00\n  swap1\n  0x0a\n  tag_1\n  swap3\n  swap2\n  swap1\n  tag_2\n  jump\t// in\ntag_1:\n  pop\n    /* \"fifth.sol\":74:586  contract loops {... */\n  callvalue\n  dup1\n  iszero\n  tag_3\n  jumpi\n  revert(0x00, 0x00)\ntag_3:\n  pop\n  jump(tag_4)\ntag_2:\n  dup3\n  0x0a\n  dup2\n  add\n  swap3\n  dup3\n  iszero\n  tag_5\n  jumpi\n  swap2\n  0x20\n  mul\n  dup3\n  add\ntag_6:\n  dup3\n  dup2\n  gt\n  iszero\n  tag_7\n  jumpi\n  dup3\n  mload\n  dup3\n  swap1\n  0xff\n  and\n  swap1\n  sstore\n  swap2\n  0x20\n  add\n  swap2\n  swap1\n  0x01\n  add\n  swap1\n  jump(tag_6)\ntag_7:\ntag_5:\n  pop\n  swap1\n  pop\n  tag_8\n  swap2\n  swap1\n  tag_9\n  jump\t// in\ntag_8:\n  pop\n  swap1\n  jump\t// out\ntag_9:\ntag_10:\n  dup1\n  dup3\n  gt\n  iszero\n  tag_11\n  jumpi\n  0x00\n  dup2\n  0x00\n  swap1\n  sstore\n  pop\n  0x01\n  add\n  jump(tag_10)\ntag_11:\n  pop\n  swap1\n  jump\t// out\ntag_4:\n  dataSize(sub_0)\n  dup1\n  dataOffset(sub_0)\n  0x00\n  codecopy\n  0x00\n  return\nstop\n\nsub_0: assembly {\n        /* \"fifth.sol\":74:586  contract loops {... */\n      mstore(0x40, 0x80)\n      callvalue\n      dup1\n      iszero\n      tag_1\n      jumpi\n      revert(0x00, 0x00)\n    tag_1:\n      pop\n      jumpi(tag_2, lt(calldatasize, 0x04))\n      shr(0xe0, calldataload(0x00))\n      dup1\n      0x69bd01c4\n      eq\n      tag_3\n      jumpi\n      dup1\n      0x853255cc\n      eq\n      tag_4\n      jumpi\n    tag_2:\n      revert(0x00, 0x00)\n        /* \"fifth.sol\":156:427  function getvalue () view public returns(uint){... */\n    tag_3:\n      tag_5\n      tag_6\n      jump\t// in\n    tag_5:\n      mload(0x40)\n      tag_7\n      swap2\n      swap1\n      tag_8\n      jump\t// in\n    tag_7:\n      mload(0x40)\n      dup1\n      swap2\n      sub\n      swap1\n      return\n        /* \"fifth.sol\":431:583  function sum () public view returns (uint){... */\n    tag_4:\n      tag_9\n      tag_10\n      jump\t// in\n    tag_9:\n      mload(0x40)\n      tag_11\n      swap2\n      swap1\n      tag_8\n      jump\t// in\n    tag_11:\n      mload(0x40)\n      dup1\n      swap2\n      sub\n      swap1\n      return\n        /* \"fifth.sol\":156:427  function getvalue () view public returns(uint){... */\n    tag_6:\n        /* \"fifth.sol\":197:201  uint */\n      0x00\n        /* \"fifth.sol\":209:219  uint count */\n      0x00\n        /* \"fifth.sol\":226:236  uint value */\n      0x00\n        /* \"fifth.sol\":244:254  bool found */\n      0x00\n        /* \"fifth.sol\":271:283  array.length */\n      0x0a\n        /* \"fifth.sol\":265:270  count */\n      dup4\n        /* \"fifth.sol\":265:283  count<array.length */\n      lt\n        /* \"fifth.sol\":258:405  while (count<array.length) ... */\n      iszero\n      tag_14\n      jumpi\n        /* \"fifth.sol\":303:308  array */\n      0x00\n        /* \"fifth.sol\":309:314  count */\n      dup4\n        /* \"fifth.sol\":303:315  array[count] */\n      0x0a\n      dup2\n      lt\n      tag_15\n      jumpi\n      tag_16\n      tag_17\n      jump\t// in\n    tag_16:\n    tag_15:\n      add\n      sload\n        /* \"fifth.sol\":295:315  value = array[count] */\n      swap2\n      pop\n        /* \"fifth.sol\":322:329  count++ */\n      dup3\n      dup1\n      tag_19\n      swap1\n      tag_20\n      jump\t// in\n    tag_19:\n      swap4\n      pop\n      pop\n        /* \"fifth.sol\":349:351  50 */\n      0x32\n        /* \"fifth.sol\":340:345  value */\n      dup3\n        /* \"fifth.sol\":340:351  value == 50 */\n      sub\n        /* \"fifth.sol\":336:383  if (value == 50) {... */\n      tag_21\n      jumpi\n        /* \"fifth.sol\":371:375  true */\n      0x01\n        /* \"fifth.sol\":364:375  found= true */\n      swap1\n      pop\n        /* \"fifth.sol\":336:383  if (value == 50) {... */\n    tag_21:\n        /* \"fifth.sol\":395:400  value */\n      dup2\n        /* \"fifth.sol\":387:400  return  value */\n      swap4\n      pop\n      pop\n      pop\n      pop\n      jump(tag_12)\n        /* \"fifth.sol\":258:405  while (count<array.length) ... */\n    tag_14:\n        /* \"fifth.sol\":416:421  count */\n      dup3\n        /* \"fifth.sol\":409:421  return count */\n      swap4\n      pop\n      pop\n      pop\n      pop\n        /* \"fifth.sol\":156:427  function getvalue () view public returns(uint){... */\n    tag_12:\n      swap1\n      jump\t// out\n        /* \"fifth.sol\":431:583  function sum () public view returns (uint){... */\n    tag_10:\n        /* \"fifth.sol\":468:472  uint */\n      0x00\n        /* \"fifth.sol\":480:489  uint suum */\n      0x00\n        /* \"fifth.sol\":501:507  uint i */\n      0x00\n        /* \"fifth.sol\":508:509  0 */\n      0x00\n        /* \"fifth.sol\":501:509  uint i=0 */\n      swap1\n      pop\n        /* \"fifth.sol\":496:563  for (uint i=0; i<array.length; i++) {... */\n    tag_23:\n        /* \"fifth.sol\":513:525  array.length */\n      0x0a\n        /* \"fifth.sol\":511:512  i */\n      dup2\n        /* \"fifth.sol\":511:525  i<array.length */\n      lt\n        /* \"fifth.sol\":496:563  for (uint i=0; i<array.length; i++) {... */\n      iszero\n      tag_24\n      jumpi\n        /* \"fifth.sol\":547:552  array */\n      0x00\n        /* \"fifth.sol\":553:554  i */\n      dup2\n        /* \"fifth.sol\":547:555  array[i] */\n      0x0a\n      dup2\n      lt\n      tag_26\n      jumpi\n      tag_27\n      tag_17\n      jump\t// in\n    tag_27:\n    tag_26:\n      add\n      sload\n        /* \"fifth.sol\":539:555  suum += array[i] */\n      dup3\n      tag_29\n      swap2\n      swap1\n      tag_30\n      jump\t// in\n    tag_29:\n      swap2\n      pop\n        /* \"fifth.sol\":527:530  i++ */\n      dup1\n      dup1\n      0x01\n      add\n      swap2\n      pop\n      pop\n        /* \"fifth.sol\":496:563  for (uint i=0; i<array.length; i++) {... */\n      jump(tag_23)\n    tag_24:\n      pop\n        /* \"fifth.sol\":575:579  suum */\n      dup1\n        /* \"fifth.sol\":567:579  return  suum */\n      swap2\n      pop\n      pop\n        /* \"fifth.sol\":431:583  function sum () public view returns (uint){... */\n      swap1\n      jump\t// out\n        /* \"#utility.yul\":7:84   */\n    tag_31:\n        /* \"#utility.yul\":44:51   */\n      0x00\n        /* \"#utility.yul\":73:78   */\n      dup2\n        /* \"#utility.yul\":62:78   */\n      swap1\n      pop\n        /* \"#utility.yul\":7:84   */\n      swap2\n      swap1\n      pop\n      jump\t// out\n        /* \"#utility.yul\":90:208   */\n    tag_32:\n        /* \"#utility.yul\":177:201   */\n      tag_37\n        /* \"#utility.yul\":195:200   */\n      dup2\n        /* \"#utility.yul\":177:201   */\n      tag_31\n      jump\t// in\n    tag_37:\n        /* \"#utility.yul\":172:175   */\n      dup3\n        /* \"#utility.yul\":165:202   */\n      mstore\n        /* \"#utility.yul\":90:208   */\n      pop\n      pop\n      jump\t// out\n        /* \"#utility.yul\":214:436   */\n    tag_8:\n        /* \"#utility.yul\":307:311   */\n      0x00\n        /* \"#utility.yul\":345:347   */\n      0x20\n        /* \"#utility.yul\":334:343   */\n      dup3\n        /* \"#utility.yul\":330:348   */\n      add\n        /* \"#utility.yul\":322:348   */\n      swap1\n      pop\n        /* \"#utility.yul\":358:429   */\n      tag_39\n        /* \"#utility.yul\":426:427   */\n      0x00\n        /* \"#utility.yul\":415:424   */\n      dup4\n        /* \"#utility.yul\":411:428   */\n      add\n        /* \"#utility.yul\":402:408   */\n      dup5\n        /* \"#utility.yul\":358:429   */\n      tag_32\n      jump\t// in\n    tag_39:\n        /* \"#utility.yul\":214:436   */\n      swap3\n      swap2\n      pop\n      pop\n      jump\t// out\n        /* \"#utility.yul\":442:622   */\n    tag_17:\n        /* \"#utility.yul\":490:567   */\n      0x4e487b7100000000000000000000000000000000000000000000000000000000\n        /* \"#utility.yul\":487:488   */\n      0x00\n        /* \"#utility.yul\":480:568   */\n      mstore\n        /* \"#utility.yul\":587:591   */\n      0x32\n        /* \"#utility.yul\":584:585   */\n      0x04\n        /* \"#utility.yul\":577:592   */\n      mstore\n        /* \"#utility.yul\":611:615   */\n      0x24\n        /* \"#utility.yul\":608:609   */\n      0x00\n        /* \"#utility.yul\":601:616   */\n      revert\n        /* \"#utility.yul\":628:808   */\n    tag_33:\n        /* \"#utility.yul\":676:753   */\n      0x4e487b7100000000000000000000000000000000000000000000000000000000\n        /* \"#utility.yul\":673:674   */\n      0x00\n        /* \"#utility.yul\":666:754   */\n      mstore\n        /* \"#utility.yul\":773:777   */\n      0x11\n        /* \"#utility.yul\":770:771   */\n      0x04\n        /* \"#utility.yul\":763:778   */\n      mstore\n        /* \"#utility.yul\":797:801   */\n      0x24\n        /* \"#utility.yul\":794:795   */\n      0x00\n        /* \"#utility.yul\":787:802   */\n      revert\n        /* \"#utility.yul\":814:1047   */\n    tag_20:\n        /* \"#utility.yul\":853:856   */\n      0x00\n        /* \"#utility.yul\":876:900   */\n      tag_43\n        /* \"#utility.yul\":894:899   */\n      dup3\n        /* \"#utility.yul\":876:900   */\n      tag_31\n      jump\t// in\n    tag_43:\n        /* \"#utility.yul\":867:900   */\n      swap2\n      pop\n        /* \"#utility.yul\":922:988   */\n      0xffffffffffffffffffffffffffffffffffffffffffffffffffffffffffffffff\n        /* \"#utility.yul\":915:920   */\n      dup3\n        /* \"#utility.yul\":912:989   */\n      sub\n        /* \"#utility.yul\":909:1012   */\n      tag_44\n      jumpi\n        /* \"#utility.yul\":992:1010   */\n      tag_45\n      tag_33\n      jump\t// in\n    tag_45:\n        /* \"#utility.yul\":909:1012   */\n    tag_44:\n        /* \"#utility.yul\":1039:1040   */\n      0x01\n        /* \"#utility.yul\":1032:1037   */\n      dup3\n        /* \"#utility.yul\":1028:1041   */\n      add\n        /* \"#utility.yul\":1021:1041   */\n      swap1\n      pop\n        /* \"#utility.yul\":814:1047   */\n      swap2\n      swap1\n      pop\n      jump\t// out\n        /* \"#utility.yul\":1053:1244   */\n    tag_30:\n        /* \"#utility.yul\":1093:1096   */\n      0x00\n        /* \"#utility.yul\":1112:1132   */\n      tag_47\n        /* \"#utility.yul\":1130:1131   */\n      dup3\n        /* \"#utility.yul\":1112:1132   */\n      tag_31\n      jump\t// in\n    tag_47:\n        /* \"#utility.yul\":1107:1132   */\n      swap2\n      pop\n        /* \"#utility.yul\":1146:1166   */\n      tag_48\n        /* \"#utility.yul\":1164:1165   */\n      dup4\n        /* \"#utility.yul\":1146:1166   */\n      tag_31\n      jump\t// in\n    tag_48:\n        /* \"#utility.yul\":1141:1166   */\n      swap3\n      pop\n        /* \"#utility.yul\":1189:1190   */\n      dup3\n        /* \"#utility.yul\":1186:1187   */\n      dup3\n        /* \"#utility.yul\":1182:1191   */\n      add\n        /* \"#utility.yul\":1175:1191   */\n      swap1\n      pop\n        /* \"#utility.yul\":1210:1213   */\n      dup1\n        /* \"#utility.yul\":1207:1208   */\n      dup3\n        /* \"#utility.yul\":1204:1214   */\n      gt\n        /* \"#utility.yul\":1201:1237   */\n      iszero\n      tag_49\n      jumpi\n        /* \"#utility.yul\":1217:1235   */\n      tag_50\n      tag_33\n      jump\t// in\n    tag_50:\n        /* \"#utility.yul\":1201:1237   */\n    tag_49:\n        /* \"#utility.yul\":1053:1244   */\n      swap3\n      swap2\n      pop\n      pop\n      jump\t// out\n\n    auxdata: 0xa2646970667358221220f92c67ed059886345459eb3fd9d15fb26aad551fa2519bfcdcb7bb39ba91304764736f6c634300081f0033\n}\n",
				"bytecode": {
					"linkReferences": {},
					"object": "6080604052604051806101400160405280600a60ff168152602001601460ff168152602001601e60ff168152602001602860ff168152602001603260ff168152602001603c60ff168152602001604660ff168152602001605060ff168152602001605a60ff168152602001606460ff168152505f90600a610081929190610093565b5034801561008d575f5ffd5b506100f3565b82600a81019282156100c7579160200282015b828111156100c6578251829060ff169055916020019190600101906100a6565b5b5090506100d491906100d8565b5090565b5b808211156100ef575f815f9055506001016100d9565b5090565b61024a806101005f395ff3fe608060405234801561000f575f5ffd5b5060043610610034575f3560e01c806369bd01c414610038578063853255cc14610056575b5f5ffd5b610040610074565b60405161004d9190610127565b60405180910390f35b61005e6100c8565b60405161006b9190610127565b60405180910390f35b5f5f5f5f600a8310156100be575f83600a811061009457610093610140565b5b0154915082806100a39061019a565b935050603282036100b357600190505b8193505050506100c5565b8293505050505b90565b5f5f5f5f90505b600a811015610107575f81600a81106100eb576100ea610140565b5b0154826100f891906101e1565b915080806001019150506100cf565b508091505090565b5f819050919050565b6101218161010f565b82525050565b5f60208201905061013a5f830184610118565b92915050565b7f4e487b71000000000000000000000000000000000000000000000000000000005f52603260045260245ffd5b7f4e487b71000000000000000000000000000000000000000000000000000000005f52601160045260245ffd5b5f6101a48261010f565b91507fffffffffffffffffffffffffffffffffffffffffffffffffffffffffffffffff82036101d6576101d561016d565b5b600182019050919050565b5f6101eb8261010f565b91506101f68361010f565b925082820190508082111561020e5761020d61016d565b5b9291505056fea2646970667358221220f92c67ed059886345459eb3fd9d15fb26aad551fa2519bfcdcb7bb39ba91304764736f6c634300081f0033",
					"opcodes": "PUSH1 0x80 PUSH1 0x40 MSTORE PUSH1 0x40 MLOAD DUP1 PUSH2 0x140 ADD PUSH1 0x40 MSTORE DUP1 PUSH1 0xA PUSH1 0xFF AND DUP2 MSTORE PUSH1 0x20 ADD PUSH1 0x14 PUSH1 0xFF AND DUP2 MSTORE PUSH1 0x20 ADD PUSH1 0x1E PUSH1 0xFF AND DUP2 MSTORE PUSH1 0x20 ADD PUSH1 0x28 PUSH1 0xFF AND DUP2 MSTORE PUSH1 0x20 ADD PUSH1 0x32 PUSH1 0xFF AND DUP2 MSTORE PUSH1 0x20 ADD PUSH1 0x3C PUSH1 0xFF AND DUP2 MSTORE PUSH1 0x20 ADD PUSH1 0x46 PUSH1 0xFF AND DUP2 MSTORE PUSH1 0x20 ADD PUSH1 0x50 PUSH1 0xFF AND DUP2 MSTORE PUSH1 0x20 ADD PUSH1 0x5A PUSH1 0xFF AND DUP2 MSTORE PUSH1 0x20 ADD PUSH1 0x64 PUSH1 0xFF AND DUP2 MSTORE POP PUSH0 SWAP1 PUSH1 0xA PUSH2 0x81 SWAP3 SWAP2 SWAP1 PUSH2 0x93 JUMP JUMPDEST POP CALLVALUE DUP1 ISZERO PUSH2 0x8D JUMPI PUSH0 PUSH0 REVERT JUMPDEST POP PUSH2 0xF3 JUMP JUMPDEST DUP3 PUSH1 0xA DUP2 ADD SWAP3 DUP3 ISZERO PUSH2 0xC7 JUMPI SWAP2 PUSH1 0x20 MUL DUP3 ADD JUMPDEST DUP3 DUP2 GT ISZERO PUSH2 0xC6 JUMPI DUP3 MLOAD DUP3 SWAP1 PUSH1 0xFF AND SWAP1 SSTORE SWAP2 PUSH1 0x20 ADD SWAP2 SWAP1 PUSH1 0x1 ADD SWAP1 PUSH2 0xA6 JUMP JUMPDEST JUMPDEST POP SWAP1 POP PUSH2 0xD4 SWAP2 SWAP1 PUSH2 0xD8 JUMP JUMPDEST POP SWAP1 JUMP JUMPDEST JUMPDEST DUP1 DUP3 GT ISZERO PUSH2 0xEF JUMPI PUSH0 DUP2 PUSH0 SWAP1 SSTORE POP PUSH1 0x1 ADD PUSH2 0xD9 JUMP JUMPDEST POP SWAP1 JUMP JUMPDEST PUSH2 0x24A DUP1 PUSH2 0x100 PUSH0 CODECOPY PUSH0 RETURN INVALID PUSH1 0x80 PUSH1 0x40 MSTORE CALLVALUE DUP1 ISZERO PUSH2 0xF JUMPI PUSH0 PUSH0 REVERT JUMPDEST POP PUSH1 0x4 CALLDATASIZE LT PUSH2 0x34 JUMPI PUSH0 CALLDATALOAD PUSH1 0xE0 SHR DUP1 PUSH4 0x69BD01C4 EQ PUSH2 0x38 JUMPI DUP1 PUSH4 0x853255CC EQ PUSH2 0x56 JUMPI JUMPDEST PUSH0 PUSH0 REVERT JUMPDEST PUSH2 0x40 PUSH2 0x74 JUMP JUMPDEST PUSH1 0x40 MLOAD PUSH2 0x4D SWAP2 SWAP1 PUSH2 0x127 JUMP JUMPDEST PUSH1 0x40 MLOAD DUP1 SWAP2 SUB SWAP1 RETURN JUMPDEST PUSH2 0x5E PUSH2 0xC8 JUMP JUMPDEST PUSH1 0x40 MLOAD PUSH2 0x6B SWAP2 SWAP1 PUSH2 0x127 JUMP JUMPDEST PUSH1 0x40 MLOAD DUP1 SWAP2 SUB SWAP1 RETURN JUMPDEST PUSH0 PUSH0 PUSH0 PUSH0 PUSH1 0xA DUP4 LT ISZERO PUSH2 0xBE JUMPI PUSH0 DUP4 PUSH1 0xA DUP2 LT PUSH2 0x94 JUMPI PUSH2 0x93 PUSH2 0x140 JUMP JUMPDEST JUMPDEST ADD SLOAD SWAP2 POP DUP3 DUP1 PUSH2 0xA3 SWAP1 PUSH2 0x19A JUMP JUMPDEST SWAP4 POP POP PUSH1 0x32 DUP3 SUB PUSH2 0xB3 JUMPI PUSH1 0x1 SWAP1 POP JUMPDEST DUP2 SWAP4 POP POP POP POP PUSH2 0xC5 JUMP JUMPDEST DUP3 SWAP4 POP POP POP POP JUMPDEST SWAP1 JUMP JUMPDEST PUSH0 PUSH0 PUSH0 PUSH0 SWAP1 POP JUMPDEST PUSH1 0xA DUP2 LT ISZERO PUSH2 0x107 JUMPI PUSH0 DUP2 PUSH1 0xA DUP2 LT PUSH2 0xEB JUMPI PUSH2 0xEA PUSH2 0x140 JUMP JUMPDEST JUMPDEST ADD SLOAD DUP3 PUSH2 0xF8 SWAP2 SWAP1 PUSH2 0x1E1 JUMP JUMPDEST SWAP2 POP DUP1 DUP1 PUSH1 0x1 ADD SWAP2 POP POP PUSH2 0xCF JUMP JUMPDEST POP DUP1 SWAP2 POP POP SWAP1 JUMP JUMPDEST PUSH0 DUP2 SWAP1 POP SWAP2 SWAP1 POP JUMP JUMPDEST PUSH2 0x121 DUP2 PUSH2 0x10F JUMP JUMPDEST DUP3 MSTORE POP POP JUMP JUMPDEST PUSH0 PUSH1 0x20 DUP3 ADD SWAP1 POP PUSH2 0x13A PUSH0 DUP4 ADD DUP5 PUSH2 0x118 JUMP JUMPDEST SWAP3 SWAP2 POP POP JUMP JUMPDEST PUSH32 0x4E487B7100000000000000000000000000000000000000000000000000000000 PUSH0 MSTORE PUSH1 0x32 PUSH1 0x4 MSTORE PUSH1 0x24 PUSH0 REVERT JUMPDEST PUSH32 0x4E487B7100000000000000000000000000000000000000000000000000000000 PUSH0 MSTORE PUSH1 0x11 PUSH1 0x4 MSTORE PUSH1 0x24 PUSH0 REVERT JUMPDEST PUSH0 PUSH2 0x1A4 DUP3 PUSH2 0x10F JUMP JUMPDEST SWAP2 POP PUSH32 0xFFFFFFFFFFFFFFFFFFFFFFFFFFFFFFFFFFFFFFFFFFFFFFFFFFFFFFFFFFFFFFFF DUP3 SUB PUSH2 0x1D6 JUMPI PUSH2 0x1D5 PUSH2 0x16D JUMP JUMPDEST JUMPDEST PUSH1 0x1 DUP3 ADD SWAP1 POP SWAP2 SWAP1 POP JUMP JUMPDEST PUSH0 PUSH2 0x1EB DUP3 PUSH2 0x10F JUMP JUMPDEST SWAP2 POP PUSH2 0x1F6 DUP4 PUSH2 0x10F JUMP JUMPDEST SWAP3 POP DUP3 DUP3 ADD SWAP1 POP DUP1 DUP3 GT ISZERO PUSH2 0x20E JUMPI PUSH2 0x20D PUSH2 0x16D JUMP JUMPDEST JUMPDEST SWAP3 SWAP2 POP POP JUMP INVALID LOG2 PUSH5 0x6970667358 0x22 SLT KECCAK256 EXTDELEGATECALL 0x2C PUSH8 0xED059886345459EB EXTCODEHASH 0xD9 DATALOADN 0x5FB2 PUSH11 0xAD551FA2519BFCDCB7BB39 0xBA SWAP2 ADDRESS SELFBALANCE PUSH5 0x736F6C6343 STOP ADDMOD 0x1F STOP CALLER "
				},
				"gasEstimates": {
					"creation": {
						"codeDepositCost": "117200",
						"executionCost": "infinite",
						"totalCost": "infinite"
					},
					"external": {
						"getvalue()": "infinite",
						"sum()": "infinite"
					}
				},
				"methodIdentifiers": {
					"getvalue()": "69bd01c4",
					"sum()": "853255cc"
				}
			},
			"storageLayout": {
				"storage": [
					{
						"astId": 16,
						"contract": "fifth.sol:loops",
						"label": "array",
						"offset": 0,
						"slot": "0",
						"type": "t_array(t_uint256)10_storage"
					}
				],
				"types": {
					"t_array(t_uint256)10_storage": {
						"base": "t_uint256",
						"encoding": "inplace",
						"label": "uint256[10]",
						"numberOfBytes": "320"
					},
					"t_uint256": {
						"encoding": "inplace",
						"label": "uint256",
						"numberOfBytes": "32"
					}
				}
			},
			"userdoc": {
				"kind": "user",
				"methods": {},
				"version": 1
			}
		}
	}
}