{
	"fifth.sol": {
		"loops": {
			"abi": [
				{
					"inputs": [],
					"name": "getvalue",
					"outputs": [
						{
							"internalType": "uint256",
							"name": "",
							"type": "uint256"
						},
						{
							"internalType": "uint256",
							"name": "",
							"type": "uint256"
						},
						{
							"internalType": "bool",
							"name": "",
							"type": "bool"
						}
					],
					"stateMutability": "view",
					"type": "function"
				},
				{
					"inputs": [],
					"name": "sum",
					"outputs": [
						{
							"internalType": "uint256",
							"name": "",
							"type": "uint256"
						}
					],
					"stateMutability": "view",
					"type": "function"
				}
			],
			"devdoc": {
				"kind": "dev",
				"methods": {},
				"version": 1
			},
			"evm": {
				"assembly": "    /* \"fifth.sol\":72:592  contract loops {... */\n  mstore(0x40, 0x80)\n    /* \"fifth.sol\":90:149  uint [10]  array = [10,20 ,30 ,40 ,50 ,60 ,70 ,80 ,90 ,100] */\n  mload(0x40)\n  dup1\n  0x0140\n  add\n  0x40\n  mstore\n  dup1\n    /* \"fifth.sol\":110:112  10 */\n  0x0a\n    /* \"fifth.sol\":90:149  uint [10]  array = [10,20 ,30 ,40 ,50 ,60 ,70 ,80 ,90 ,100] */\n  0xff\n  and\n  dup2\n  mstore\n  0x20\n  add\n    /* \"fifth.sol\":113:115  20 */\n  0x14\n    /* \"fifth.sol\":90:149  uint [10]  array = [10,20 ,30 ,40 ,50 ,60 ,70 ,80 ,90 ,100] */\n  0xff\n  and\n  dup2\n  mstore\n  0x20\n  add\n    /* \"fifth.sol\":117:119  30 */\n  0x1e\n    /* \"fifth.sol\":90:149  uint [10]  array = [10,20 ,30 ,40 ,50 ,60 ,70 ,80 ,90 ,100] */\n  0xff\n  and\n  dup2\n  mstore\n  0x20\n  add\n    /* \"fifth.sol\":121:123  40 */\n  0x28\n    /* \"fifth.sol\":90:149  uint [10]  array = [10,20 ,30 ,40 ,50 ,60 ,70 ,80 ,90 ,100] */\n  0xff\n  and\n  dup2\n  mstore\n  0x20\n  add\n    /* \"fifth.sol\":125:127  50 */\n  0x32\n    /* \"fifth.sol\":90:149  uint [10]  array = [10,20 ,30 ,40 ,50 ,60 ,70 ,80 ,90 ,100] */\n  0xff\n  and\n  dup2\n  mstore\n  0x20\n  add\n    /* \"fifth.sol\":129:131  60 */\n  0x3c\n    /* \"fifth.sol\":90:149  uint [10]  array = [10,20 ,30 ,40 ,50 ,60 ,70 ,80 ,90 ,100] */\n  0xff\n  and\n  dup2\n  mstore\n  0x20\n  add\n    /* \"fifth.sol\":133:135  70 */\n  0x46\n    /* \"fifth.sol\":90:149  uint [10]  array = [10,20 ,30 ,40 ,50 ,60 ,70 ,80 ,90 ,100] */\n  0xff\n  and\n  dup2\n  mstore\n  0x20\n  add\n    /* \"fifth.sol\":137:139  80 */\n  0x50\n    /* \"fifth.sol\":90:149  uint [10]  array = [10,20 ,30 ,40 ,50 ,60 ,70 ,80 ,90 ,100] */\n  0xff\n  and\n  dup2\n  mstore\n  0x20\n  add\n    /* \"fifth.sol\":141:143  90 */\n  0x5a\n    /* \"fifth.sol\":90:149  uint [10]  array = [10,20 ,30 ,40 ,50 ,60 ,70 ,80 ,90 ,100] */\n  0xff\n  and\n  dup2\n  mstore\n  0x20\n  add\n    /* \"fifth.sol\":145:148  100 */\n  0x64\n    /* \"fifth.sol\":90:149  uint [10]  array = [10,20 ,30 ,40 ,50 ,60 ,70 ,80 ,90 ,100] */\n  0xff\n  and\n  dup2\n  mstore\n  pop\n  0x00\n  swap1\n  0x0a\n  tag_1\n  swap3\n  swap2\n  swap1\n  tag_2\n  jump\t// in\ntag_1:\n  pop\n    /* \"fifth.sol\":72:592  contract loops {... */\n  callvalue\n  dup1\n  iszero\n  tag_3\n  jumpi\n  revert(0x00, 0x00)\ntag_3:\n  pop\n  jump(tag_4)\ntag_2:\n  dup3\n  0x0a\n  dup2\n  add\n  swap3\n  dup3\n  iszero\n  tag_5\n  jumpi\n  swap2\n  0x20\n  mul\n  dup3\n  add\ntag_6:\n  dup3\n  dup2\n  gt\n  iszero\n  tag_7\n  jumpi\n  dup3\n  mload\n  dup3\n  swap1\n  0xff\n  and\n  swap1\n  sstore\n  swap2\n  0x20\n  add\n  swap2\n  swap1\n  0x01\n  add\n  swap1\n  jump(tag_6)\ntag_7:\ntag_5:\n  pop\n  swap1\n  pop\n  tag_8\n  swap2\n  swap1\n  tag_9\n  jump\t// in\ntag_8:\n  pop\n  swap1\n  jump\t// out\ntag_9:\ntag_10:\n  dup1\n  dup3\n  gt\n  iszero\n  tag_11\n  jumpi\n  0x00\n  dup2\n  0x00\n  swap1\n  sstore\n  pop\n  0x01\n  add\n  jump(tag_10)\ntag_11:\n  pop\n  swap1\n  jump\t// out\ntag_4:\n  dataSize(sub_0)\n  dup1\n  dataOffset(sub_0)\n  0x00\n  codecopy\n  0x00\n  return\nstop\n\nsub_0: assembly {\n        /* \"fifth.sol\":72:592  contract loops {... */\n      mstore(0x40, 0x80)\n      callvalue\n      dup1\n      iszero\n      tag_1\n      jumpi\n      revert(0x00, 0x00)\n    tag_1:\n      pop\n      jumpi(tag_2, lt(calldatasize, 0x04))\n      shr(0xe0, calldataload(0x00))\n      dup1\n      0x69bd01c4\n      eq\n      tag_3\n      jumpi\n      dup1\n      0x853255cc\n      eq\n      tag_4\n      jumpi\n    tag_2:\n      revert(0x00, 0x00)\n        /* \"fifth.sol\":154:433  function getvalue () view public returns(uint , uint,bool){... */\n    tag_3:\n      tag_5\n      tag_6\n      jump\t// in\n    tag_5:\n      mload(0x40)\n      tag_7\n      swap4\n      swap3\n      swap2\n      swap1\n      tag_8\n      jump\t// in\n    tag_7:\n      mload(0x40)\n      dup1\n      swap2\n      sub\n      swap1\n      return\n        /* \"fifth.sol\":437:589  function sum () public view returns (uint){... */\n    tag_4:\n      tag_9\n      tag_10\n      jump\t// in\n    tag_9:\n      mload(0x40)\n      tag_11\n      swap2\n      swap1\n      tag_12\n      jump\t// in\n    tag_11:\n      mload(0x40)\n      dup1\n      swap2\n      sub\n      swap1\n      return\n        /* \"fifth.sol\":154:433  function getvalue () view public returns(uint , uint,bool){... */\n    tag_6:\n        /* \"fifth.sol\":195:199  uint */\n      0x00\n        /* \"fifth.sol\":202:206  uint */\n      0x00\n        /* \"fifth.sol\":207:211  bool */\n      0x00\n        /* \"fifth.sol\":219:229  uint count */\n      0x00\n        /* \"fifth.sol\":236:246  uint value */\n      0x00\n        /* \"fifth.sol\":254:264  bool found */\n      0x00\n        /* \"fifth.sol\":268:397  while (count<array.length) ... */\n    tag_14:\n        /* \"fifth.sol\":281:293  array.length */\n      0x0a\n        /* \"fifth.sol\":275:280  count */\n      dup4\n        /* \"fifth.sol\":275:293  count<array.length */\n      lt\n        /* \"fifth.sol\":268:397  while (count<array.length) ... */\n      iszero\n      tag_15\n      jumpi\n        /* \"fifth.sol\":313:318  array */\n      0x00\n        /* \"fifth.sol\":319:324  count */\n      dup4\n        /* \"fifth.sol\":313:325  array[count] */\n      0x0a\n      dup2\n      lt\n      tag_16\n      jumpi\n      tag_17\n      tag_18\n      jump\t// in\n    tag_17:\n    tag_16:\n      add\n      sload\n        /* \"fifth.sol\":305:325  value = array[count] */\n      swap2\n      pop\n        /* \"fifth.sol\":332:339  count++ */\n      dup3\n      dup1\n      tag_20\n      swap1\n      tag_21\n      jump\t// in\n    tag_20:\n      swap4\n      pop\n      pop\n        /* \"fifth.sol\":359:361  50 */\n      0x32\n        /* \"fifth.sol\":350:355  value */\n      dup3\n        /* \"fifth.sol\":350:361  value == 50 */\n      sub\n        /* \"fifth.sol\":346:393  if (value == 50) {... */\n      tag_22\n      jumpi\n        /* \"fifth.sol\":381:385  true */\n      0x01\n        /* \"fifth.sol\":374:385  found= true */\n      swap1\n      pop\n        /* \"fifth.sol\":346:393  if (value == 50) {... */\n    tag_22:\n        /* \"fifth.sol\":268:397  while (count<array.length) ... */\n      jump(tag_14)\n    tag_15:\n        /* \"fifth.sol\":409:414  count */\n      dup3\n        /* \"fifth.sol\":415:420  value */\n      dup3\n        /* \"fifth.sol\":421:426  found */\n      dup3\n        /* \"fifth.sol\":401:427  return (count,value,found) */\n      swap6\n      pop\n      swap6\n      pop\n      swap6\n      pop\n      pop\n      pop\n      pop\n        /* \"fifth.sol\":154:433  function getvalue () view public returns(uint , uint,bool){... */\n      swap1\n      swap2\n      swap3\n      jump\t// out\n        /* \"fifth.sol\":437:589  function sum () public view returns (uint){... */\n    tag_10:\n        /* \"fifth.sol\":474:478  uint */\n      0x00\n        /* \"fifth.sol\":486:495  uint suum */\n      0x00\n        /* \"fifth.sol\":507:513  uint i */\n      0x00\n        /* \"fifth.sol\":514:515  0 */\n      0x00\n        /* \"fifth.sol\":507:515  uint i=0 */\n      swap1\n      pop\n        /* \"fifth.sol\":502:569  for (uint i=0; i<array.length; i++) {... */\n    tag_24:\n        /* \"fifth.sol\":519:531  array.length */\n      0x0a\n        /* \"fifth.sol\":517:518  i */\n      dup2\n        /* \"fifth.sol\":517:531  i<array.length */\n      lt\n        /* \"fifth.sol\":502:569  for (uint i=0; i<array.length; i++) {... */\n      iszero\n      tag_25\n      jumpi\n        /* \"fifth.sol\":553:558  array */\n      0x00\n        /* \"fifth.sol\":559:560  i */\n      dup2\n        /* \"fifth.sol\":553:561  array[i] */\n      0x0a\n      dup2\n      lt\n      tag_27\n      jumpi\n      tag_28\n      tag_18\n      jump\t// in\n    tag_28:\n    tag_27:\n      add\n      sload\n        /* \"fifth.sol\":545:561  suum += array[i] */\n      dup3\n      tag_30\n      swap2\n      swap1\n      tag_31\n      jump\t// in\n    tag_30:\n      swap2\n      pop\n        /* \"fifth.sol\":533:536  i++ */\n      dup1\n      dup1\n      0x01\n      add\n      swap2\n      pop\n      pop\n        /* \"fifth.sol\":502:569  for (uint i=0; i<array.length; i++) {... */\n      jump(tag_24)\n    tag_25:\n      pop\n        /* \"fifth.sol\":581:585  suum */\n      dup1\n        /* \"fifth.sol\":573:585  return  suum */\n      swap2\n      pop\n      pop\n        /* \"fifth.sol\":437:589  function sum () public view returns (uint){... */\n      swap1\n      jump\t// out\n        /* \"#utility.yul\":7:84   */\n    tag_32:\n        /* \"#utility.yul\":44:51   */\n      0x00\n        /* \"#utility.yul\":73:78   */\n      dup2\n        /* \"#utility.yul\":62:78   */\n      swap1\n      pop\n        /* \"#utility.yul\":7:84   */\n      swap2\n      swap1\n      pop\n      jump\t// out\n        /* \"#utility.yul\":90:208   */\n    tag_33:\n        /* \"#utility.yul\":177:201   */\n      tag_40\n        /* \"#utility.yul\":195:200   */\n      dup2\n        /* \"#utility.yul\":177:201   */\n      tag_32\n      jump\t// in\n    tag_40:\n        /* \"#utility.yul\":172:175   */\n      dup3\n        /* \"#utility.yul\":165:202   */\n      mstore\n        /* \"#utility.yul\":90:208   */\n      pop\n      pop\n      jump\t// out\n        /* \"#utility.yul\":214:304   */\n    tag_34:\n        /* \"#utility.yul\":248:255   */\n      0x00\n        /* \"#utility.yul\":291:296   */\n      dup2\n        /* \"#utility.yul\":284:297   */\n      iszero\n        /* \"#utility.yul\":277:298   */\n      iszero\n        /* \"#utility.yul\":266:298   */\n      swap1\n      pop\n        /* \"#utility.yul\":214:304   */\n      swap2\n      swap1\n      pop\n      jump\t// out\n        /* \"#utility.yul\":310:419   */\n    tag_35:\n        /* \"#utility.yul\":391:412   */\n      tag_43\n        /* \"#utility.yul\":406:411   */\n      dup2\n        /* \"#utility.yul\":391:412   */\n      tag_34\n      jump\t// in\n    tag_43:\n        /* \"#utility.yul\":386:389   */\n      dup3\n        /* \"#utility.yul\":379:413   */\n      mstore\n        /* \"#utility.yul\":310:419   */\n      pop\n      pop\n      jump\t// out\n        /* \"#utility.yul\":425:855   */\n    tag_8:\n        /* \"#utility.yul\":568:572   */\n      0x00\n        /* \"#utility.yul\":606:608   */\n      0x60\n        /* \"#utility.yul\":595:604   */\n      dup3\n        /* \"#utility.yul\":591:609   */\n      add\n        /* \"#utility.yul\":583:609   */\n      swap1\n      pop\n        /* \"#utility.yul\":619:690   */\n      tag_45\n        /* \"#utility.yul\":687:688   */\n      0x00\n        /* \"#utility.yul\":676:685   */\n      dup4\n        /* \"#utility.yul\":672:689   */\n      add\n        /* \"#utility.yul\":663:669   */\n      dup7\n        /* \"#utility.yul\":619:690   */\n      tag_33\n      jump\t// in\n    tag_45:\n        /* \"#utility.yul\":700:772   */\n      tag_46\n        /* \"#utility.yul\":768:770   */\n      0x20\n        /* \"#utility.yul\":757:766   */\n      dup4\n        /* \"#utility.yul\":753:771   */\n      add\n        /* \"#utility.yul\":744:750   */\n      dup6\n        /* \"#utility.yul\":700:772   */\n      tag_33\n      jump\t// in\n    tag_46:\n        /* \"#utility.yul\":782:848   */\n      tag_47\n        /* \"#utility.yul\":844:846   */\n      0x40\n        /* \"#utility.yul\":833:842   */\n      dup4\n        /* \"#utility.yul\":829:847   */\n      add\n        /* \"#utility.yul\":820:826   */\n      dup5\n        /* \"#utility.yul\":782:848   */\n      tag_35\n      jump\t// in\n    tag_47:\n        /* \"#utility.yul\":425:855   */\n      swap5\n      swap4\n      pop\n      pop\n      pop\n      pop\n      jump\t// out\n        /* \"#utility.yul\":861:1083   */\n    tag_12:\n        /* \"#utility.yul\":954:958   */\n      0x00\n        /* \"#utility.yul\":992:994   */\n      0x20\n        /* \"#utility.yul\":981:990   */\n      dup3\n        /* \"#utility.yul\":977:995   */\n      add\n        /* \"#utility.yul\":969:995   */\n      swap1\n      pop\n        /* \"#utility.yul\":1005:1076   */\n      tag_49\n        /* \"#utility.yul\":1073:1074   */\n      0x00\n        /* \"#utility.yul\":1062:1071   */\n      dup4\n        /* \"#utility.yul\":1058:1075   */\n      add\n        /* \"#utility.yul\":1049:1055   */\n      dup5\n        /* \"#utility.yul\":1005:1076   */\n      tag_33\n      jump\t// in\n    tag_49:\n        /* \"#utility.yul\":861:1083   */\n      swap3\n      swap2\n      pop\n      pop\n      jump\t// out\n        /* \"#utility.yul\":1089:1269   */\n    tag_18:\n        /* \"#utility.yul\":1137:1214   */\n      0x4e487b7100000000000000000000000000000000000000000000000000000000\n        /* \"#utility.yul\":1134:1135   */\n      0x00\n        /* \"#utility.yul\":1127:1215   */\n      mstore\n        /* \"#utility.yul\":1234:1238   */\n      0x32\n        /* \"#utility.yul\":1231:1232   */\n      0x04\n        /* \"#utility.yul\":1224:1239   */\n      mstore\n        /* \"#utility.yul\":1258:1262   */\n      0x24\n        /* \"#utility.yul\":1255:1256   */\n      0x00\n        /* \"#utility.yul\":1248:1263   */\n      revert\n        /* \"#utility.yul\":1275:1455   */\n    tag_36:\n        /* \"#utility.yul\":1323:1400   */\n      0x4e487b7100000000000000000000000000000000000000000000000000000000\n        /* \"#utility.yul\":1320:1321   */\n      0x00\n        /* \"#utility.yul\":1313:1401   */\n      mstore\n        /* \"#utility.yul\":1420:1424   */\n      0x11\n        /* \"#utility.yul\":1417:1418   */\n      0x04\n        /* \"#utility.yul\":1410:1425   */\n      mstore\n        /* \"#utility.yul\":1444:1448   */\n      0x24\n        /* \"#utility.yul\":1441:1442   */\n      0x00\n        /* \"#utility.yul\":1434:1449   */\n      revert\n        /* \"#utility.yul\":1461:1694   */\n    tag_21:\n        /* \"#utility.yul\":1500:1503   */\n      0x00\n        /* \"#utility.yul\":1523:1547   */\n      tag_53\n        /* \"#utility.yul\":1541:1546   */\n      dup3\n        /* \"#utility.yul\":1523:1547   */\n      tag_32\n      jump\t// in\n    tag_53:\n        /* \"#utility.yul\":1514:1547   */\n      swap2\n      pop\n        /* \"#utility.yul\":1569:1635   */\n      0xffffffffffffffffffffffffffffffffffffffffffffffffffffffffffffffff\n        /* \"#utility.yul\":1562:1567   */\n      dup3\n        /* \"#utility.yul\":1559:1636   */\n      sub\n        /* \"#utility.yul\":1556:1659   */\n      tag_54\n      jumpi\n        /* \"#utility.yul\":1639:1657   */\n      tag_55\n      tag_36\n      jump\t// in\n    tag_55:\n        /* \"#utility.yul\":1556:1659   */\n    tag_54:\n        /* \"#utility.yul\":1686:1687   */\n      0x01\n        /* \"#utility.yul\":1679:1684   */\n      dup3\n        /* \"#utility.yul\":1675:1688   */\n      add\n        /* \"#utility.yul\":1668:1688   */\n      swap1\n      pop\n        /* \"#utility.yul\":1461:1694   */\n      swap2\n      swap1\n      pop\n      jump\t// out\n        /* \"#utility.yul\":1700:1891   */\n    tag_31:\n        /* \"#utility.yul\":1740:1743   */\n      0x00\n        /* \"#utility.yul\":1759:1779   */\n      tag_57\n        /* \"#utility.yul\":1777:1778   */\n      dup3\n        /* \"#utility.yul\":1759:1779   */\n      tag_32\n      jump\t// in\n    tag_57:\n        /* \"#utility.yul\":1754:1779   */\n      swap2\n      pop\n        /* \"#utility.yul\":1793:1813   */\n      tag_58\n        /* \"#utility.yul\":1811:1812   */\n      dup4\n        /* \"#utility.yul\":1793:1813   */\n      tag_32\n      jump\t// in\n    tag_58:\n        /* \"#utility.yul\":1788:1813   */\n      swap3\n      pop\n        /* \"#utility.yul\":1836:1837   */\n      dup3\n        /* \"#utility.yul\":1833:1834   */\n      dup3\n        /* \"#utility.yul\":1829:1838   */\n      add\n        /* \"#utility.yul\":1822:1838   */\n      swap1\n      pop\n        /* \"#utility.yul\":1857:1860   */\n      dup1\n        /* \"#utility.yul\":1854:1855   */\n      dup3\n        /* \"#utility.yul\":1851:1861   */\n      gt\n        /* \"#utility.yul\":1848:1884   */\n      iszero\n      tag_59\n      jumpi\n        /* \"#utility.yul\":1864:1882   */\n      tag_60\n      tag_36\n      jump\t// in\n    tag_60:\n        /* \"#utility.yul\":1848:1884   */\n    tag_59:\n        /* \"#utility.yul\":1700:1891   */\n      swap3\n      swap2\n      pop\n      pop\n      jump\t// out\n\n    auxdata: 0xa2646970667358221220968418c53a40bf4d189f873be15d893e1593e7822f81860e75dfe4b75c6bdd2864736f6c634300081f0033\n}\n",
				"bytecode": {
					"linkReferences": {},
					"object": "6080604052604051806101400160405280600a60ff168152602001601460ff168152602001601e60ff168152602001602860ff168152602001603260ff168152602001603c60ff168152602001604660ff168152602001605060ff168152602001605a60ff168152602001606460ff168152505f90600a610081929190610093565b5034801561008d575f5ffd5b506100f3565b82600a81019282156100c7579160200282015b828111156100c6578251829060ff169055916020019190600101906100a6565b5b5090506100d491906100d8565b5090565b5b808211156100ef575f815f9055506001016100d9565b5090565b61029f806101005f395ff3fe608060405234801561000f575f5ffd5b5060043610610034575f3560e01c806369bd01c414610038578063853255cc14610058575b5f5ffd5b610040610076565b60405161004f93929190610147565b60405180910390f35b6100606100ce565b60405161006d919061017c565b60405180910390f35b5f5f5f5f5f5f5b600a8310156100bd575f83600a811061009957610098610195565b5b0154915082806100a8906101ef565b935050603282036100b857600190505b61007d565b828282955095509550505050909192565b5f5f5f5f90505b600a81101561010d575f81600a81106100f1576100f0610195565b5b0154826100fe9190610236565b915080806001019150506100d5565b508091505090565b5f819050919050565b61012781610115565b82525050565b5f8115159050919050565b6101418161012d565b82525050565b5f60608201905061015a5f83018661011e565b610167602083018561011e565b6101746040830184610138565b949350505050565b5f60208201905061018f5f83018461011e565b92915050565b7f4e487b71000000000000000000000000000000000000000000000000000000005f52603260045260245ffd5b7f4e487b71000000000000000000000000000000000000000000000000000000005f52601160045260245ffd5b5f6101f982610115565b91507fffffffffffffffffffffffffffffffffffffffffffffffffffffffffffffffff820361022b5761022a6101c2565b5b600182019050919050565b5f61024082610115565b915061024b83610115565b9250828201905080821115610263576102626101c2565b5b9291505056fea2646970667358221220968418c53a40bf4d189f873be15d893e1593e7822f81860e75dfe4b75c6bdd2864736f6c634300081f0033",
					"opcodes": "PUSH1 0x80 PUSH1 0x40 MSTORE PUSH1 0x40 MLOAD DUP1 PUSH2 0x140 ADD PUSH1 0x40 MSTORE DUP1 PUSH1 0xA PUSH1 0xFF AND DUP2 MSTORE PUSH1 0x20 ADD PUSH1 0x14 PUSH1 0xFF AND DUP2 MSTORE PUSH1 0x20 ADD PUSH1 0x1E PUSH1 0xFF AND DUP2 MSTORE PUSH1 0x20 ADD PUSH1 0x28 PUSH1 0xFF AND DUP2 MSTORE PUSH1 0x20 ADD PUSH1 0x32 PUSH1 0xFF AND DUP2 MSTORE PUSH1 0x20 ADD PUSH1 0x3C PUSH1 0xFF AND DUP2 MSTORE PUSH1 0x20 ADD PUSH1 0x46 PUSH1 0xFF AND DUP2 MSTORE PUSH1 0x20 ADD PUSH1 0x50 PUSH1 0xFF AND DUP2 MSTORE PUSH1 0x20 ADD PUSH1 0x5A PUSH1 0xFF AND DUP2 MSTORE PUSH1 0x20 ADD PUSH1 0x64 PUSH1 0xFF AND DUP2 MSTORE POP PUSH0 SWAP1 PUSH1 0xA PUSH2 0x81 SWAP3 SWAP2 SWAP1 PUSH2 0x93 JUMP JUMPDEST POP CALLVALUE DUP1 ISZERO PUSH2 0x8D JUMPI PUSH0 PUSH0 REVERT JUMPDEST POP PUSH2 0xF3 JUMP JUMPDEST DUP3 PUSH1 0xA DUP2 ADD SWAP3 DUP3 ISZERO PUSH2 0xC7 JUMPI SWAP2 PUSH1 0x20 MUL DUP3 ADD JUMPDEST DUP3 DUP2 GT ISZERO PUSH2 0xC6 JUMPI DUP3 MLOAD DUP3 SWAP1 PUSH1 0xFF AND SWAP1 SSTORE SWAP2 PUSH1 0x20 ADD SWAP2 SWAP1 PUSH1 0x1 ADD SWAP1 PUSH2 0xA6 JUMP JUMPDEST JUMPDEST POP SWAP1 POP PUSH2 0xD4 SWAP2 SWAP1 PUSH2 0xD8 JUMP JUMPDEST POP SWAP1 JUMP JUMPDEST JUMPDEST DUP1 DUP3 GT ISZERO PUSH2 0xEF JUMPI PUSH0 DUP2 PUSH0 SWAP1 SSTORE POP PUSH1 0x1 ADD PUSH2 0xD9 JUMP JUMPDEST POP SWAP1 JUMP JUMPDEST PUSH2 0x29F DUP1 PUSH2 0x100 PUSH0 CODECOPY PUSH0 RETURN INVALID PUSH1 0x80 PUSH1 0x40 MSTORE CALLVALUE DUP1 ISZERO PUSH2 0xF JUMPI PUSH0 PUSH0 REVERT JUMPDEST POP PUSH1 0x4 CALLDATASIZE LT PUSH2 0x34 JUMPI PUSH0 CALLDATALOAD PUSH1 0xE0 SHR DUP1 PUSH4 0x69BD01C4 EQ PUSH2 0x38 JUMPI DUP1 PUSH4 0x853255CC EQ PUSH2 0x58 JUMPI JUMPDEST PUSH0 PUSH0 REVERT JUMPDEST PUSH2 0x40 PUSH2 0x76 JUMP JUMPDEST PUSH1 0x40 MLOAD PUSH2 0x4F SWAP4 SWAP3 SWAP2 SWAP1 PUSH2 0x147 JUMP JUMPDEST PUSH1 0x40 MLOAD DUP1 SWAP2 SUB SWAP1 RETURN JUMPDEST PUSH2 0x60 PUSH2 0xCE JUMP JUMPDEST PUSH1 0x40 MLOAD PUSH2 0x6D SWAP2 SWAP1 PUSH2 0x17C JUMP JUMPDEST PUSH1 0x40 MLOAD DUP1 SWAP2 SUB SWAP1 RETURN JUMPDEST PUSH0 PUSH0 PUSH0 PUSH0 PUSH0 PUSH0 JUMPDEST PUSH1 0xA DUP4 LT ISZERO PUSH2 0xBD JUMPI PUSH0 DUP4 PUSH1 0xA DUP2 LT PUSH2 0x99 JUMPI PUSH2 0x98 PUSH2 0x195 JUMP JUMPDEST JUMPDEST ADD SLOAD SWAP2 POP DUP3 DUP1 PUSH2 0xA8 SWAP1 PUSH2 0x1EF JUMP JUMPDEST SWAP4 POP POP PUSH1 0x32 DUP3 SUB PUSH2 0xB8 JUMPI PUSH1 0x1 SWAP1 POP JUMPDEST PUSH2 0x7D JUMP JUMPDEST DUP3 DUP3 DUP3 SWAP6 POP SWAP6 POP SWAP6 POP POP POP POP SWAP1 SWAP2 SWAP3 JUMP JUMPDEST PUSH0 PUSH0 PUSH0 PUSH0 SWAP1 POP JUMPDEST PUSH1 0xA DUP2 LT ISZERO PUSH2 0x10D JUMPI PUSH0 DUP2 PUSH1 0xA DUP2 LT PUSH2 0xF1 JUMPI PUSH2 0xF0 PUSH2 0x195 JUMP JUMPDEST JUMPDEST ADD SLOAD DUP3 PUSH2 0xFE SWAP2 SWAP1 PUSH2 0x236 JUMP JUMPDEST SWAP2 POP DUP1 DUP1 PUSH1 0x1 ADD SWAP2 POP POP PUSH2 0xD5 JUMP JUMPDEST POP DUP1 SWAP2 POP POP SWAP1 JUMP JUMPDEST PUSH0 DUP2 SWAP1 POP SWAP2 SWAP1 POP JUMP JUMPDEST PUSH2 0x127 DUP2 PUSH2 0x115 JUMP JUMPDEST DUP3 MSTORE POP POP JUMP JUMPDEST PUSH0 DUP2 ISZERO ISZERO SWAP1 POP SWAP2 SWAP1 POP JUMP JUMPDEST PUSH2 0x141 DUP2 PUSH2 0x12D JUMP JUMPDEST DUP3 MSTORE POP POP JUMP JUMPDEST PUSH0 PUSH1 0x60 DUP3 ADD SWAP1 POP PUSH2 0x15A PUSH0 DUP4 ADD DUP7 PUSH2 0x11E JUMP JUMPDEST PUSH2 0x167 PUSH1 0x20 DUP4 ADD DUP6 PUSH2 0x11E JUMP JUMPDEST PUSH2 0x174 PUSH1 0x40 DUP4 ADD DUP5 PUSH2 0x138 JUMP JUMPDEST SWAP5 SWAP4 POP POP POP POP JUMP JUMPDEST PUSH0 PUSH1 0x20 DUP3 ADD SWAP1 POP PUSH2 0x18F PUSH0 DUP4 ADD DUP5 PUSH2 0x11E JUMP JUMPDEST SWAP3 SWAP2 POP POP JUMP JUMPDEST PUSH32 0x4E487B7100000000000000000000000000000000000000000000000000000000 PUSH0 MSTORE PUSH1 0x32 PUSH1 0x4 MSTORE PUSH1 0x24 PUSH0 REVERT JUMPDEST PUSH32 0x4E487B7100000000000000000000000000000000000000000000000000000000 PUSH0 MSTORE PUSH1 0x11 PUSH1 0x4 MSTORE PUSH1 0x24 PUSH0 REVERT JUMPDEST PUSH0 PUSH2 0x1F9 DUP3 PUSH2 0x115 JUMP JUMPDEST SWAP2 POP PUSH32 0xFFFFFFFFFFFFFFFFFFFFFFFFFFFFFFFFFFFFFFFFFFFFFFFFFFFFFFFFFFFFFFFF DUP3 SUB PUSH2 0x22B JUMPI PUSH2 0x22A PUSH2 0x1C2 JUMP JUMPDEST JUMPDEST PUSH1 0x1 DUP3 ADD SWAP1 POP SWAP2 SWAP1 POP JUMP JUMPDEST PUSH0 PUSH2 0x240 DUP3 PUSH2 0x115 JUMP JUMPDEST SWAP2 POP PUSH2 0x24B DUP4 PUSH2 0x115 JUMP JUMPDEST SWAP3 POP DUP3 DUP3 ADD SWAP1 POP DUP1 DUP3 GT ISZERO PUSH2 0x263 JUMPI PUSH2 0x262 PUSH2 0x1C2 JUMP JUMPDEST JUMPDEST SWAP3 SWAP2 POP POP JUMP INVALID LOG2 PUSH5 0x6970667358 0x22 SLT KECCAK256 SWAP7 DUP5 XOR 0xC5 GASPRICE BLOCKHASH 0xBF 0x4D XOR SWAP16 DUP8 EXTCODESIZE RJUMPI 0x5D89 RETURNDATACOPY ISZERO SWAP4 SWAPN 0x82 0x2F DUP2 DUP7 0xE PUSH22 0xDFE4B75C6BDD2864736F6C634300081F003300000000 "
				},
				"gasEstimates": {
					"creation": {
						"codeDepositCost": "134200",
						"executionCost": "infinite",
						"totalCost": "infinite"
					},
					"external": {
						"getvalue()": "infinite",
						"sum()": "infinite"
					}
				},
				"methodIdentifiers": {
					"getvalue()": "69bd01c4",
					"sum()": "853255cc"
				}
			},
			"storageLayout": {
				"storage": [
					{
						"astId": 16,
						"contract": "fifth.sol:loops",
						"label": "array",
						"offset": 0,
						"slot": "0",
						"type": "t_array(t_uint256)10_storage"
					}
				],
				"types": {
					"t_array(t_uint256)10_storage": {
						"base": "t_uint256",
						"encoding": "inplace",
						"label": "uint256[10]",
						"numberOfBytes": "320"
					},
					"t_uint256": {
						"encoding": "inplace",
						"label": "uint256",
						"numberOfBytes": "32"
					}
				}
			},
			"userdoc": {
				"kind": "user",
				"methods": {},
				"version": 1
			}
		}
	}
}