{
	"forth.sol": {
		"bytesArray": {
			"abi": [
				{
					"inputs": [],
					"name": "b3",
					"outputs": [
						{
							"internalType": "bytes3",
							"name": "",
							"type": "bytes3"
						}
					],
					"stateMutability": "view",
					"type": "function"
				},
				{
					"inputs": [],
					"name": "b4",
					"outputs": [
						{
							"internalType": "bytes4",
							"name": "",
							"type": "bytes4"
						}
					],
					"stateMutability": "view",
					"type": "function"
				},
				{
					"inputs": [],
					"name": "barray",
					"outputs": [
						{
							"internalType": "bytes",
							"name": "",
							"type": "bytes"
						}
					],
					"stateMutability": "view",
					"type": "function"
				},
				{
					"inputs": [
						{
							"internalType": "uint256",
							"name": "index",
							"type": "uint256"
						}
					],
					"name": "getIndexValue",
					"outputs": [
						{
							"internalType": "bytes1",
							"name": "",
							"type": "bytes1"
						}
					],
					"stateMutability": "view",
					"type": "function"
				},
				{
					"inputs": [],
					"name": "getLength",
					"outputs": [
						{
							"internalType": "uint256",
							"name": "",
							"type": "uint256"
						}
					],
					"stateMutability": "view",
					"type": "function"
				},
				{
					"inputs": [
						{
							"internalType": "uint256",
							"name": "index",
							"type": "uint256"
						}
					],
					"name": "removeDynamicBytes",
					"outputs": [],
					"stateMutability": "nonpayable",
					"type": "function"
				},
				{
					"inputs": [],
					"name": "setBytes",
					"outputs": [],
					"stateMutability": "nonpayable",
					"type": "function"
				},
				{
					"inputs": [
						{
							"internalType": "bytes1",
							"name": "value",
							"type": "bytes1"
						}
					],
					"name": "setDynamicBytes",
					"outputs": [],
					"stateMutability": "nonpayable",
					"type": "function"
				}
			],
			"devdoc": {
				"kind": "dev",
				"methods": {},
				"version": 1
			},
			"evm": {
				"assembly": "    /* \"forth.sol\":74:701  contract bytesArray {... */\n  mstore(0x40, 0x80)\n  callvalue\n  dup1\n  iszero\n  tag_1\n  jumpi\n  revert(0x00, 0x00)\ntag_1:\n  pop\n  dataSize(sub_0)\n  dup1\n  dataOffset(sub_0)\n  0x00\n  codecopy\n  0x00\n  return\nstop\n\nsub_0: assembly {\n        /* \"forth.sol\":74:701  contract bytesArray {... */\n      mstore(0x40, 0x80)\n      callvalue\n      dup1\n      iszero\n      tag_1\n      jumpi\n      revert(0x00, 0x00)\n    tag_1:\n      pop\n      jumpi(tag_2, lt(calldatasize, 0x04))\n      shr(0xe0, calldataload(0x00))\n      dup1\n      0xb4fed844\n      gt\n      tag_11\n      jumpi\n      dup1\n      0xb4fed844\n      eq\n      tag_7\n      jumpi\n      dup1\n      0xbe1c766b\n      eq\n      tag_8\n      jumpi\n      dup1\n      0xd86c3d84\n      eq\n      tag_9\n      jumpi\n      dup1\n      0xe9b61909\n      eq\n      tag_10\n      jumpi\n      jump(tag_2)\n    tag_11:\n      dup1\n      0x347394ac\n      eq\n      tag_3\n      jumpi\n      dup1\n      0x3db3fb0a\n      eq\n      tag_4\n      jumpi\n      dup1\n      0xa3e3d5b7\n      eq\n      tag_5\n      jumpi\n      dup1\n      0xad95d6b4\n      eq\n      tag_6\n      jumpi\n    tag_2:\n      revert(0x00, 0x00)\n        /* \"forth.sol\":535:618  function removeDynamicBytes(uint index) public {... */\n    tag_3:\n      tag_12\n      0x04\n      dup1\n      calldatasize\n      sub\n      dup2\n      add\n      swap1\n      tag_13\n      swap2\n      swap1\n      tag_14\n      jump\t// in\n    tag_13:\n      tag_15\n      jump\t// in\n    tag_12:\n      stop\n        /* \"forth.sol\":232:248  bytes4 public b4 */\n    tag_4:\n      tag_16\n      tag_17\n      jump\t// in\n    tag_16:\n      mload(0x40)\n      tag_18\n      swap2\n      swap1\n      tag_19\n      jump\t// in\n    tag_18:\n      mload(0x40)\n      dup1\n      swap2\n      sub\n      swap1\n      return\n        /* \"forth.sol\":340:359  bytes public barray */\n    tag_5:\n      tag_20\n      tag_21\n      jump\t// in\n    tag_20:\n      mload(0x40)\n      tag_22\n      swap2\n      swap1\n      tag_23\n      jump\t// in\n    tag_22:\n      mload(0x40)\n      dup1\n      swap2\n      sub\n      swap1\n      return\n        /* \"forth.sol\":251:317  function setBytes() public {... */\n    tag_6:\n      tag_24\n      tag_25\n      jump\t// in\n    tag_24:\n      stop\n        /* \"forth.sol\":440:533  function getIndexValue(uint index) public view returns(bytes1){... */\n    tag_7:\n      tag_26\n      0x04\n      dup1\n      calldatasize\n      sub\n      dup2\n      add\n      swap1\n      tag_27\n      swap2\n      swap1\n      tag_14\n      jump\t// in\n    tag_27:\n      tag_28\n      jump\t// in\n    tag_26:\n      mload(0x40)\n      tag_29\n      swap2\n      swap1\n      tag_30\n      jump\t// in\n    tag_29:\n      mload(0x40)\n      dup1\n      swap2\n      sub\n      swap1\n      return\n        /* \"forth.sol\":620:696  function getLength()public view returns(uint){... */\n    tag_8:\n      tag_31\n      tag_32\n      jump\t// in\n    tag_31:\n      mload(0x40)\n      tag_33\n      swap2\n      swap1\n      tag_34\n      jump\t// in\n    tag_33:\n      mload(0x40)\n      dup1\n      swap2\n      sub\n      swap1\n      return\n        /* \"forth.sol\":362:438  function setDynamicBytes(bytes1 value ) public {... */\n    tag_9:\n      tag_35\n      0x04\n      dup1\n      calldatasize\n      sub\n      dup2\n      add\n      swap1\n      tag_36\n      swap2\n      swap1\n      tag_37\n      jump\t// in\n    tag_36:\n      tag_38\n      jump\t// in\n    tag_35:\n      stop\n        /* \"forth.sol\":213:229  bytes3 public b3 */\n    tag_10:\n      tag_39\n      tag_40\n      jump\t// in\n    tag_39:\n      mload(0x40)\n      tag_41\n      swap2\n      swap1\n      tag_42\n      jump\t// in\n    tag_41:\n      mload(0x40)\n      dup1\n      swap2\n      sub\n      swap1\n      return\n        /* \"forth.sol\":535:618  function removeDynamicBytes(uint index) public {... */\n    tag_15:\n        /* \"forth.sol\":612:613  0 */\n      0x00\n        /* \"forth.sol\":605:614  bytes1(0) */\n      0xf8\n      shl\n        /* \"forth.sol\":589:595  barray */\n      0x01\n        /* \"forth.sol\":596:601  index */\n      dup3\n        /* \"forth.sol\":589:602  barray[index] */\n      dup2\n      sload\n      tag_44\n      swap1\n      tag_45\n      jump\t// in\n    tag_44:\n      dup2\n      lt\n      tag_46\n      jumpi\n      tag_47\n      tag_48\n      jump\t// in\n    tag_47:\n    tag_46:\n      dup2\n      sload\n      0x01\n      and\n      iszero\n      tag_49\n      jumpi\n      swap1\n      0x00\n      mstore\n      keccak256(0x00, 0x20)\n      swap1\n      0x20\n      swap2\n      dup3\n      dup3\n      div\n      add\n      swap2\n      swap1\n      mod\n    tag_49:\n        /* \"forth.sol\":589:614  barray[index] = bytes1(0) */\n      0x1f\n      sub\n      0x0100\n      exp\n      dup2\n      sload\n      dup2\n      0xff\n      mul\n      not\n      and\n      swap1\n      0x0100000000000000000000000000000000000000000000000000000000000000\n      dup5\n      div\n      mul\n      or\n      swap1\n      sstore\n      pop\n        /* \"forth.sol\":535:618  function removeDynamicBytes(uint index) public {... */\n      pop\n      jump\t// out\n        /* \"forth.sol\":232:248  bytes4 public b4 */\n    tag_17:\n      0x00\n      0x03\n      swap1\n      sload\n      swap1\n      0x0100\n      exp\n      swap1\n      div\n      0xe0\n      shl\n      dup2\n      jump\t// out\n        /* \"forth.sol\":340:359  bytes public barray */\n    tag_21:\n      0x01\n      dup1\n      sload\n      tag_50\n      swap1\n      tag_45\n      jump\t// in\n    tag_50:\n      dup1\n      0x1f\n      add\n      0x20\n      dup1\n      swap2\n      div\n      mul\n      0x20\n      add\n      mload(0x40)\n      swap1\n      dup2\n      add\n      0x40\n      mstore\n      dup1\n      swap3\n      swap2\n      swap1\n      dup2\n      dup2\n      mstore\n      0x20\n      add\n      dup3\n      dup1\n      sload\n      tag_51\n      swap1\n      tag_45\n      jump\t// in\n    tag_51:\n      dup1\n      iszero\n      tag_52\n      jumpi\n      dup1\n      0x1f\n      lt\n      tag_53\n      jumpi\n      0x0100\n      dup1\n      dup4\n      sload\n      div\n      mul\n      dup4\n      mstore\n      swap2\n      0x20\n      add\n      swap2\n      jump(tag_52)\n    tag_53:\n      dup3\n      add\n      swap2\n      swap1\n      0x00\n      mstore\n      keccak256(0x00, 0x20)\n      swap1\n    tag_54:\n      dup2\n      sload\n      dup2\n      mstore\n      swap1\n      0x01\n      add\n      swap1\n      0x20\n      add\n      dup1\n      dup4\n      gt\n      tag_54\n      jumpi\n      dup3\n      swap1\n      sub\n      0x1f\n      and\n      dup3\n      add\n      swap2\n    tag_52:\n      pop\n      pop\n      pop\n      pop\n      pop\n      dup2\n      jump\t// out\n        /* \"forth.sol\":251:317  function setBytes() public {... */\n    tag_25:\n        /* \"forth.sol\":285:295  b3 = \"abc\" */\n      0x6162630000000000000000000000000000000000000000000000000000000000\n        /* \"forth.sol\":285:287  b3 */\n      0x00\n      0x00\n        /* \"forth.sol\":285:295  b3 = \"abc\" */\n      0x0100\n      exp\n      dup2\n      sload\n      dup2\n      0xffffff\n      mul\n      not\n      and\n      swap1\n      dup4\n      0xe8\n      shr\n      mul\n      or\n      swap1\n      sstore\n      pop\n        /* \"forth.sol\":302:313  b4 = \"abcd\" */\n      0x6162636400000000000000000000000000000000000000000000000000000000\n        /* \"forth.sol\":302:304  b4 */\n      0x00\n      0x03\n        /* \"forth.sol\":302:313  b4 = \"abcd\" */\n      0x0100\n      exp\n      dup2\n      sload\n      dup2\n      0xffffffff\n      mul\n      not\n      and\n      swap1\n      dup4\n      0xe0\n      shr\n      mul\n      or\n      swap1\n      sstore\n      pop\n        /* \"forth.sol\":251:317  function setBytes() public {... */\n      jump\t// out\n        /* \"forth.sol\":440:533  function getIndexValue(uint index) public view returns(bytes1){... */\n    tag_28:\n        /* \"forth.sol\":495:501  bytes1 */\n      0x00\n        /* \"forth.sol\":516:522  barray */\n      0x01\n        /* \"forth.sol\":523:528  index */\n      dup3\n        /* \"forth.sol\":516:529  barray[index] */\n      dup2\n      sload\n      tag_57\n      swap1\n      tag_45\n      jump\t// in\n    tag_57:\n      dup2\n      lt\n      tag_58\n      jumpi\n      tag_59\n      tag_48\n      jump\t// in\n    tag_59:\n    tag_58:\n      dup2\n      sload\n      0x01\n      and\n      iszero\n      tag_60\n      jumpi\n      swap1\n      0x00\n      mstore\n      keccak256(0x00, 0x20)\n      swap1\n      0x20\n      swap2\n      dup3\n      dup3\n      div\n      add\n      swap2\n      swap1\n      mod\n    tag_60:\n      swap1\n      sload\n      swap1\n      byte\n      0x0100000000000000000000000000000000000000000000000000000000000000\n      mul\n        /* \"forth.sol\":509:529  return barray[index] */\n      swap1\n      pop\n        /* \"forth.sol\":440:533  function getIndexValue(uint index) public view returns(bytes1){... */\n      swap2\n      swap1\n      pop\n      jump\t// out\n        /* \"forth.sol\":620:696  function getLength()public view returns(uint){... */\n    tag_32:\n        /* \"forth.sol\":660:664  uint */\n      0x00\n        /* \"forth.sol\":679:685  barray */\n      0x01\n        /* \"forth.sol\":679:692  barray.length */\n      dup1\n      sload\n      tag_62\n      swap1\n      tag_45\n      jump\t// in\n    tag_62:\n      swap1\n      pop\n        /* \"forth.sol\":672:692  return barray.length */\n      swap1\n      pop\n        /* \"forth.sol\":620:696  function getLength()public view returns(uint){... */\n      swap1\n      jump\t// out\n        /* \"forth.sol\":362:438  function setDynamicBytes(bytes1 value ) public {... */\n    tag_38:\n        /* \"forth.sol\":416:422  barray */\n      0x01\n        /* \"forth.sol\":428:433  value */\n      dup2\n        /* \"forth.sol\":416:434  barray.push(value) */\n      swap1\n      dup1\n      dup1\n      sload\n      dup1\n      tag_64\n      swap1\n      tag_45\n      jump\t// in\n    tag_64:\n      dup1\n      0x1f\n      dup2\n      sub\n      tag_65\n      jumpi\n      dup4\n      0x00\n      mstore\n      keccak256(0x00, 0x20)\n      not(0xff)\n      dup5\n      and\n      dup2\n      sstore\n      0x3f\n      swap4\n      pop\n      pop\n    tag_65:\n      pop\n      0x02\n      dup3\n      add\n      dup4\n      sstore\n      0x01\n      dup2\n      add\n      swap3\n      pop\n      pop\n      pop\n      0x01\n      swap1\n      sub\n      dup2\n      sload\n      0x01\n      and\n      iszero\n      tag_67\n      jumpi\n      swap1\n      0x00\n      mstore\n      keccak256(0x00, 0x20)\n      swap1\n      0x20\n      swap2\n      dup3\n      dup3\n      div\n      add\n      swap2\n      swap1\n      mod\n    tag_67:\n      swap1\n      swap2\n      swap1\n      swap2\n      swap1\n      swap2\n      0x1f\n      sub\n      0x0100\n      exp\n      dup2\n      sload\n      dup2\n      0xff\n      mul\n      not\n      and\n      swap1\n      0x0100000000000000000000000000000000000000000000000000000000000000\n      dup5\n      div\n      mul\n      or\n      swap1\n      sstore\n      pop\n        /* \"forth.sol\":362:438  function setDynamicBytes(bytes1 value ) public {... */\n      pop\n      jump\t// out\n        /* \"forth.sol\":213:229  bytes3 public b3 */\n    tag_40:\n      0x00\n      0x00\n      swap1\n      sload\n      swap1\n      0x0100\n      exp\n      swap1\n      div\n      0xe8\n      shl\n      dup2\n      jump\t// out\n        /* \"#utility.yul\":88:205   */\n    tag_69:\n        /* \"#utility.yul\":197:198   */\n      0x00\n        /* \"#utility.yul\":194:195   */\n      0x00\n        /* \"#utility.yul\":187:199   */\n      revert\n        /* \"#utility.yul\":334:411   */\n    tag_71:\n        /* \"#utility.yul\":371:378   */\n      0x00\n        /* \"#utility.yul\":400:405   */\n      dup2\n        /* \"#utility.yul\":389:405   */\n      swap1\n      pop\n        /* \"#utility.yul\":334:411   */\n      swap2\n      swap1\n      pop\n      jump\t// out\n        /* \"#utility.yul\":417:539   */\n    tag_72:\n        /* \"#utility.yul\":490:514   */\n      tag_95\n        /* \"#utility.yul\":508:513   */\n      dup2\n        /* \"#utility.yul\":490:514   */\n      tag_71\n      jump\t// in\n    tag_95:\n        /* \"#utility.yul\":483:488   */\n      dup2\n        /* \"#utility.yul\":480:515   */\n      eq\n        /* \"#utility.yul\":470:533   */\n      tag_96\n      jumpi\n        /* \"#utility.yul\":529:530   */\n      0x00\n        /* \"#utility.yul\":526:527   */\n      0x00\n        /* \"#utility.yul\":519:531   */\n      revert\n        /* \"#utility.yul\":470:533   */\n    tag_96:\n        /* \"#utility.yul\":417:539   */\n      pop\n      jump\t// out\n        /* \"#utility.yul\":545:684   */\n    tag_73:\n        /* \"#utility.yul\":591:596   */\n      0x00\n        /* \"#utility.yul\":629:635   */\n      dup2\n        /* \"#utility.yul\":616:636   */\n      calldataload\n        /* \"#utility.yul\":607:636   */\n      swap1\n      pop\n        /* \"#utility.yul\":645:678   */\n      tag_98\n        /* \"#utility.yul\":672:677   */\n      dup2\n        /* \"#utility.yul\":645:678   */\n      tag_72\n      jump\t// in\n    tag_98:\n        /* \"#utility.yul\":545:684   */\n      swap3\n      swap2\n      pop\n      pop\n      jump\t// out\n        /* \"#utility.yul\":690:1019   */\n    tag_14:\n        /* \"#utility.yul\":749:755   */\n      0x00\n        /* \"#utility.yul\":798:800   */\n      0x20\n        /* \"#utility.yul\":786:795   */\n      dup3\n        /* \"#utility.yul\":777:784   */\n      dup5\n        /* \"#utility.yul\":773:796   */\n      sub\n        /* \"#utility.yul\":769:801   */\n      slt\n        /* \"#utility.yul\":766:885   */\n      iszero\n      tag_100\n      jumpi\n        /* \"#utility.yul\":804:883   */\n      tag_101\n      tag_69\n      jump\t// in\n    tag_101:\n        /* \"#utility.yul\":766:885   */\n    tag_100:\n        /* \"#utility.yul\":924:925   */\n      0x00\n        /* \"#utility.yul\":949:1002   */\n      tag_102\n        /* \"#utility.yul\":994:1001   */\n      dup5\n        /* \"#utility.yul\":985:991   */\n      dup3\n        /* \"#utility.yul\":974:983   */\n      dup6\n        /* \"#utility.yul\":970:992   */\n      add\n        /* \"#utility.yul\":949:1002   */\n      tag_73\n      jump\t// in\n    tag_102:\n        /* \"#utility.yul\":939:1002   */\n      swap2\n      pop\n        /* \"#utility.yul\":895:1012   */\n      pop\n        /* \"#utility.yul\":690:1019   */\n      swap3\n      swap2\n      pop\n      pop\n      jump\t// out\n        /* \"#utility.yul\":1025:1174   */\n    tag_74:\n        /* \"#utility.yul\":1061:1068   */\n      0x00\n        /* \"#utility.yul\":1101:1167   */\n      0xffffffff00000000000000000000000000000000000000000000000000000000\n        /* \"#utility.yul\":1094:1099   */\n      dup3\n        /* \"#utility.yul\":1090:1168   */\n      and\n        /* \"#utility.yul\":1079:1168   */\n      swap1\n      pop\n        /* \"#utility.yul\":1025:1174   */\n      swap2\n      swap1\n      pop\n      jump\t// out\n        /* \"#utility.yul\":1180:1295   */\n    tag_75:\n        /* \"#utility.yul\":1265:1288   */\n      tag_105\n        /* \"#utility.yul\":1282:1287   */\n      dup2\n        /* \"#utility.yul\":1265:1288   */\n      tag_74\n      jump\t// in\n    tag_105:\n        /* \"#utility.yul\":1260:1263   */\n      dup3\n        /* \"#utility.yul\":1253:1289   */\n      mstore\n        /* \"#utility.yul\":1180:1295   */\n      pop\n      pop\n      jump\t// out\n        /* \"#utility.yul\":1301:1519   */\n    tag_19:\n        /* \"#utility.yul\":1392:1396   */\n      0x00\n        /* \"#utility.yul\":1430:1432   */\n      0x20\n        /* \"#utility.yul\":1419:1428   */\n      dup3\n        /* \"#utility.yul\":1415:1433   */\n      add\n        /* \"#utility.yul\":1407:1433   */\n      swap1\n      pop\n        /* \"#utility.yul\":1443:1512   */\n      tag_107\n        /* \"#utility.yul\":1509:1510   */\n      0x00\n        /* \"#utility.yul\":1498:1507   */\n      dup4\n        /* \"#utility.yul\":1494:1511   */\n      add\n        /* \"#utility.yul\":1485:1491   */\n      dup5\n        /* \"#utility.yul\":1443:1512   */\n      tag_75\n      jump\t// in\n    tag_107:\n        /* \"#utility.yul\":1301:1519   */\n      swap3\n      swap2\n      pop\n      pop\n      jump\t// out\n        /* \"#utility.yul\":1525:1623   */\n    tag_76:\n        /* \"#utility.yul\":1576:1582   */\n      0x00\n        /* \"#utility.yul\":1610:1615   */\n      dup2\n        /* \"#utility.yul\":1604:1616   */\n      mload\n        /* \"#utility.yul\":1594:1616   */\n      swap1\n      pop\n        /* \"#utility.yul\":1525:1623   */\n      swap2\n      swap1\n      pop\n      jump\t// out\n        /* \"#utility.yul\":1629:1797   */\n    tag_77:\n        /* \"#utility.yul\":1712:1723   */\n      0x00\n        /* \"#utility.yul\":1746:1752   */\n      dup3\n        /* \"#utility.yul\":1741:1744   */\n      dup3\n        /* \"#utility.yul\":1734:1753   */\n      mstore\n        /* \"#utility.yul\":1786:1790   */\n      0x20\n        /* \"#utility.yul\":1781:1784   */\n      dup3\n        /* \"#utility.yul\":1777:1791   */\n      add\n        /* \"#utility.yul\":1762:1791   */\n      swap1\n      pop\n        /* \"#utility.yul\":1629:1797   */\n      swap3\n      swap2\n      pop\n      pop\n      jump\t// out\n        /* \"#utility.yul\":1803:1942   */\n    tag_78:\n        /* \"#utility.yul\":1892:1898   */\n      dup3\n        /* \"#utility.yul\":1887:1890   */\n      dup2\n        /* \"#utility.yul\":1882:1885   */\n      dup4\n        /* \"#utility.yul\":1876:1899   */\n      mcopy\n        /* \"#utility.yul\":1933:1934   */\n      0x00\n        /* \"#utility.yul\":1924:1930   */\n      dup4\n        /* \"#utility.yul\":1919:1922   */\n      dup4\n        /* \"#utility.yul\":1915:1931   */\n      add\n        /* \"#utility.yul\":1908:1935   */\n      mstore\n        /* \"#utility.yul\":1803:1942   */\n      pop\n      pop\n      pop\n      jump\t// out\n        /* \"#utility.yul\":1948:2050   */\n    tag_79:\n        /* \"#utility.yul\":1989:1995   */\n      0x00\n        /* \"#utility.yul\":2040:2042   */\n      0x1f\n        /* \"#utility.yul\":2036:2043   */\n      not\n        /* \"#utility.yul\":2031:2033   */\n      0x1f\n        /* \"#utility.yul\":2024:2029   */\n      dup4\n        /* \"#utility.yul\":2020:2034   */\n      add\n        /* \"#utility.yul\":2016:2044   */\n      and\n        /* \"#utility.yul\":2006:2044   */\n      swap1\n      pop\n        /* \"#utility.yul\":1948:2050   */\n      swap2\n      swap1\n      pop\n      jump\t// out\n        /* \"#utility.yul\":2056:2429   */\n    tag_80:\n        /* \"#utility.yul\":2142:2145   */\n      0x00\n        /* \"#utility.yul\":2170:2208   */\n      tag_113\n        /* \"#utility.yul\":2202:2207   */\n      dup3\n        /* \"#utility.yul\":2170:2208   */\n      tag_76\n      jump\t// in\n    tag_113:\n        /* \"#utility.yul\":2224:2294   */\n      tag_114\n        /* \"#utility.yul\":2287:2293   */\n      dup2\n        /* \"#utility.yul\":2282:2285   */\n      dup6\n        /* \"#utility.yul\":2224:2294   */\n      tag_77\n      jump\t// in\n    tag_114:\n        /* \"#utility.yul\":2217:2294   */\n      swap4\n      pop\n        /* \"#utility.yul\":2303:2368   */\n      tag_115\n        /* \"#utility.yul\":2361:2367   */\n      dup2\n        /* \"#utility.yul\":2356:2359   */\n      dup6\n        /* \"#utility.yul\":2349:2353   */\n      0x20\n        /* \"#utility.yul\":2342:2347   */\n      dup7\n        /* \"#utility.yul\":2338:2354   */\n      add\n        /* \"#utility.yul\":2303:2368   */\n      tag_78\n      jump\t// in\n    tag_115:\n        /* \"#utility.yul\":2393:2422   */\n      tag_116\n        /* \"#utility.yul\":2415:2421   */\n      dup2\n        /* \"#utility.yul\":2393:2422   */\n      tag_79\n      jump\t// in\n    tag_116:\n        /* \"#utility.yul\":2388:2391   */\n      dup5\n        /* \"#utility.yul\":2384:2423   */\n      add\n        /* \"#utility.yul\":2377:2423   */\n      swap2\n      pop\n        /* \"#utility.yul\":2146:2429   */\n      pop\n        /* \"#utility.yul\":2056:2429   */\n      swap3\n      swap2\n      pop\n      pop\n      jump\t// out\n        /* \"#utility.yul\":2435:2744   */\n    tag_23:\n        /* \"#utility.yul\":2546:2550   */\n      0x00\n        /* \"#utility.yul\":2584:2586   */\n      0x20\n        /* \"#utility.yul\":2573:2582   */\n      dup3\n        /* \"#utility.yul\":2569:2587   */\n      add\n        /* \"#utility.yul\":2561:2587   */\n      swap1\n      pop\n        /* \"#utility.yul\":2633:2642   */\n      dup2\n        /* \"#utility.yul\":2627:2631   */\n      dup2\n        /* \"#utility.yul\":2623:2643   */\n      sub\n        /* \"#utility.yul\":2619:2620   */\n      0x00\n        /* \"#utility.yul\":2608:2617   */\n      dup4\n        /* \"#utility.yul\":2604:2621   */\n      add\n        /* \"#utility.yul\":2597:2644   */\n      mstore\n        /* \"#utility.yul\":2661:2737   */\n      tag_118\n        /* \"#utility.yul\":2732:2736   */\n      dup2\n        /* \"#utility.yul\":2723:2729   */\n      dup5\n        /* \"#utility.yul\":2661:2737   */\n      tag_80\n      jump\t// in\n    tag_118:\n        /* \"#utility.yul\":2653:2737   */\n      swap1\n      pop\n        /* \"#utility.yul\":2435:2744   */\n      swap3\n      swap2\n      pop\n      pop\n      jump\t// out\n        /* \"#utility.yul\":2750:2899   */\n    tag_81:\n        /* \"#utility.yul\":2786:2793   */\n      0x00\n        /* \"#utility.yul\":2826:2892   */\n      0xff00000000000000000000000000000000000000000000000000000000000000\n        /* \"#utility.yul\":2819:2824   */\n      dup3\n        /* \"#utility.yul\":2815:2893   */\n      and\n        /* \"#utility.yul\":2804:2893   */\n      swap1\n      pop\n        /* \"#utility.yul\":2750:2899   */\n      swap2\n      swap1\n      pop\n      jump\t// out\n        /* \"#utility.yul\":2905:3020   */\n    tag_82:\n        /* \"#utility.yul\":2990:3013   */\n      tag_121\n        /* \"#utility.yul\":3007:3012   */\n      dup2\n        /* \"#utility.yul\":2990:3013   */\n      tag_81\n      jump\t// in\n    tag_121:\n        /* \"#utility.yul\":2985:2988   */\n      dup3\n        /* \"#utility.yul\":2978:3014   */\n      mstore\n        /* \"#utility.yul\":2905:3020   */\n      pop\n      pop\n      jump\t// out\n        /* \"#utility.yul\":3026:3244   */\n    tag_30:\n        /* \"#utility.yul\":3117:3121   */\n      0x00\n        /* \"#utility.yul\":3155:3157   */\n      0x20\n        /* \"#utility.yul\":3144:3153   */\n      dup3\n        /* \"#utility.yul\":3140:3158   */\n      add\n        /* \"#utility.yul\":3132:3158   */\n      swap1\n      pop\n        /* \"#utility.yul\":3168:3237   */\n      tag_123\n        /* \"#utility.yul\":3234:3235   */\n      0x00\n        /* \"#utility.yul\":3223:3232   */\n      dup4\n        /* \"#utility.yul\":3219:3236   */\n      add\n        /* \"#utility.yul\":3210:3216   */\n      dup5\n        /* \"#utility.yul\":3168:3237   */\n      tag_82\n      jump\t// in\n    tag_123:\n        /* \"#utility.yul\":3026:3244   */\n      swap3\n      swap2\n      pop\n      pop\n      jump\t// out\n        /* \"#utility.yul\":3250:3368   */\n    tag_83:\n        /* \"#utility.yul\":3337:3361   */\n      tag_125\n        /* \"#utility.yul\":3355:3360   */\n      dup2\n        /* \"#utility.yul\":3337:3361   */\n      tag_71\n      jump\t// in\n    tag_125:\n        /* \"#utility.yul\":3332:3335   */\n      dup3\n        /* \"#utility.yul\":3325:3362   */\n      mstore\n        /* \"#utility.yul\":3250:3368   */\n      pop\n      pop\n      jump\t// out\n        /* \"#utility.yul\":3374:3596   */\n    tag_34:\n        /* \"#utility.yul\":3467:3471   */\n      0x00\n        /* \"#utility.yul\":3505:3507   */\n      0x20\n        /* \"#utility.yul\":3494:3503   */\n      dup3\n        /* \"#utility.yul\":3490:3508   */\n      add\n        /* \"#utility.yul\":3482:3508   */\n      swap1\n      pop\n        /* \"#utility.yul\":3518:3589   */\n      tag_127\n        /* \"#utility.yul\":3586:3587   */\n      0x00\n        /* \"#utility.yul\":3575:3584   */\n      dup4\n        /* \"#utility.yul\":3571:3588   */\n      add\n        /* \"#utility.yul\":3562:3568   */\n      dup5\n        /* \"#utility.yul\":3518:3589   */\n      tag_83\n      jump\t// in\n    tag_127:\n        /* \"#utility.yul\":3374:3596   */\n      swap3\n      swap2\n      pop\n      pop\n      jump\t// out\n        /* \"#utility.yul\":3602:3722   */\n    tag_84:\n        /* \"#utility.yul\":3674:3697   */\n      tag_129\n        /* \"#utility.yul\":3691:3696   */\n      dup2\n        /* \"#utility.yul\":3674:3697   */\n      tag_81\n      jump\t// in\n    tag_129:\n        /* \"#utility.yul\":3667:3672   */\n      dup2\n        /* \"#utility.yul\":3664:3698   */\n      eq\n        /* \"#utility.yul\":3654:3716   */\n      tag_130\n      jumpi\n        /* \"#utility.yul\":3712:3713   */\n      0x00\n        /* \"#utility.yul\":3709:3710   */\n      0x00\n        /* \"#utility.yul\":3702:3714   */\n      revert\n        /* \"#utility.yul\":3654:3716   */\n    tag_130:\n        /* \"#utility.yul\":3602:3722   */\n      pop\n      jump\t// out\n        /* \"#utility.yul\":3728:3865   */\n    tag_85:\n        /* \"#utility.yul\":3773:3778   */\n      0x00\n        /* \"#utility.yul\":3811:3817   */\n      dup2\n        /* \"#utility.yul\":3798:3818   */\n      calldataload\n        /* \"#utility.yul\":3789:3818   */\n      swap1\n      pop\n        /* \"#utility.yul\":3827:3859   */\n      tag_132\n        /* \"#utility.yul\":3853:3858   */\n      dup2\n        /* \"#utility.yul\":3827:3859   */\n      tag_84\n      jump\t// in\n    tag_132:\n        /* \"#utility.yul\":3728:3865   */\n      swap3\n      swap2\n      pop\n      pop\n      jump\t// out\n        /* \"#utility.yul\":3871:4198   */\n    tag_37:\n        /* \"#utility.yul\":3929:3935   */\n      0x00\n        /* \"#utility.yul\":3978:3980   */\n      0x20\n        /* \"#utility.yul\":3966:3975   */\n      dup3\n        /* \"#utility.yul\":3957:3964   */\n      dup5\n        /* \"#utility.yul\":3953:3976   */\n      sub\n        /* \"#utility.yul\":3949:3981   */\n      slt\n        /* \"#utility.yul\":3946:4065   */\n      iszero\n      tag_134\n      jumpi\n        /* \"#utility.yul\":3984:4063   */\n      tag_135\n      tag_69\n      jump\t// in\n    tag_135:\n        /* \"#utility.yul\":3946:4065   */\n    tag_134:\n        /* \"#utility.yul\":4104:4105   */\n      0x00\n        /* \"#utility.yul\":4129:4181   */\n      tag_136\n        /* \"#utility.yul\":4173:4180   */\n      dup5\n        /* \"#utility.yul\":4164:4170   */\n      dup3\n        /* \"#utility.yul\":4153:4162   */\n      dup6\n        /* \"#utility.yul\":4149:4171   */\n      add\n        /* \"#utility.yul\":4129:4181   */\n      tag_85\n      jump\t// in\n    tag_136:\n        /* \"#utility.yul\":4119:4181   */\n      swap2\n      pop\n        /* \"#utility.yul\":4075:4191   */\n      pop\n        /* \"#utility.yul\":3871:4198   */\n      swap3\n      swap2\n      pop\n      pop\n      jump\t// out\n        /* \"#utility.yul\":4204:4353   */\n    tag_86:\n        /* \"#utility.yul\":4240:4247   */\n      0x00\n        /* \"#utility.yul\":4280:4346   */\n      0xffffff0000000000000000000000000000000000000000000000000000000000\n        /* \"#utility.yul\":4273:4278   */\n      dup3\n        /* \"#utility.yul\":4269:4347   */\n      and\n        /* \"#utility.yul\":4258:4347   */\n      swap1\n      pop\n        /* \"#utility.yul\":4204:4353   */\n      swap2\n      swap1\n      pop\n      jump\t// out\n        /* \"#utility.yul\":4359:4474   */\n    tag_87:\n        /* \"#utility.yul\":4444:4467   */\n      tag_139\n        /* \"#utility.yul\":4461:4466   */\n      dup2\n        /* \"#utility.yul\":4444:4467   */\n      tag_86\n      jump\t// in\n    tag_139:\n        /* \"#utility.yul\":4439:4442   */\n      dup3\n        /* \"#utility.yul\":4432:4468   */\n      mstore\n        /* \"#utility.yul\":4359:4474   */\n      pop\n      pop\n      jump\t// out\n        /* \"#utility.yul\":4480:4698   */\n    tag_42:\n        /* \"#utility.yul\":4571:4575   */\n      0x00\n        /* \"#utility.yul\":4609:4611   */\n      0x20\n        /* \"#utility.yul\":4598:4607   */\n      dup3\n        /* \"#utility.yul\":4594:4612   */\n      add\n        /* \"#utility.yul\":4586:4612   */\n      swap1\n      pop\n        /* \"#utility.yul\":4622:4691   */\n      tag_141\n        /* \"#utility.yul\":4688:4689   */\n      0x00\n        /* \"#utility.yul\":4677:4686   */\n      dup4\n        /* \"#utility.yul\":4673:4690   */\n      add\n        /* \"#utility.yul\":4664:4670   */\n      dup5\n        /* \"#utility.yul\":4622:4691   */\n      tag_87\n      jump\t// in\n    tag_141:\n        /* \"#utility.yul\":4480:4698   */\n      swap3\n      swap2\n      pop\n      pop\n      jump\t// out\n        /* \"#utility.yul\":4704:4884   */\n    tag_88:\n        /* \"#utility.yul\":4752:4829   */\n      0x4e487b7100000000000000000000000000000000000000000000000000000000\n        /* \"#utility.yul\":4749:4750   */\n      0x00\n        /* \"#utility.yul\":4742:4830   */\n      mstore\n        /* \"#utility.yul\":4849:4853   */\n      0x22\n        /* \"#utility.yul\":4846:4847   */\n      0x04\n        /* \"#utility.yul\":4839:4854   */\n      mstore\n        /* \"#utility.yul\":4873:4877   */\n      0x24\n        /* \"#utility.yul\":4870:4871   */\n      0x00\n        /* \"#utility.yul\":4863:4878   */\n      revert\n        /* \"#utility.yul\":4890:5210   */\n    tag_45:\n        /* \"#utility.yul\":4934:4940   */\n      0x00\n        /* \"#utility.yul\":4971:4972   */\n      0x02\n        /* \"#utility.yul\":4965:4969   */\n      dup3\n        /* \"#utility.yul\":4961:4973   */\n      div\n        /* \"#utility.yul\":4951:4973   */\n      swap1\n      pop\n        /* \"#utility.yul\":5018:5019   */\n      0x01\n        /* \"#utility.yul\":5012:5016   */\n      dup3\n        /* \"#utility.yul\":5008:5020   */\n      and\n        /* \"#utility.yul\":5039:5057   */\n      dup1\n        /* \"#utility.yul\":5029:5110   */\n      tag_144\n      jumpi\n        /* \"#utility.yul\":5095:5099   */\n      0x7f\n        /* \"#utility.yul\":5087:5093   */\n      dup3\n        /* \"#utility.yul\":5083:5100   */\n      and\n        /* \"#utility.yul\":5073:5100   */\n      swap2\n      pop\n        /* \"#utility.yul\":5029:5110   */\n    tag_144:\n        /* \"#utility.yul\":5157:5159   */\n      0x20\n        /* \"#utility.yul\":5149:5155   */\n      dup3\n        /* \"#utility.yul\":5146:5160   */\n      lt\n        /* \"#utility.yul\":5126:5144   */\n      dup2\n        /* \"#utility.yul\":5123:5161   */\n      sub\n        /* \"#utility.yul\":5120:5204   */\n      tag_145\n      jumpi\n        /* \"#utility.yul\":5176:5194   */\n      tag_146\n      tag_88\n      jump\t// in\n    tag_146:\n        /* \"#utility.yul\":5120:5204   */\n    tag_145:\n        /* \"#utility.yul\":4941:5210   */\n      pop\n        /* \"#utility.yul\":4890:5210   */\n      swap2\n      swap1\n      pop\n      jump\t// out\n        /* \"#utility.yul\":5216:5396   */\n    tag_48:\n        /* \"#utility.yul\":5264:5341   */\n      0x4e487b7100000000000000000000000000000000000000000000000000000000\n        /* \"#utility.yul\":5261:5262   */\n      0x00\n        /* \"#utility.yul\":5254:5342   */\n      mstore\n        /* \"#utility.yul\":5361:5365   */\n      0x32\n        /* \"#utility.yul\":5358:5359   */\n      0x04\n        /* \"#utility.yul\":5351:5366   */\n      mstore\n        /* \"#utility.yul\":5385:5389   */\n      0x24\n        /* \"#utility.yul\":5382:5383   */\n      0x00\n        /* \"#utility.yul\":5375:5390   */\n      revert\n\n    auxdata: 0xa2646970667358221220c08ffd8570191f14efc9cc7023bca969963d309e3e31e472b40064da836b34e464736f6c634300081f0033\n}\n",
				"bytecode": {
					"linkReferences": {},
					"object": "6080604052348015600e575f5ffd5b5061075a8061001c5f395ff3fe608060405234801561000f575f5ffd5b5060043610610086575f3560e01c8063b4fed84411610059578063b4fed844146100ec578063be1c766b1461011c578063d86c3d841461013a578063e9b619091461015657610086565b8063347394ac1461008a5780633db3fb0a146100a6578063a3e3d5b7146100c4578063ad95d6b4146100e2575b5f5ffd5b6100a4600480360381019061009f9190610469565b610174565b005b6100ae6101ed565b6040516100bb91906104ce565b60405180910390f35b6100cc6101ff565b6040516100d99190610557565b60405180910390f35b6100ea61028b565b005b61010660048036038101906101019190610469565b610305565b60405161011391906105b1565b60405180910390f35b61012461036d565b60405161013191906105d9565b60405180910390f35b610154600480360381019061014f919061061c565b610382565b005b61015e610421565b60405161016b9190610681565b60405180910390f35b5f60f81b6001828154610186906106c7565b8110610195576101946106f7565b5b8154600116156101b257905f5260205f2090602091828204019190065b601f036101000a81548160ff021916907f01000000000000000000000000000000000000000000000000000000000000008404021790555050565b5f60039054906101000a900460e01b81565b6001805461020c906106c7565b80601f0160208091040260200160405190810160405280929190818152602001828054610238906106c7565b80156102835780601f1061025a57610100808354040283529160200191610283565b820191905f5260205f20905b81548152906001019060200180831161026657829003601f168201915b505050505081565b7f61626300000000000000000000000000000000000000000000000000000000005f5f6101000a81548162ffffff021916908360e81c02179055507f61626364000000000000000000000000000000000000000000000000000000005f60036101000a81548163ffffffff021916908360e01c0217905550565b5f6001828154610314906106c7565b8110610323576103226106f7565b5b81546001161561034057905f5260205f2090602091828204019190065b9054901a7f0100000000000000000000000000000000000000000000000000000000000000029050919050565b5f6001805461037b906106c7565b9050905090565b6001819080805480610393906106c7565b80601f81036103b057835f5260205f2060ff1984168155603f9350505b506002820183556001810192505050600190038154600116156103e057905f5260205f2090602091828204019190065b909190919091601f036101000a81548160ff021916907f01000000000000000000000000000000000000000000000000000000000000008404021790555050565b5f5f9054906101000a900460e81b81565b5f5ffd5b5f819050919050565b61044881610436565b8114610452575f5ffd5b50565b5f813590506104638161043f565b92915050565b5f6020828403121561047e5761047d610432565b5b5f61048b84828501610455565b91505092915050565b5f7fffffffff0000000000000000000000000000000000000000000000000000000082169050919050565b6104c881610494565b82525050565b5f6020820190506104e15f8301846104bf565b92915050565b5f81519050919050565b5f82825260208201905092915050565b8281835e5f83830152505050565b5f601f19601f8301169050919050565b5f610529826104e7565b61053381856104f1565b9350610543818560208601610501565b61054c8161050f565b840191505092915050565b5f6020820190508181035f83015261056f818461051f565b905092915050565b5f7fff0000000000000000000000000000000000000000000000000000000000000082169050919050565b6105ab81610577565b82525050565b5f6020820190506105c45f8301846105a2565b92915050565b6105d381610436565b82525050565b5f6020820190506105ec5f8301846105ca565b92915050565b6105fb81610577565b8114610605575f5ffd5b50565b5f81359050610616816105f2565b92915050565b5f6020828403121561063157610630610432565b5b5f61063e84828501610608565b91505092915050565b5f7fffffff000000000000000000000000000000000000000000000000000000000082169050919050565b61067b81610647565b82525050565b5f6020820190506106945f830184610672565b92915050565b7f4e487b71000000000000000000000000000000000000000000000000000000005f52602260045260245ffd5b5f60028204905060018216806106de57607f821691505b6020821081036106f1576106f061069a565b5b50919050565b7f4e487b71000000000000000000000000000000000000000000000000000000005f52603260045260245ffdfea2646970667358221220c08ffd8570191f14efc9cc7023bca969963d309e3e31e472b40064da836b34e464736f6c634300081f0033",
					"opcodes": "PUSH1 0x80 PUSH1 0x40 MSTORE CALLVALUE DUP1 ISZERO PUSH1 0xE JUMPI PUSH0 PUSH0 REVERT JUMPDEST POP PUSH2 0x75A DUP1 PUSH2 0x1C PUSH0 CODECOPY PUSH0 RETURN INVALID PUSH1 0x80 PUSH1 0x40 MSTORE CALLVALUE DUP1 ISZERO PUSH2 0xF JUMPI PUSH0 PUSH0 REVERT JUMPDEST POP PUSH1 0x4 CALLDATASIZE LT PUSH2 0x86 JUMPI PUSH0 CALLDATALOAD PUSH1 0xE0 SHR DUP1 PUSH4 0xB4FED844 GT PUSH2 0x59 JUMPI DUP1 PUSH4 0xB4FED844 EQ PUSH2 0xEC JUMPI DUP1 PUSH4 0xBE1C766B EQ PUSH2 0x11C JUMPI DUP1 PUSH4 0xD86C3D84 EQ PUSH2 0x13A JUMPI DUP1 PUSH4 0xE9B61909 EQ PUSH2 0x156 JUMPI PUSH2 0x86 JUMP JUMPDEST DUP1 PUSH4 0x347394AC EQ PUSH2 0x8A JUMPI DUP1 PUSH4 0x3DB3FB0A EQ PUSH2 0xA6 JUMPI DUP1 PUSH4 0xA3E3D5B7 EQ PUSH2 0xC4 JUMPI DUP1 PUSH4 0xAD95D6B4 EQ PUSH2 0xE2 JUMPI JUMPDEST PUSH0 PUSH0 REVERT JUMPDEST PUSH2 0xA4 PUSH1 0x4 DUP1 CALLDATASIZE SUB DUP2 ADD SWAP1 PUSH2 0x9F SWAP2 SWAP1 PUSH2 0x469 JUMP JUMPDEST PUSH2 0x174 JUMP JUMPDEST STOP JUMPDEST PUSH2 0xAE PUSH2 0x1ED JUMP JUMPDEST PUSH1 0x40 MLOAD PUSH2 0xBB SWAP2 SWAP1 PUSH2 0x4CE JUMP JUMPDEST PUSH1 0x40 MLOAD DUP1 SWAP2 SUB SWAP1 RETURN JUMPDEST PUSH2 0xCC PUSH2 0x1FF JUMP JUMPDEST PUSH1 0x40 MLOAD PUSH2 0xD9 SWAP2 SWAP1 PUSH2 0x557 JUMP JUMPDEST PUSH1 0x40 MLOAD DUP1 SWAP2 SUB SWAP1 RETURN JUMPDEST PUSH2 0xEA PUSH2 0x28B JUMP JUMPDEST STOP JUMPDEST PUSH2 0x106 PUSH1 0x4 DUP1 CALLDATASIZE SUB DUP2 ADD SWAP1 PUSH2 0x101 SWAP2 SWAP1 PUSH2 0x469 JUMP JUMPDEST PUSH2 0x305 JUMP JUMPDEST PUSH1 0x40 MLOAD PUSH2 0x113 SWAP2 SWAP1 PUSH2 0x5B1 JUMP JUMPDEST PUSH1 0x40 MLOAD DUP1 SWAP2 SUB SWAP1 RETURN JUMPDEST PUSH2 0x124 PUSH2 0x36D JUMP JUMPDEST PUSH1 0x40 MLOAD PUSH2 0x131 SWAP2 SWAP1 PUSH2 0x5D9 JUMP JUMPDEST PUSH1 0x40 MLOAD DUP1 SWAP2 SUB SWAP1 RETURN JUMPDEST PUSH2 0x154 PUSH1 0x4 DUP1 CALLDATASIZE SUB DUP2 ADD SWAP1 PUSH2 0x14F SWAP2 SWAP1 PUSH2 0x61C JUMP JUMPDEST PUSH2 0x382 JUMP JUMPDEST STOP JUMPDEST PUSH2 0x15E PUSH2 0x421 JUMP JUMPDEST PUSH1 0x40 MLOAD PUSH2 0x16B SWAP2 SWAP1 PUSH2 0x681 JUMP JUMPDEST PUSH1 0x40 MLOAD DUP1 SWAP2 SUB SWAP1 RETURN JUMPDEST PUSH0 PUSH1 0xF8 SHL PUSH1 0x1 DUP3 DUP2 SLOAD PUSH2 0x186 SWAP1 PUSH2 0x6C7 JUMP JUMPDEST DUP2 LT PUSH2 0x195 JUMPI PUSH2 0x194 PUSH2 0x6F7 JUMP JUMPDEST JUMPDEST DUP2 SLOAD PUSH1 0x1 AND ISZERO PUSH2 0x1B2 JUMPI SWAP1 PUSH0 MSTORE PUSH1 0x20 PUSH0 KECCAK256 SWAP1 PUSH1 0x20 SWAP2 DUP3 DUP3 DIV ADD SWAP2 SWAP1 MOD JUMPDEST PUSH1 0x1F SUB PUSH2 0x100 EXP DUP2 SLOAD DUP2 PUSH1 0xFF MUL NOT AND SWAP1 PUSH32 0x100000000000000000000000000000000000000000000000000000000000000 DUP5 DIV MUL OR SWAP1 SSTORE POP POP JUMP JUMPDEST PUSH0 PUSH1 0x3 SWAP1 SLOAD SWAP1 PUSH2 0x100 EXP SWAP1 DIV PUSH1 0xE0 SHL DUP2 JUMP JUMPDEST PUSH1 0x1 DUP1 SLOAD PUSH2 0x20C SWAP1 PUSH2 0x6C7 JUMP JUMPDEST DUP1 PUSH1 0x1F ADD PUSH1 0x20 DUP1 SWAP2 DIV MUL PUSH1 0x20 ADD PUSH1 0x40 MLOAD SWAP1 DUP2 ADD PUSH1 0x40 MSTORE DUP1 SWAP3 SWAP2 SWAP1 DUP2 DUP2 MSTORE PUSH1 0x20 ADD DUP3 DUP1 SLOAD PUSH2 0x238 SWAP1 PUSH2 0x6C7 JUMP JUMPDEST DUP1 ISZERO PUSH2 0x283 JUMPI DUP1 PUSH1 0x1F LT PUSH2 0x25A JUMPI PUSH2 0x100 DUP1 DUP4 SLOAD DIV MUL DUP4 MSTORE SWAP2 PUSH1 0x20 ADD SWAP2 PUSH2 0x283 JUMP JUMPDEST DUP3 ADD SWAP2 SWAP1 PUSH0 MSTORE PUSH1 0x20 PUSH0 KECCAK256 SWAP1 JUMPDEST DUP2 SLOAD DUP2 MSTORE SWAP1 PUSH1 0x1 ADD SWAP1 PUSH1 0x20 ADD DUP1 DUP4 GT PUSH2 0x266 JUMPI DUP3 SWAP1 SUB PUSH1 0x1F AND DUP3 ADD SWAP2 JUMPDEST POP POP POP POP POP DUP2 JUMP JUMPDEST PUSH32 0x6162630000000000000000000000000000000000000000000000000000000000 PUSH0 PUSH0 PUSH2 0x100 EXP DUP2 SLOAD DUP2 PUSH3 0xFFFFFF MUL NOT AND SWAP1 DUP4 PUSH1 0xE8 SHR MUL OR SWAP1 SSTORE POP PUSH32 0x6162636400000000000000000000000000000000000000000000000000000000 PUSH0 PUSH1 0x3 PUSH2 0x100 EXP DUP2 SLOAD DUP2 PUSH4 0xFFFFFFFF MUL NOT AND SWAP1 DUP4 PUSH1 0xE0 SHR MUL OR SWAP1 SSTORE POP JUMP JUMPDEST PUSH0 PUSH1 0x1 DUP3 DUP2 SLOAD PUSH2 0x314 SWAP1 PUSH2 0x6C7 JUMP JUMPDEST DUP2 LT PUSH2 0x323 JUMPI PUSH2 0x322 PUSH2 0x6F7 JUMP JUMPDEST JUMPDEST DUP2 SLOAD PUSH1 0x1 AND ISZERO PUSH2 0x340 JUMPI SWAP1 PUSH0 MSTORE PUSH1 0x20 PUSH0 KECCAK256 SWAP1 PUSH1 0x20 SWAP2 DUP3 DUP3 DIV ADD SWAP2 SWAP1 MOD JUMPDEST SWAP1 SLOAD SWAP1 BYTE PUSH32 0x100000000000000000000000000000000000000000000000000000000000000 MUL SWAP1 POP SWAP2 SWAP1 POP JUMP JUMPDEST PUSH0 PUSH1 0x1 DUP1 SLOAD PUSH2 0x37B SWAP1 PUSH2 0x6C7 JUMP JUMPDEST SWAP1 POP SWAP1 POP SWAP1 JUMP JUMPDEST PUSH1 0x1 DUP2 SWAP1 DUP1 DUP1 SLOAD DUP1 PUSH2 0x393 SWAP1 PUSH2 0x6C7 JUMP JUMPDEST DUP1 PUSH1 0x1F DUP2 SUB PUSH2 0x3B0 JUMPI DUP4 PUSH0 MSTORE PUSH1 0x20 PUSH0 KECCAK256 PUSH1 0xFF NOT DUP5 AND DUP2 SSTORE PUSH1 0x3F SWAP4 POP POP JUMPDEST POP PUSH1 0x2 DUP3 ADD DUP4 SSTORE PUSH1 0x1 DUP2 ADD SWAP3 POP POP POP PUSH1 0x1 SWAP1 SUB DUP2 SLOAD PUSH1 0x1 AND ISZERO PUSH2 0x3E0 JUMPI SWAP1 PUSH0 MSTORE PUSH1 0x20 PUSH0 KECCAK256 SWAP1 PUSH1 0x20 SWAP2 DUP3 DUP3 DIV ADD SWAP2 SWAP1 MOD JUMPDEST SWAP1 SWAP2 SWAP1 SWAP2 SWAP1 SWAP2 PUSH1 0x1F SUB PUSH2 0x100 EXP DUP2 SLOAD DUP2 PUSH1 0xFF MUL NOT AND SWAP1 PUSH32 0x100000000000000000000000000000000000000000000000000000000000000 DUP5 DIV MUL OR SWAP1 SSTORE POP POP JUMP JUMPDEST PUSH0 PUSH0 SWAP1 SLOAD SWAP1 PUSH2 0x100 EXP SWAP1 DIV PUSH1 0xE8 SHL DUP2 JUMP JUMPDEST PUSH0 PUSH0 REVERT JUMPDEST PUSH0 DUP2 SWAP1 POP SWAP2 SWAP1 POP JUMP JUMPDEST PUSH2 0x448 DUP2 PUSH2 0x436 JUMP JUMPDEST DUP2 EQ PUSH2 0x452 JUMPI PUSH0 PUSH0 REVERT JUMPDEST POP JUMP JUMPDEST PUSH0 DUP2 CALLDATALOAD SWAP1 POP PUSH2 0x463 DUP2 PUSH2 0x43F JUMP JUMPDEST SWAP3 SWAP2 POP POP JUMP JUMPDEST PUSH0 PUSH1 0x20 DUP3 DUP5 SUB SLT ISZERO PUSH2 0x47E JUMPI PUSH2 0x47D PUSH2 0x432 JUMP JUMPDEST JUMPDEST PUSH0 PUSH2 0x48B DUP5 DUP3 DUP6 ADD PUSH2 0x455 JUMP JUMPDEST SWAP2 POP POP SWAP3 SWAP2 POP POP JUMP JUMPDEST PUSH0 PUSH32 0xFFFFFFFF00000000000000000000000000000000000000000000000000000000 DUP3 AND SWAP1 POP SWAP2 SWAP1 POP JUMP JUMPDEST PUSH2 0x4C8 DUP2 PUSH2 0x494 JUMP JUMPDEST DUP3 MSTORE POP POP JUMP JUMPDEST PUSH0 PUSH1 0x20 DUP3 ADD SWAP1 POP PUSH2 0x4E1 PUSH0 DUP4 ADD DUP5 PUSH2 0x4BF JUMP JUMPDEST SWAP3 SWAP2 POP POP JUMP JUMPDEST PUSH0 DUP2 MLOAD SWAP1 POP SWAP2 SWAP1 POP JUMP JUMPDEST PUSH0 DUP3 DUP3 MSTORE PUSH1 0x20 DUP3 ADD SWAP1 POP SWAP3 SWAP2 POP POP JUMP JUMPDEST DUP3 DUP2 DUP4 MCOPY PUSH0 DUP4 DUP4 ADD MSTORE POP POP POP JUMP JUMPDEST PUSH0 PUSH1 0x1F NOT PUSH1 0x1F DUP4 ADD AND SWAP1 POP SWAP2 SWAP1 POP JUMP JUMPDEST PUSH0 PUSH2 0x529 DUP3 PUSH2 0x4E7 JUMP JUMPDEST PUSH2 0x533 DUP2 DUP6 PUSH2 0x4F1 JUMP JUMPDEST SWAP4 POP PUSH2 0x543 DUP2 DUP6 PUSH1 0x20 DUP7 ADD PUSH2 0x501 JUMP JUMPDEST PUSH2 0x54C DUP2 PUSH2 0x50F JUMP JUMPDEST DUP5 ADD SWAP2 POP POP SWAP3 SWAP2 POP POP JUMP JUMPDEST PUSH0 PUSH1 0x20 DUP3 ADD SWAP1 POP DUP2 DUP2 SUB PUSH0 DUP4 ADD MSTORE PUSH2 0x56F DUP2 DUP5 PUSH2 0x51F JUMP JUMPDEST SWAP1 POP SWAP3 SWAP2 POP POP JUMP JUMPDEST PUSH0 PUSH32 0xFF00000000000000000000000000000000000000000000000000000000000000 DUP3 AND SWAP1 POP SWAP2 SWAP1 POP JUMP JUMPDEST PUSH2 0x5AB DUP2 PUSH2 0x577 JUMP JUMPDEST DUP3 MSTORE POP POP JUMP JUMPDEST PUSH0 PUSH1 0x20 DUP3 ADD SWAP1 POP PUSH2 0x5C4 PUSH0 DUP4 ADD DUP5 PUSH2 0x5A2 JUMP JUMPDEST SWAP3 SWAP2 POP POP JUMP JUMPDEST PUSH2 0x5D3 DUP2 PUSH2 0x436 JUMP JUMPDEST DUP3 MSTORE POP POP JUMP JUMPDEST PUSH0 PUSH1 0x20 DUP3 ADD SWAP1 POP PUSH2 0x5EC PUSH0 DUP4 ADD DUP5 PUSH2 0x5CA JUMP JUMPDEST SWAP3 SWAP2 POP POP JUMP JUMPDEST PUSH2 0x5FB DUP2 PUSH2 0x577 JUMP JUMPDEST DUP2 EQ PUSH2 0x605 JUMPI PUSH0 PUSH0 REVERT JUMPDEST POP JUMP JUMPDEST PUSH0 DUP2 CALLDATALOAD SWAP1 POP PUSH2 0x616 DUP2 PUSH2 0x5F2 JUMP JUMPDEST SWAP3 SWAP2 POP POP JUMP JUMPDEST PUSH0 PUSH1 0x20 DUP3 DUP5 SUB SLT ISZERO PUSH2 0x631 JUMPI PUSH2 0x630 PUSH2 0x432 JUMP JUMPDEST JUMPDEST PUSH0 PUSH2 0x63E DUP5 DUP3 DUP6 ADD PUSH2 0x608 JUMP JUMPDEST SWAP2 POP POP SWAP3 SWAP2 POP POP JUMP JUMPDEST PUSH0 PUSH32 0xFFFFFF0000000000000000000000000000000000000000000000000000000000 DUP3 AND SWAP1 POP SWAP2 SWAP1 POP JUMP JUMPDEST PUSH2 0x67B DUP2 PUSH2 0x647 JUMP JUMPDEST DUP3 MSTORE POP POP JUMP JUMPDEST PUSH0 PUSH1 0x20 DUP3 ADD SWAP1 POP PUSH2 0x694 PUSH0 DUP4 ADD DUP5 PUSH2 0x672 JUMP JUMPDEST SWAP3 SWAP2 POP POP JUMP JUMPDEST PUSH32 0x4E487B7100000000000000000000000000000000000000000000000000000000 PUSH0 MSTORE PUSH1 0x22 PUSH1 0x4 MSTORE PUSH1 0x24 PUSH0 REVERT JUMPDEST PUSH0 PUSH1 0x2 DUP3 DIV SWAP1 POP PUSH1 0x1 DUP3 AND DUP1 PUSH2 0x6DE JUMPI PUSH1 0x7F DUP3 AND SWAP2 POP JUMPDEST PUSH1 0x20 DUP3 LT DUP2 SUB PUSH2 0x6F1 JUMPI PUSH2 0x6F0 PUSH2 0x69A JUMP JUMPDEST JUMPDEST POP SWAP2 SWAP1 POP JUMP JUMPDEST PUSH32 0x4E487B7100000000000000000000000000000000000000000000000000000000 PUSH0 MSTORE PUSH1 0x32 PUSH1 0x4 MSTORE PUSH1 0x24 PUSH0 REVERT INVALID LOG2 PUSH5 0x6970667358 0x22 SLT KECCAK256 0xC0 DUP16 REVERT DUP6 PUSH17 0x191F14EFC9CC7023BCA969963D309E3E31 RETF PUSH19 0xB40064DA836B34E464736F6C634300081F0033 "
				},
				"gasEstimates": {
					"creation": {
						"codeDepositCost": "376400",
						"executionCost": "409",
						"totalCost": "376809"
					},
					"external": {
						"b3()": "2531",
						"b4()": "2539",
						"barray()": "infinite",
						"getIndexValue(uint256)": "7175",
						"getLength()": "2586",
						"removeDynamicBytes(uint256)": "30738",
						"setBytes()": "48791",
						"setDynamicBytes(bytes1)": "75127"
					}
				},
				"methodIdentifiers": {
					"b3()": "e9b61909",
					"b4()": "3db3fb0a",
					"barray()": "a3e3d5b7",
					"getIndexValue(uint256)": "b4fed844",
					"getLength()": "be1c766b",
					"removeDynamicBytes(uint256)": "347394ac",
					"setBytes()": "ad95d6b4",
					"setDynamicBytes(bytes1)": "d86c3d84"
				}
			},
			"storageLayout": {
				"storage": [
					{
						"astId": 3,
						"contract": "forth.sol:bytesArray",
						"label": "b3",
						"offset": 0,
						"slot": "0",
						"type": "t_bytes3"
					},
					{
						"astId": 5,
						"contract": "forth.sol:bytesArray",
						"label": "b4",
						"offset": 3,
						"slot": "0",
						"type": "t_bytes4"
					},
					{
						"astId": 19,
						"contract": "forth.sol:bytesArray",
						"label": "barray",
						"offset": 0,
						"slot": "1",
						"type": "t_bytes_storage"
					}
				],
				"types": {
					"t_bytes3": {
						"encoding": "inplace",
						"label": "bytes3",
						"numberOfBytes": "3"
					},
					"t_bytes4": {
						"encoding": "inplace",
						"label": "bytes4",
						"numberOfBytes": "4"
					},
					"t_bytes_storage": {
						"encoding": "bytes",
						"label": "bytes",
						"numberOfBytes": "32"
					}
				}
			},
			"userdoc": {
				"kind": "user",
				"methods": {},
				"version": 1
			}
		}
	}
}