{
	"nine.sol": {
		"Pay": {
			"abi": [
				{
					"inputs": [],
					"name": "PayCoins",
					"outputs": [],
					"stateMutability": "payable",
					"type": "function"
				},
				{
					"inputs": [],
					"name": "getBalance",
					"outputs": [
						{
							"internalType": "uint256",
							"name": "",
							"type": "uint256"
						}
					],
					"stateMutability": "view",
					"type": "function"
				},
				{
					"inputs": [],
					"name": "sendCoinsAccounts",
					"outputs": [],
					"stateMutability": "nonpayable",
					"type": "function"
				}
			],
			"devdoc": {
				"kind": "dev",
				"methods": {},
				"version": 1
			},
			"evm": {
				"assembly": "    /* \"nine.sol\":70:484  contract Pay {... */\n  mstore(0x40, 0x80)\n    /* \"nine.sol\":121:163  0xCD28E737097af95A1F4c00AC7837904708164F2d */\n  0xcd28e737097af95a1f4c00ac7837904708164f2d\n    /* \"nine.sol\":90:164  address payable user =payable (0xCD28E737097af95A1F4c00AC7837904708164F2d) */\n  0x00\n  exp(0x0100, 0x00)\n  dup2\n  sload\n  dup2\n  0xffffffffffffffffffffffffffffffffffffffff\n  mul\n  not\n  and\n  swap1\n  dup4\n  0xffffffffffffffffffffffffffffffffffffffff\n  and\n  mul\n  or\n  swap1\n  sstore\n  pop\n    /* \"nine.sol\":70:484  contract Pay {... */\n  callvalue\n  dup1\n  iszero\n  tag_1\n  jumpi\n  revert(0x00, 0x00)\ntag_1:\n  pop\n  dataSize(sub_0)\n  dup1\n  dataOffset(sub_0)\n  0x00\n  codecopy\n  0x00\n  return\nstop\n\nsub_0: assembly {\n        /* \"nine.sol\":70:484  contract Pay {... */\n      mstore(0x40, 0x80)\n      jumpi(tag_1, lt(calldatasize, 0x04))\n      shr(0xe0, calldataload(0x00))\n      dup1\n      0x01d59e15\n      eq\n      tag_2\n      jumpi\n      dup1\n      0x12065fe0\n      eq\n      tag_3\n      jumpi\n      dup1\n      0xf6f41b12\n      eq\n      tag_4\n      jumpi\n    tag_1:\n      revert(0x00, 0x00)\n        /* \"nine.sol\":307:481  function sendCoinsAccounts() public {... */\n    tag_2:\n      callvalue\n      dup1\n      iszero\n      tag_5\n      jumpi\n      revert(0x00, 0x00)\n    tag_5:\n      pop\n      tag_6\n      tag_7\n      jump\t// in\n    tag_6:\n      stop\n        /* \"nine.sol\":217:304  function getBalance() public view returns(uint){... */\n    tag_3:\n      callvalue\n      dup1\n      iszero\n      tag_8\n      jumpi\n      revert(0x00, 0x00)\n    tag_8:\n      pop\n      tag_9\n      tag_10\n      jump\t// in\n    tag_9:\n      mload(0x40)\n      tag_11\n      swap2\n      swap1\n      tag_12\n      jump\t// in\n    tag_11:\n      mload(0x40)\n      dup1\n      swap2\n      sub\n      swap1\n      return\n        /* \"nine.sol\":171:212  function PayCoins()payable public {... */\n    tag_4:\n      tag_13\n      tag_14\n      jump\t// in\n    tag_13:\n      stop\n        /* \"nine.sol\":307:481  function sendCoinsAccounts() public {... */\n    tag_7:\n        /* \"nine.sol\":388:400  bool success */\n      0x00\n        /* \"nine.sol\":406:410  user */\n      0x00\n      0x00\n      swap1\n      sload\n      swap1\n      0x0100\n      exp\n      swap1\n      div\n      0xffffffffffffffffffffffffffffffffffffffff\n      and\n        /* \"nine.sol\":406:415  user.call */\n      0xffffffffffffffffffffffffffffffffffffffff\n      and\n        /* \"nine.sol\":423:428  1 wei */\n      0x01\n        /* \"nine.sol\":406:433  user.call{value: 1 wei}(\"\") */\n      mload(0x40)\n      tag_16\n      swap1\n      tag_17\n      jump\t// in\n    tag_16:\n      0x00\n      mload(0x40)\n      dup1\n      dup4\n      sub\n      dup2\n      dup6\n      dup8\n      gas\n      call\n      swap3\n      pop\n      pop\n      pop\n      returndatasize\n      dup1\n      0x00\n      dup2\n      eq\n      tag_20\n      jumpi\n      mload(0x40)\n      swap2\n      pop\n      and(add(returndatasize, 0x3f), not(0x1f))\n      dup3\n      add\n      0x40\n      mstore\n      returndatasize\n      dup3\n      mstore\n      returndatasize\n      0x00\n      0x20\n      dup5\n      add\n      returndatacopy\n      jump(tag_19)\n    tag_20:\n      0x60\n      swap2\n      pop\n    tag_19:\n      pop\n        /* \"nine.sol\":387:433  (bool success, ) = user.call{value: 1 wei}(\"\") */\n      pop\n      swap1\n      pop\n        /* \"nine.sol\":448:455  success */\n      dup1\n        /* \"nine.sol\":440:476  require(success, \"Transfer failed.\") */\n      tag_21\n      jumpi\n      mload(0x40)\n      0x08c379a000000000000000000000000000000000000000000000000000000000\n      dup2\n      mstore\n      0x04\n      add\n      tag_22\n      swap1\n      tag_23\n      jump\t// in\n    tag_22:\n      mload(0x40)\n      dup1\n      swap2\n      sub\n      swap1\n      revert\n    tag_21:\n        /* \"nine.sol\":343:481  {... */\n      pop\n        /* \"nine.sol\":307:481  function sendCoinsAccounts() public {... */\n      jump\t// out\n        /* \"nine.sol\":217:304  function getBalance() public view returns(uint){... */\n    tag_10:\n        /* \"nine.sol\":259:263  uint */\n      0x00\n        /* \"nine.sol\":278:299  address(this).balance */\n      selfbalance\n        /* \"nine.sol\":271:299  return address(this).balance */\n      swap1\n      pop\n        /* \"nine.sol\":217:304  function getBalance() public view returns(uint){... */\n      swap1\n      jump\t// out\n        /* \"nine.sol\":171:212  function PayCoins()payable public {... */\n    tag_14:\n      jump\t// out\n        /* \"#utility.yul\":7:84   */\n    tag_26:\n        /* \"#utility.yul\":44:51   */\n      0x00\n        /* \"#utility.yul\":73:78   */\n      dup2\n        /* \"#utility.yul\":62:78   */\n      swap1\n      pop\n        /* \"#utility.yul\":7:84   */\n      swap2\n      swap1\n      pop\n      jump\t// out\n        /* \"#utility.yul\":90:208   */\n    tag_27:\n        /* \"#utility.yul\":177:201   */\n      tag_37\n        /* \"#utility.yul\":195:200   */\n      dup2\n        /* \"#utility.yul\":177:201   */\n      tag_26\n      jump\t// in\n    tag_37:\n        /* \"#utility.yul\":172:175   */\n      dup3\n        /* \"#utility.yul\":165:202   */\n      mstore\n        /* \"#utility.yul\":90:208   */\n      pop\n      pop\n      jump\t// out\n        /* \"#utility.yul\":214:436   */\n    tag_12:\n        /* \"#utility.yul\":307:311   */\n      0x00\n        /* \"#utility.yul\":345:347   */\n      0x20\n        /* \"#utility.yul\":334:343   */\n      dup3\n        /* \"#utility.yul\":330:348   */\n      add\n        /* \"#utility.yul\":322:348   */\n      swap1\n      pop\n        /* \"#utility.yul\":358:429   */\n      tag_39\n        /* \"#utility.yul\":426:427   */\n      0x00\n        /* \"#utility.yul\":415:424   */\n      dup4\n        /* \"#utility.yul\":411:428   */\n      add\n        /* \"#utility.yul\":402:408   */\n      dup5\n        /* \"#utility.yul\":358:429   */\n      tag_27\n      jump\t// in\n    tag_39:\n        /* \"#utility.yul\":214:436   */\n      swap3\n      swap2\n      pop\n      pop\n      jump\t// out\n        /* \"#utility.yul\":442:589   */\n    tag_28:\n        /* \"#utility.yul\":543:554   */\n      0x00\n        /* \"#utility.yul\":580:583   */\n      dup2\n        /* \"#utility.yul\":565:583   */\n      swap1\n      pop\n        /* \"#utility.yul\":442:589   */\n      swap3\n      swap2\n      pop\n      pop\n      jump\t// out\n        /* \"#utility.yul\":595:709   */\n    tag_29:\n      pop\n      jump\t// out\n        /* \"#utility.yul\":715:1113   */\n    tag_30:\n        /* \"#utility.yul\":874:877   */\n      0x00\n        /* \"#utility.yul\":895:978   */\n      tag_43\n        /* \"#utility.yul\":976:977   */\n      0x00\n        /* \"#utility.yul\":971:974   */\n      dup4\n        /* \"#utility.yul\":895:978   */\n      tag_28\n      jump\t// in\n    tag_43:\n        /* \"#utility.yul\":888:978   */\n      swap2\n      pop\n        /* \"#utility.yul\":987:1080   */\n      tag_44\n        /* \"#utility.yul\":1076:1079   */\n      dup3\n        /* \"#utility.yul\":987:1080   */\n      tag_29\n      jump\t// in\n    tag_44:\n        /* \"#utility.yul\":1105:1106   */\n      0x00\n        /* \"#utility.yul\":1100:1103   */\n      dup3\n        /* \"#utility.yul\":1096:1107   */\n      add\n        /* \"#utility.yul\":1089:1107   */\n      swap1\n      pop\n        /* \"#utility.yul\":715:1113   */\n      swap2\n      swap1\n      pop\n      jump\t// out\n        /* \"#utility.yul\":1119:1498   */\n    tag_17:\n        /* \"#utility.yul\":1303:1306   */\n      0x00\n        /* \"#utility.yul\":1325:1472   */\n      tag_46\n        /* \"#utility.yul\":1468:1471   */\n      dup3\n        /* \"#utility.yul\":1325:1472   */\n      tag_30\n      jump\t// in\n    tag_46:\n        /* \"#utility.yul\":1318:1472   */\n      swap2\n      pop\n        /* \"#utility.yul\":1489:1492   */\n      dup2\n        /* \"#utility.yul\":1482:1492   */\n      swap1\n      pop\n        /* \"#utility.yul\":1119:1498   */\n      swap2\n      swap1\n      pop\n      jump\t// out\n        /* \"#utility.yul\":1504:1673   */\n    tag_31:\n        /* \"#utility.yul\":1588:1599   */\n      0x00\n        /* \"#utility.yul\":1622:1628   */\n      dup3\n        /* \"#utility.yul\":1617:1620   */\n      dup3\n        /* \"#utility.yul\":1610:1629   */\n      mstore\n        /* \"#utility.yul\":1662:1666   */\n      0x20\n        /* \"#utility.yul\":1657:1660   */\n      dup3\n        /* \"#utility.yul\":1653:1667   */\n      add\n        /* \"#utility.yul\":1638:1667   */\n      swap1\n      pop\n        /* \"#utility.yul\":1504:1673   */\n      swap3\n      swap2\n      pop\n      pop\n      jump\t// out\n        /* \"#utility.yul\":1679:1845   */\n    tag_32:\n        /* \"#utility.yul\":1819:1837   */\n      0x5472616e73666572206661696c65642e00000000000000000000000000000000\n        /* \"#utility.yul\":1815:1816   */\n      0x00\n        /* \"#utility.yul\":1807:1813   */\n      dup3\n        /* \"#utility.yul\":1803:1817   */\n      add\n        /* \"#utility.yul\":1796:1838   */\n      mstore\n        /* \"#utility.yul\":1679:1845   */\n      pop\n      jump\t// out\n        /* \"#utility.yul\":1851:2217   */\n    tag_33:\n        /* \"#utility.yul\":1993:1996   */\n      0x00\n        /* \"#utility.yul\":2014:2081   */\n      tag_50\n        /* \"#utility.yul\":2078:2080   */\n      0x10\n        /* \"#utility.yul\":2073:2076   */\n      dup4\n        /* \"#utility.yul\":2014:2081   */\n      tag_31\n      jump\t// in\n    tag_50:\n        /* \"#utility.yul\":2007:2081   */\n      swap2\n      pop\n        /* \"#utility.yul\":2090:2183   */\n      tag_51\n        /* \"#utility.yul\":2179:2182   */\n      dup3\n        /* \"#utility.yul\":2090:2183   */\n      tag_32\n      jump\t// in\n    tag_51:\n        /* \"#utility.yul\":2208:2210   */\n      0x20\n        /* \"#utility.yul\":2203:2206   */\n      dup3\n        /* \"#utility.yul\":2199:2211   */\n      add\n        /* \"#utility.yul\":2192:2211   */\n      swap1\n      pop\n        /* \"#utility.yul\":1851:2217   */\n      swap2\n      swap1\n      pop\n      jump\t// out\n        /* \"#utility.yul\":2223:2642   */\n    tag_23:\n        /* \"#utility.yul\":2389:2393   */\n      0x00\n        /* \"#utility.yul\":2427:2429   */\n      0x20\n        /* \"#utility.yul\":2416:2425   */\n      dup3\n        /* \"#utility.yul\":2412:2430   */\n      add\n        /* \"#utility.yul\":2404:2430   */\n      swap1\n      pop\n        /* \"#utility.yul\":2476:2485   */\n      dup2\n        /* \"#utility.yul\":2470:2474   */\n      dup2\n        /* \"#utility.yul\":2466:2486   */\n      sub\n        /* \"#utility.yul\":2462:2463   */\n      0x00\n        /* \"#utility.yul\":2451:2460   */\n      dup4\n        /* \"#utility.yul\":2447:2464   */\n      add\n        /* \"#utility.yul\":2440:2487   */\n      mstore\n        /* \"#utility.yul\":2504:2635   */\n      tag_53\n        /* \"#utility.yul\":2630:2634   */\n      dup2\n        /* \"#utility.yul\":2504:2635   */\n      tag_33\n      jump\t// in\n    tag_53:\n        /* \"#utility.yul\":2496:2635   */\n      swap1\n      pop\n        /* \"#utility.yul\":2223:2642   */\n      swap2\n      swap1\n      pop\n      jump\t// out\n\n    auxdata: 0xa2646970667358221220aa76c17b10f7b32fa029feab1e6c762e46d4e3e3c0cfd5cca4593e851577e33d64736f6c634300081f0033\n}\n",
				"bytecode": {
					"linkReferences": {},
					"object": "608060405273cd28e737097af95a1f4c00ac7837904708164f2d5f5f6101000a81548173ffffffffffffffffffffffffffffffffffffffff021916908373ffffffffffffffffffffffffffffffffffffffff1602179055503480156061575f5ffd5b506102768061006f5f395ff3fe608060405260043610610033575f3560e01c806301d59e151461003757806312065fe01461004d578063f6f41b1214610077575b5f5ffd5b348015610042575f5ffd5b5061004b610081565b005b348015610058575f5ffd5b5061006161014d565b60405161006e919061016e565b60405180910390f35b61007f610154565b005b5f5f5f9054906101000a900473ffffffffffffffffffffffffffffffffffffffff1673ffffffffffffffffffffffffffffffffffffffff1660016040516100c7906101b4565b5f6040518083038185875af1925050503d805f8114610101576040519150601f19603f3d011682016040523d82523d5f602084013e610106565b606091505b505090508061014a576040517f08c379a000000000000000000000000000000000000000000000000000000000815260040161014190610222565b60405180910390fd5b50565b5f47905090565b565b5f819050919050565b61016881610156565b82525050565b5f6020820190506101815f83018461015f565b92915050565b5f81905092915050565b50565b5f61019f5f83610187565b91506101aa82610191565b5f82019050919050565b5f6101be82610194565b9150819050919050565b5f82825260208201905092915050565b7f5472616e73666572206661696c65642e000000000000000000000000000000005f82015250565b5f61020c6010836101c8565b9150610217826101d8565b602082019050919050565b5f6020820190508181035f83015261023981610200565b905091905056fea2646970667358221220aa76c17b10f7b32fa029feab1e6c762e46d4e3e3c0cfd5cca4593e851577e33d64736f6c634300081f0033",
					"opcodes": "PUSH1 0x80 PUSH1 0x40 MSTORE PUSH20 0xCD28E737097AF95A1F4C00AC7837904708164F2D PUSH0 PUSH0 PUSH2 0x100 EXP DUP2 SLOAD DUP2 PUSH20 0xFFFFFFFFFFFFFFFFFFFFFFFFFFFFFFFFFFFFFFFF MUL NOT AND SWAP1 DUP4 PUSH20 0xFFFFFFFFFFFFFFFFFFFFFFFFFFFFFFFFFFFFFFFF AND MUL OR SWAP1 SSTORE POP CALLVALUE DUP1 ISZERO PUSH1 0x61 JUMPI PUSH0 PUSH0 REVERT JUMPDEST POP PUSH2 0x276 DUP1 PUSH2 0x6F PUSH0 CODECOPY PUSH0 RETURN INVALID PUSH1 0x80 PUSH1 0x40 MSTORE PUSH1 0x4 CALLDATASIZE LT PUSH2 0x33 JUMPI PUSH0 CALLDATALOAD PUSH1 0xE0 SHR DUP1 PUSH4 0x1D59E15 EQ PUSH2 0x37 JUMPI DUP1 PUSH4 0x12065FE0 EQ PUSH2 0x4D JUMPI DUP1 PUSH4 0xF6F41B12 EQ PUSH2 0x77 JUMPI JUMPDEST PUSH0 PUSH0 REVERT JUMPDEST CALLVALUE DUP1 ISZERO PUSH2 0x42 JUMPI PUSH0 PUSH0 REVERT JUMPDEST POP PUSH2 0x4B PUSH2 0x81 JUMP JUMPDEST STOP JUMPDEST CALLVALUE DUP1 ISZERO PUSH2 0x58 JUMPI PUSH0 PUSH0 REVERT JUMPDEST POP PUSH2 0x61 PUSH2 0x14D JUMP JUMPDEST PUSH1 0x40 MLOAD PUSH2 0x6E SWAP2 SWAP1 PUSH2 0x16E JUMP JUMPDEST PUSH1 0x40 MLOAD DUP1 SWAP2 SUB SWAP1 RETURN JUMPDEST PUSH2 0x7F PUSH2 0x154 JUMP JUMPDEST STOP JUMPDEST PUSH0 PUSH0 PUSH0 SWAP1 SLOAD SWAP1 PUSH2 0x100 EXP SWAP1 DIV PUSH20 0xFFFFFFFFFFFFFFFFFFFFFFFFFFFFFFFFFFFFFFFF AND PUSH20 0xFFFFFFFFFFFFFFFFFFFFFFFFFFFFFFFFFFFFFFFF AND PUSH1 0x1 PUSH1 0x40 MLOAD PUSH2 0xC7 SWAP1 PUSH2 0x1B4 JUMP JUMPDEST PUSH0 PUSH1 0x40 MLOAD DUP1 DUP4 SUB DUP2 DUP6 DUP8 GAS CALL SWAP3 POP POP POP RETURNDATASIZE DUP1 PUSH0 DUP2 EQ PUSH2 0x101 JUMPI PUSH1 0x40 MLOAD SWAP2 POP PUSH1 0x1F NOT PUSH1 0x3F RETURNDATASIZE ADD AND DUP3 ADD PUSH1 0x40 MSTORE RETURNDATASIZE DUP3 MSTORE RETURNDATASIZE PUSH0 PUSH1 0x20 DUP5 ADD RETURNDATACOPY PUSH2 0x106 JUMP JUMPDEST PUSH1 0x60 SWAP2 POP JUMPDEST POP POP SWAP1 POP DUP1 PUSH2 0x14A JUMPI PUSH1 0x40 MLOAD PUSH32 0x8C379A000000000000000000000000000000000000000000000000000000000 DUP2 MSTORE PUSH1 0x4 ADD PUSH2 0x141 SWAP1 PUSH2 0x222 JUMP JUMPDEST PUSH1 0x40 MLOAD DUP1 SWAP2 SUB SWAP1 REVERT JUMPDEST POP JUMP JUMPDEST PUSH0 SELFBALANCE SWAP1 POP SWAP1 JUMP JUMPDEST JUMP JUMPDEST PUSH0 DUP2 SWAP1 POP SWAP2 SWAP1 POP JUMP JUMPDEST PUSH2 0x168 DUP2 PUSH2 0x156 JUMP JUMPDEST DUP3 MSTORE POP POP JUMP JUMPDEST PUSH0 PUSH1 0x20 DUP3 ADD SWAP1 POP PUSH2 0x181 PUSH0 DUP4 ADD DUP5 PUSH2 0x15F JUMP JUMPDEST SWAP3 SWAP2 POP POP JUMP JUMPDEST PUSH0 DUP2 SWAP1 POP SWAP3 SWAP2 POP POP JUMP JUMPDEST POP JUMP JUMPDEST PUSH0 PUSH2 0x19F PUSH0 DUP4 PUSH2 0x187 JUMP JUMPDEST SWAP2 POP PUSH2 0x1AA DUP3 PUSH2 0x191 JUMP JUMPDEST PUSH0 DUP3 ADD SWAP1 POP SWAP2 SWAP1 POP JUMP JUMPDEST PUSH0 PUSH2 0x1BE DUP3 PUSH2 0x194 JUMP JUMPDEST SWAP2 POP DUP2 SWAP1 POP SWAP2 SWAP1 POP JUMP JUMPDEST PUSH0 DUP3 DUP3 MSTORE PUSH1 0x20 DUP3 ADD SWAP1 POP SWAP3 SWAP2 POP POP JUMP JUMPDEST PUSH32 0x5472616E73666572206661696C65642E00000000000000000000000000000000 PUSH0 DUP3 ADD MSTORE POP JUMP JUMPDEST PUSH0 PUSH2 0x20C PUSH1 0x10 DUP4 PUSH2 0x1C8 JUMP JUMPDEST SWAP2 POP PUSH2 0x217 DUP3 PUSH2 0x1D8 JUMP JUMPDEST PUSH1 0x20 DUP3 ADD SWAP1 POP SWAP2 SWAP1 POP JUMP JUMPDEST PUSH0 PUSH1 0x20 DUP3 ADD SWAP1 POP DUP2 DUP2 SUB PUSH0 DUP4 ADD MSTORE PUSH2 0x239 DUP2 PUSH2 0x200 JUMP JUMPDEST SWAP1 POP SWAP2 SWAP1 POP JUMP INVALID LOG2 PUSH5 0x6970667358 0x22 SLT KECCAK256 0xAA PUSH23 0xC17B10F7B32FA029FEAB1E6C762E46D4E3E3C0CFD5CCA4 MSIZE RETURNDATACOPY DUP6 ISZERO PUSH24 0xE33D64736F6C634300081F00330000000000000000000000 "
				},
				"gasEstimates": {
					"creation": {
						"codeDepositCost": "126000",
						"executionCost": "24434",
						"totalCost": "150434"
					},
					"external": {
						"PayCoins()": "141",
						"getBalance()": "334",
						"sendCoinsAccounts()": "infinite"
					}
				},
				"methodIdentifiers": {
					"PayCoins()": "f6f41b12",
					"getBalance()": "12065fe0",
					"sendCoinsAccounts()": "01d59e15"
				}
			},
			"storageLayout": {
				"storage": [
					{
						"astId": 7,
						"contract": "nine.sol:Pay",
						"label": "user",
						"offset": 0,
						"slot": "0",
						"type": "t_address_payable"
					}
				],
				"types": {
					"t_address_payable": {
						"encoding": "inplace",
						"label": "address payable",
						"numberOfBytes": "20"
					}
				}
			},
			"userdoc": {
				"kind": "user",
				"methods": {},
				"version": 1
			}
		}
	}
}