{
	"sixth1.sol": {
		"advance": {
			"abi": [
				{
					"inputs": [
						{
							"internalType": "uint256",
							"name": "_uid",
							"type": "uint256"
						},
						{
							"internalType": "string",
							"name": "_name",
							"type": "string"
						}
					],
					"stateMutability": "nonpayable",
					"type": "constructor"
				},
				{
					"inputs": [],
					"name": "balance",
					"outputs": [
						{
							"internalType": "uint256",
							"name": "",
							"type": "uint256"
						}
					],
					"stateMutability": "view",
					"type": "function"
				},
				{
					"inputs": [
						{
							"internalType": "uint256",
							"name": "_uid",
							"type": "uint256"
						},
						{
							"internalType": "string",
							"name": "_name",
							"type": "string"
						}
					],
					"name": "change",
					"outputs": [],
					"stateMutability": "nonpayable",
					"type": "function"
				},
				{
					"inputs": [],
					"name": "payment",
					"outputs": [
						{
							"internalType": "enum advance.Status",
							"name": "",
							"type": "uint8"
						}
					],
					"stateMutability": "view",
					"type": "function"
				},
				{
					"inputs": [],
					"name": "s1",
					"outputs": [
						{
							"internalType": "uint256",
							"name": "uid",
							"type": "uint256"
						},
						{
							"internalType": "string",
							"name": "name",
							"type": "string"
						}
					],
					"stateMutability": "view",
					"type": "function"
				},
				{
					"inputs": [
						{
							"internalType": "uint256",
							"name": "_amout",
							"type": "uint256"
						}
					],
					"name": "updatePayment",
					"outputs": [
						{
							"internalType": "enum advance.Status",
							"name": "",
							"type": "uint8"
						}
					],
					"stateMutability": "nonpayable",
					"type": "function"
				}
			],
			"devdoc": {
				"kind": "dev",
				"methods": {},
				"version": 1
			},
			"evm": {
				"assembly": "    /* \"sixth1.sol\":138:1002  contract advance {... */\n  mstore(0x40, 0x80)\n    /* \"sixth1.sol\":515:529  Status.waiting */\n  0x01\n    /* \"sixth1.sol\":491:529  Status public payment = Status.waiting */\n  0x02\n  exp(0x0100, 0x00)\n  dup2\n  sload\n  dup2\n  0xff\n  mul\n  not\n  and\n  swap1\n  dup4\n  0x02\n  dup2\n  gt\n  iszero\n  tag_1\n  jumpi\n  tag_2\n  tag_3\n  jump\t// in\ntag_2:\ntag_1:\n  mul\n  or\n  swap1\n  sstore\n  pop\n    /* \"sixth1.sol\":554:555  0 */\n  0x00\n    /* \"sixth1.sol\":532:555  uint public  balance =0 */\n  0x03\n  sstore\n    /* \"sixth1.sol\":179:270  constructor (uint _uid, string memory _name) {... */\n  callvalue\n  dup1\n  iszero\n  tag_4\n  jumpi\n  revert(0x00, 0x00)\ntag_4:\n  pop\n  mload(0x40)\n  sub(codesize, bytecodeSize)\n  dup1\n  bytecodeSize\n  dup4\n  codecopy\n  dup2\n  dup2\n  add\n  0x40\n  mstore\n  dup2\n  add\n  swap1\n  tag_5\n  swap2\n  swap1\n  tag_6\n  jump\t// in\ntag_5:\n    /* \"sixth1.sol\":240:244  _uid */\n  dup2\n    /* \"sixth1.sol\":231:233  s1 */\n  0x00\n    /* \"sixth1.sol\":231:237  s1.uid */\n  0x00\n  add\n    /* \"sixth1.sol\":231:244  s1.uid = _uid */\n  dup2\n  swap1\n  sstore\n  pop\n    /* \"sixth1.sol\":261:266  _name */\n  dup1\n    /* \"sixth1.sol\":251:253  s1 */\n  0x00\n    /* \"sixth1.sol\":251:258  s1.name */\n  0x01\n  add\n    /* \"sixth1.sol\":251:266  s1.name = _name */\n  swap1\n  dup2\n  tag_9\n  swap2\n  swap1\n  tag_10\n  jump\t// in\ntag_9:\n  pop\n    /* \"sixth1.sol\":179:270  constructor (uint _uid, string memory _name) {... */\n  pop\n  pop\n    /* \"sixth1.sol\":138:1002  contract advance {... */\n  jump(tag_11)\n    /* \"#utility.yul\":7:187   */\ntag_3:\n    /* \"#utility.yul\":55:132   */\n  0x4e487b7100000000000000000000000000000000000000000000000000000000\n    /* \"#utility.yul\":52:53   */\n  0x00\n    /* \"#utility.yul\":45:133   */\n  mstore\n    /* \"#utility.yul\":152:156   */\n  0x21\n    /* \"#utility.yul\":149:150   */\n  0x04\n    /* \"#utility.yul\":142:157   */\n  mstore\n    /* \"#utility.yul\":176:180   */\n  0x24\n    /* \"#utility.yul\":173:174   */\n  0x00\n    /* \"#utility.yul\":166:181   */\n  revert\n    /* \"#utility.yul\":193:268   */\ntag_12:\n    /* \"#utility.yul\":226:232   */\n  0x00\n    /* \"#utility.yul\":259:261   */\n  0x40\n    /* \"#utility.yul\":253:262   */\n  mload\n    /* \"#utility.yul\":243:262   */\n  swap1\n  pop\n    /* \"#utility.yul\":193:268   */\n  swap1\n  jump\t// out\n    /* \"#utility.yul\":274:391   */\ntag_13:\n    /* \"#utility.yul\":383:384   */\n  0x00\n    /* \"#utility.yul\":380:381   */\n  0x00\n    /* \"#utility.yul\":373:385   */\n  revert\n    /* \"#utility.yul\":397:514   */\ntag_14:\n    /* \"#utility.yul\":506:507   */\n  0x00\n    /* \"#utility.yul\":503:504   */\n  0x00\n    /* \"#utility.yul\":496:508   */\n  revert\n    /* \"#utility.yul\":520:597   */\ntag_15:\n    /* \"#utility.yul\":557:564   */\n  0x00\n    /* \"#utility.yul\":586:591   */\n  dup2\n    /* \"#utility.yul\":575:591   */\n  swap1\n  pop\n    /* \"#utility.yul\":520:597   */\n  swap2\n  swap1\n  pop\n  jump\t// out\n    /* \"#utility.yul\":603:725   */\ntag_16:\n    /* \"#utility.yul\":676:700   */\n  tag_53\n    /* \"#utility.yul\":694:699   */\n  dup2\n    /* \"#utility.yul\":676:700   */\n  tag_15\n  jump\t// in\ntag_53:\n    /* \"#utility.yul\":669:674   */\n  dup2\n    /* \"#utility.yul\":666:701   */\n  eq\n    /* \"#utility.yul\":656:719   */\n  tag_54\n  jumpi\n    /* \"#utility.yul\":715:716   */\n  0x00\n    /* \"#utility.yul\":712:713   */\n  0x00\n    /* \"#utility.yul\":705:717   */\n  revert\n    /* \"#utility.yul\":656:719   */\ntag_54:\n    /* \"#utility.yul\":603:725   */\n  pop\n  jump\t// out\n    /* \"#utility.yul\":731:874   */\ntag_17:\n    /* \"#utility.yul\":788:793   */\n  0x00\n    /* \"#utility.yul\":819:825   */\n  dup2\n    /* \"#utility.yul\":813:826   */\n  mload\n    /* \"#utility.yul\":804:826   */\n  swap1\n  pop\n    /* \"#utility.yul\":835:868   */\n  tag_56\n    /* \"#utility.yul\":862:867   */\n  dup2\n    /* \"#utility.yul\":835:868   */\n  tag_16\n  jump\t// in\ntag_56:\n    /* \"#utility.yul\":731:874   */\n  swap3\n  swap2\n  pop\n  pop\n  jump\t// out\n    /* \"#utility.yul\":880:997   */\ntag_18:\n    /* \"#utility.yul\":989:990   */\n  0x00\n    /* \"#utility.yul\":986:987   */\n  0x00\n    /* \"#utility.yul\":979:991   */\n  revert\n    /* \"#utility.yul\":1003:1120   */\ntag_19:\n    /* \"#utility.yul\":1112:1113   */\n  0x00\n    /* \"#utility.yul\":1109:1110   */\n  0x00\n    /* \"#utility.yul\":1102:1114   */\n  revert\n    /* \"#utility.yul\":1126:1228   */\ntag_20:\n    /* \"#utility.yul\":1167:1173   */\n  0x00\n    /* \"#utility.yul\":1218:1220   */\n  0x1f\n    /* \"#utility.yul\":1214:1221   */\n  not\n    /* \"#utility.yul\":1209:1211   */\n  0x1f\n    /* \"#utility.yul\":1202:1207   */\n  dup4\n    /* \"#utility.yul\":1198:1212   */\n  add\n    /* \"#utility.yul\":1194:1222   */\n  and\n    /* \"#utility.yul\":1184:1222   */\n  swap1\n  pop\n    /* \"#utility.yul\":1126:1228   */\n  swap2\n  swap1\n  pop\n  jump\t// out\n    /* \"#utility.yul\":1234:1414   */\ntag_21:\n    /* \"#utility.yul\":1282:1359   */\n  0x4e487b7100000000000000000000000000000000000000000000000000000000\n    /* \"#utility.yul\":1279:1280   */\n  0x00\n    /* \"#utility.yul\":1272:1360   */\n  mstore\n    /* \"#utility.yul\":1379:1383   */\n  0x41\n    /* \"#utility.yul\":1376:1377   */\n  0x04\n    /* \"#utility.yul\":1369:1384   */\n  mstore\n    /* \"#utility.yul\":1403:1407   */\n  0x24\n    /* \"#utility.yul\":1400:1401   */\n  0x00\n    /* \"#utility.yul\":1393:1408   */\n  revert\n    /* \"#utility.yul\":1420:1701   */\ntag_22:\n    /* \"#utility.yul\":1503:1530   */\n  tag_62\n    /* \"#utility.yul\":1525:1529   */\n  dup3\n    /* \"#utility.yul\":1503:1530   */\n  tag_20\n  jump\t// in\ntag_62:\n    /* \"#utility.yul\":1495:1501   */\n  dup2\n    /* \"#utility.yul\":1491:1531   */\n  add\n    /* \"#utility.yul\":1633:1639   */\n  dup2\n    /* \"#utility.yul\":1621:1631   */\n  dup2\n    /* \"#utility.yul\":1618:1640   */\n  lt\n    /* \"#utility.yul\":1597:1615   */\n  0xffffffffffffffff\n    /* \"#utility.yul\":1585:1595   */\n  dup3\n    /* \"#utility.yul\":1582:1616   */\n  gt\n    /* \"#utility.yul\":1579:1641   */\n  or\n    /* \"#utility.yul\":1576:1664   */\n  iszero\n  tag_63\n  jumpi\n    /* \"#utility.yul\":1644:1662   */\n  tag_64\n  tag_21\n  jump\t// in\ntag_64:\n    /* \"#utility.yul\":1576:1664   */\ntag_63:\n    /* \"#utility.yul\":1684:1694   */\n  dup1\n    /* \"#utility.yul\":1680:1682   */\n  0x40\n    /* \"#utility.yul\":1673:1695   */\n  mstore\n    /* \"#utility.yul\":1463:1701   */\n  pop\n    /* \"#utility.yul\":1420:1701   */\n  pop\n  pop\n  jump\t// out\n    /* \"#utility.yul\":1707:1836   */\ntag_23:\n    /* \"#utility.yul\":1741:1747   */\n  0x00\n    /* \"#utility.yul\":1768:1788   */\n  tag_66\n  tag_12\n  jump\t// in\ntag_66:\n    /* \"#utility.yul\":1758:1788   */\n  swap1\n  pop\n    /* \"#utility.yul\":1797:1830   */\n  tag_67\n    /* \"#utility.yul\":1825:1829   */\n  dup3\n    /* \"#utility.yul\":1817:1823   */\n  dup3\n    /* \"#utility.yul\":1797:1830   */\n  tag_22\n  jump\t// in\ntag_67:\n    /* \"#utility.yul\":1707:1836   */\n  swap2\n  swap1\n  pop\n  jump\t// out\n    /* \"#utility.yul\":1842:2150   */\ntag_24:\n    /* \"#utility.yul\":1904:1908   */\n  0x00\n    /* \"#utility.yul\":1994:2012   */\n  0xffffffffffffffff\n    /* \"#utility.yul\":1986:1992   */\n  dup3\n    /* \"#utility.yul\":1983:2013   */\n  gt\n    /* \"#utility.yul\":1980:2036   */\n  iszero\n  tag_69\n  jumpi\n    /* \"#utility.yul\":2016:2034   */\n  tag_70\n  tag_21\n  jump\t// in\ntag_70:\n    /* \"#utility.yul\":1980:2036   */\ntag_69:\n    /* \"#utility.yul\":2054:2083   */\n  tag_71\n    /* \"#utility.yul\":2076:2082   */\n  dup3\n    /* \"#utility.yul\":2054:2083   */\n  tag_20\n  jump\t// in\ntag_71:\n    /* \"#utility.yul\":2046:2083   */\n  swap1\n  pop\n    /* \"#utility.yul\":2138:2142   */\n  0x20\n    /* \"#utility.yul\":2132:2136   */\n  dup2\n    /* \"#utility.yul\":2128:2143   */\n  add\n    /* \"#utility.yul\":2120:2143   */\n  swap1\n  pop\n    /* \"#utility.yul\":1842:2150   */\n  swap2\n  swap1\n  pop\n  jump\t// out\n    /* \"#utility.yul\":2156:2295   */\ntag_25:\n    /* \"#utility.yul\":2245:2251   */\n  dup3\n    /* \"#utility.yul\":2240:2243   */\n  dup2\n    /* \"#utility.yul\":2235:2238   */\n  dup4\n    /* \"#utility.yul\":2229:2252   */\n  mcopy\n    /* \"#utility.yul\":2286:2287   */\n  0x00\n    /* \"#utility.yul\":2277:2283   */\n  dup4\n    /* \"#utility.yul\":2272:2275   */\n  dup4\n    /* \"#utility.yul\":2268:2284   */\n  add\n    /* \"#utility.yul\":2261:2288   */\n  mstore\n    /* \"#utility.yul\":2156:2295   */\n  pop\n  pop\n  pop\n  jump\t// out\n    /* \"#utility.yul\":2301:2735   */\ntag_26:\n    /* \"#utility.yul\":2390:2395   */\n  0x00\n    /* \"#utility.yul\":2415:2481   */\n  tag_74\n    /* \"#utility.yul\":2431:2480   */\n  tag_75\n    /* \"#utility.yul\":2473:2479   */\n  dup5\n    /* \"#utility.yul\":2431:2480   */\n  tag_24\n  jump\t// in\ntag_75:\n    /* \"#utility.yul\":2415:2481   */\n  tag_23\n  jump\t// in\ntag_74:\n    /* \"#utility.yul\":2406:2481   */\n  swap1\n  pop\n    /* \"#utility.yul\":2504:2510   */\n  dup3\n    /* \"#utility.yul\":2497:2502   */\n  dup2\n    /* \"#utility.yul\":2490:2511   */\n  mstore\n    /* \"#utility.yul\":2542:2546   */\n  0x20\n    /* \"#utility.yul\":2535:2540   */\n  dup2\n    /* \"#utility.yul\":2531:2547   */\n  add\n    /* \"#utility.yul\":2580:2583   */\n  dup5\n    /* \"#utility.yul\":2571:2577   */\n  dup5\n    /* \"#utility.yul\":2566:2569   */\n  dup5\n    /* \"#utility.yul\":2562:2578   */\n  add\n    /* \"#utility.yul\":2559:2584   */\n  gt\n    /* \"#utility.yul\":2556:2668   */\n  iszero\n  tag_76\n  jumpi\n    /* \"#utility.yul\":2587:2666   */\n  tag_77\n  tag_19\n  jump\t// in\ntag_77:\n    /* \"#utility.yul\":2556:2668   */\ntag_76:\n    /* \"#utility.yul\":2677:2729   */\n  tag_78\n    /* \"#utility.yul\":2722:2728   */\n  dup5\n    /* \"#utility.yul\":2717:2720   */\n  dup3\n    /* \"#utility.yul\":2712:2715   */\n  dup6\n    /* \"#utility.yul\":2677:2729   */\n  tag_25\n  jump\t// in\ntag_78:\n    /* \"#utility.yul\":2396:2735   */\n  pop\n    /* \"#utility.yul\":2301:2735   */\n  swap4\n  swap3\n  pop\n  pop\n  pop\n  jump\t// out\n    /* \"#utility.yul\":2755:3110   */\ntag_27:\n    /* \"#utility.yul\":2822:2827   */\n  0x00\n    /* \"#utility.yul\":2871:2874   */\n  dup3\n    /* \"#utility.yul\":2864:2868   */\n  0x1f\n    /* \"#utility.yul\":2856:2862   */\n  dup4\n    /* \"#utility.yul\":2852:2869   */\n  add\n    /* \"#utility.yul\":2848:2875   */\n  slt\n    /* \"#utility.yul\":2838:2960   */\n  tag_80\n  jumpi\n    /* \"#utility.yul\":2879:2958   */\n  tag_81\n  tag_18\n  jump\t// in\ntag_81:\n    /* \"#utility.yul\":2838:2960   */\ntag_80:\n    /* \"#utility.yul\":2989:2995   */\n  dup2\n    /* \"#utility.yul\":2983:2996   */\n  mload\n    /* \"#utility.yul\":3014:3104   */\n  tag_82\n    /* \"#utility.yul\":3100:3103   */\n  dup5\n    /* \"#utility.yul\":3092:3098   */\n  dup3\n    /* \"#utility.yul\":3085:3089   */\n  0x20\n    /* \"#utility.yul\":3077:3083   */\n  dup7\n    /* \"#utility.yul\":3073:3090   */\n  add\n    /* \"#utility.yul\":3014:3104   */\n  tag_26\n  jump\t// in\ntag_82:\n    /* \"#utility.yul\":3005:3104   */\n  swap2\n  pop\n    /* \"#utility.yul\":2828:3110   */\n  pop\n    /* \"#utility.yul\":2755:3110   */\n  swap3\n  swap2\n  pop\n  pop\n  jump\t// out\n    /* \"#utility.yul\":3116:3796   */\ntag_6:\n    /* \"#utility.yul\":3205:3211   */\n  0x00\n    /* \"#utility.yul\":3213:3219   */\n  0x00\n    /* \"#utility.yul\":3262:3264   */\n  0x40\n    /* \"#utility.yul\":3250:3259   */\n  dup4\n    /* \"#utility.yul\":3241:3248   */\n  dup6\n    /* \"#utility.yul\":3237:3260   */\n  sub\n    /* \"#utility.yul\":3233:3265   */\n  slt\n    /* \"#utility.yul\":3230:3349   */\n  iszero\n  tag_84\n  jumpi\n    /* \"#utility.yul\":3268:3347   */\n  tag_85\n  tag_13\n  jump\t// in\ntag_85:\n    /* \"#utility.yul\":3230:3349   */\ntag_84:\n    /* \"#utility.yul\":3388:3389   */\n  0x00\n    /* \"#utility.yul\":3413:3477   */\n  tag_86\n    /* \"#utility.yul\":3469:3476   */\n  dup6\n    /* \"#utility.yul\":3460:3466   */\n  dup3\n    /* \"#utility.yul\":3449:3458   */\n  dup7\n    /* \"#utility.yul\":3445:3467   */\n  add\n    /* \"#utility.yul\":3413:3477   */\n  tag_17\n  jump\t// in\ntag_86:\n    /* \"#utility.yul\":3403:3477   */\n  swap3\n  pop\n    /* \"#utility.yul\":3359:3487   */\n  pop\n    /* \"#utility.yul\":3547:3549   */\n  0x20\n    /* \"#utility.yul\":3536:3545   */\n  dup4\n    /* \"#utility.yul\":3532:3550   */\n  add\n    /* \"#utility.yul\":3526:3551   */\n  mload\n    /* \"#utility.yul\":3578:3596   */\n  0xffffffffffffffff\n    /* \"#utility.yul\":3570:3576   */\n  dup2\n    /* \"#utility.yul\":3567:3597   */\n  gt\n    /* \"#utility.yul\":3564:3681   */\n  iszero\n  tag_87\n  jumpi\n    /* \"#utility.yul\":3600:3679   */\n  tag_88\n  tag_14\n  jump\t// in\ntag_88:\n    /* \"#utility.yul\":3564:3681   */\ntag_87:\n    /* \"#utility.yul\":3705:3779   */\n  tag_89\n    /* \"#utility.yul\":3771:3778   */\n  dup6\n    /* \"#utility.yul\":3762:3768   */\n  dup3\n    /* \"#utility.yul\":3751:3760   */\n  dup7\n    /* \"#utility.yul\":3747:3769   */\n  add\n    /* \"#utility.yul\":3705:3779   */\n  tag_27\n  jump\t// in\ntag_89:\n    /* \"#utility.yul\":3695:3779   */\n  swap2\n  pop\n    /* \"#utility.yul\":3497:3789   */\n  pop\n    /* \"#utility.yul\":3116:3796   */\n  swap3\n  pop\n  swap3\n  swap1\n  pop\n  jump\t// out\n    /* \"#utility.yul\":3802:3901   */\ntag_28:\n    /* \"#utility.yul\":3854:3860   */\n  0x00\n    /* \"#utility.yul\":3888:3893   */\n  dup2\n    /* \"#utility.yul\":3882:3894   */\n  mload\n    /* \"#utility.yul\":3872:3894   */\n  swap1\n  pop\n    /* \"#utility.yul\":3802:3901   */\n  swap2\n  swap1\n  pop\n  jump\t// out\n    /* \"#utility.yul\":3907:4087   */\ntag_29:\n    /* \"#utility.yul\":3955:4032   */\n  0x4e487b7100000000000000000000000000000000000000000000000000000000\n    /* \"#utility.yul\":3952:3953   */\n  0x00\n    /* \"#utility.yul\":3945:4033   */\n  mstore\n    /* \"#utility.yul\":4052:4056   */\n  0x22\n    /* \"#utility.yul\":4049:4050   */\n  0x04\n    /* \"#utility.yul\":4042:4057   */\n  mstore\n    /* \"#utility.yul\":4076:4080   */\n  0x24\n    /* \"#utility.yul\":4073:4074   */\n  0x00\n    /* \"#utility.yul\":4066:4081   */\n  revert\n    /* \"#utility.yul\":4093:4413   */\ntag_30:\n    /* \"#utility.yul\":4137:4143   */\n  0x00\n    /* \"#utility.yul\":4174:4175   */\n  0x02\n    /* \"#utility.yul\":4168:4172   */\n  dup3\n    /* \"#utility.yul\":4164:4176   */\n  div\n    /* \"#utility.yul\":4154:4176   */\n  swap1\n  pop\n    /* \"#utility.yul\":4221:4222   */\n  0x01\n    /* \"#utility.yul\":4215:4219   */\n  dup3\n    /* \"#utility.yul\":4211:4223   */\n  and\n    /* \"#utility.yul\":4242:4260   */\n  dup1\n    /* \"#utility.yul\":4232:4313   */\n  tag_93\n  jumpi\n    /* \"#utility.yul\":4298:4302   */\n  0x7f\n    /* \"#utility.yul\":4290:4296   */\n  dup3\n    /* \"#utility.yul\":4286:4303   */\n  and\n    /* \"#utility.yul\":4276:4303   */\n  swap2\n  pop\n    /* \"#utility.yul\":4232:4313   */\ntag_93:\n    /* \"#utility.yul\":4360:4362   */\n  0x20\n    /* \"#utility.yul\":4352:4358   */\n  dup3\n    /* \"#utility.yul\":4349:4363   */\n  lt\n    /* \"#utility.yul\":4329:4347   */\n  dup2\n    /* \"#utility.yul\":4326:4364   */\n  sub\n    /* \"#utility.yul\":4323:4407   */\n  tag_94\n  jumpi\n    /* \"#utility.yul\":4379:4397   */\n  tag_95\n  tag_29\n  jump\t// in\ntag_95:\n    /* \"#utility.yul\":4323:4407   */\ntag_94:\n    /* \"#utility.yul\":4144:4413   */\n  pop\n    /* \"#utility.yul\":4093:4413   */\n  swap2\n  swap1\n  pop\n  jump\t// out\n    /* \"#utility.yul\":4419:4560   */\ntag_31:\n    /* \"#utility.yul\":4468:4472   */\n  0x00\n    /* \"#utility.yul\":4491:4494   */\n  dup2\n    /* \"#utility.yul\":4483:4494   */\n  swap1\n  pop\n    /* \"#utility.yul\":4514:4517   */\n  dup2\n    /* \"#utility.yul\":4511:4512   */\n  0x00\n    /* \"#utility.yul\":4504:4518   */\n  mstore\n    /* \"#utility.yul\":4548:4552   */\n  0x20\n    /* \"#utility.yul\":4545:4546   */\n  0x00\n    /* \"#utility.yul\":4535:4553   */\n  keccak256\n    /* \"#utility.yul\":4527:4553   */\n  swap1\n  pop\n    /* \"#utility.yul\":4419:4560   */\n  swap2\n  swap1\n  pop\n  jump\t// out\n    /* \"#utility.yul\":4566:4659   */\ntag_32:\n    /* \"#utility.yul\":4603:4609   */\n  0x00\n    /* \"#utility.yul\":4650:4652   */\n  0x20\n    /* \"#utility.yul\":4645:4647   */\n  0x1f\n    /* \"#utility.yul\":4638:4643   */\n  dup4\n    /* \"#utility.yul\":4634:4648   */\n  add\n    /* \"#utility.yul\":4630:4653   */\n  div\n    /* \"#utility.yul\":4620:4653   */\n  swap1\n  pop\n    /* \"#utility.yul\":4566:4659   */\n  swap2\n  swap1\n  pop\n  jump\t// out\n    /* \"#utility.yul\":4665:4772   */\ntag_33:\n    /* \"#utility.yul\":4709:4717   */\n  0x00\n    /* \"#utility.yul\":4759:4764   */\n  dup3\n    /* \"#utility.yul\":4753:4757   */\n  dup3\n    /* \"#utility.yul\":4749:4765   */\n  shl\n    /* \"#utility.yul\":4728:4765   */\n  swap1\n  pop\n    /* \"#utility.yul\":4665:4772   */\n  swap3\n  swap2\n  pop\n  pop\n  jump\t// out\n    /* \"#utility.yul\":4778:5171   */\ntag_34:\n    /* \"#utility.yul\":4847:4853   */\n  0x00\n    /* \"#utility.yul\":4897:4898   */\n  0x08\n    /* \"#utility.yul\":4885:4895   */\n  dup4\n    /* \"#utility.yul\":4881:4899   */\n  mul\n    /* \"#utility.yul\":4920:5017   */\n  tag_100\n    /* \"#utility.yul\":4950:5016   */\n  0xffffffffffffffffffffffffffffffffffffffffffffffffffffffffffffffff\n    /* \"#utility.yul\":4939:4948   */\n  dup3\n    /* \"#utility.yul\":4920:5017   */\n  tag_33\n  jump\t// in\ntag_100:\n    /* \"#utility.yul\":5038:5077   */\n  tag_101\n    /* \"#utility.yul\":5068:5076   */\n  dup7\n    /* \"#utility.yul\":5057:5066   */\n  dup4\n    /* \"#utility.yul\":5038:5077   */\n  tag_33\n  jump\t// in\ntag_101:\n    /* \"#utility.yul\":5026:5077   */\n  swap6\n  pop\n    /* \"#utility.yul\":5110:5114   */\n  dup1\n    /* \"#utility.yul\":5106:5115   */\n  not\n    /* \"#utility.yul\":5099:5104   */\n  dup5\n    /* \"#utility.yul\":5095:5116   */\n  and\n    /* \"#utility.yul\":5086:5116   */\n  swap4\n  pop\n    /* \"#utility.yul\":5159:5163   */\n  dup1\n    /* \"#utility.yul\":5149:5157   */\n  dup7\n    /* \"#utility.yul\":5145:5164   */\n  and\n    /* \"#utility.yul\":5138:5143   */\n  dup5\n    /* \"#utility.yul\":5135:5165   */\n  or\n    /* \"#utility.yul\":5125:5165   */\n  swap3\n  pop\n    /* \"#utility.yul\":4854:5171   */\n  pop\n  pop\n    /* \"#utility.yul\":4778:5171   */\n  swap4\n  swap3\n  pop\n  pop\n  pop\n  jump\t// out\n    /* \"#utility.yul\":5177:5237   */\ntag_35:\n    /* \"#utility.yul\":5205:5208   */\n  0x00\n    /* \"#utility.yul\":5226:5231   */\n  dup2\n    /* \"#utility.yul\":5219:5231   */\n  swap1\n  pop\n    /* \"#utility.yul\":5177:5237   */\n  swap2\n  swap1\n  pop\n  jump\t// out\n    /* \"#utility.yul\":5243:5385   */\ntag_36:\n    /* \"#utility.yul\":5293:5302   */\n  0x00\n    /* \"#utility.yul\":5326:5379   */\n  tag_104\n    /* \"#utility.yul\":5344:5378   */\n  tag_105\n    /* \"#utility.yul\":5353:5377   */\n  tag_106\n    /* \"#utility.yul\":5371:5376   */\n  dup5\n    /* \"#utility.yul\":5353:5377   */\n  tag_15\n  jump\t// in\ntag_106:\n    /* \"#utility.yul\":5344:5378   */\n  tag_35\n  jump\t// in\ntag_105:\n    /* \"#utility.yul\":5326:5379   */\n  tag_15\n  jump\t// in\ntag_104:\n    /* \"#utility.yul\":5313:5379   */\n  swap1\n  pop\n    /* \"#utility.yul\":5243:5385   */\n  swap2\n  swap1\n  pop\n  jump\t// out\n    /* \"#utility.yul\":5391:5466   */\ntag_37:\n    /* \"#utility.yul\":5434:5437   */\n  0x00\n    /* \"#utility.yul\":5455:5460   */\n  dup2\n    /* \"#utility.yul\":5448:5460   */\n  swap1\n  pop\n    /* \"#utility.yul\":5391:5466   */\n  swap2\n  swap1\n  pop\n  jump\t// out\n    /* \"#utility.yul\":5472:5741   */\ntag_38:\n    /* \"#utility.yul\":5582:5621   */\n  tag_109\n    /* \"#utility.yul\":5613:5620   */\n  dup4\n    /* \"#utility.yul\":5582:5621   */\n  tag_36\n  jump\t// in\ntag_109:\n    /* \"#utility.yul\":5643:5734   */\n  tag_110\n    /* \"#utility.yul\":5692:5733   */\n  tag_111\n    /* \"#utility.yul\":5716:5732   */\n  dup3\n    /* \"#utility.yul\":5692:5733   */\n  tag_37\n  jump\t// in\ntag_111:\n    /* \"#utility.yul\":5684:5690   */\n  dup5\n    /* \"#utility.yul\":5677:5681   */\n  dup5\n    /* \"#utility.yul\":5671:5682   */\n  sload\n    /* \"#utility.yul\":5643:5734   */\n  tag_34\n  jump\t// in\ntag_110:\n    /* \"#utility.yul\":5637:5641   */\n  dup3\n    /* \"#utility.yul\":5630:5735   */\n  sstore\n    /* \"#utility.yul\":5548:5741   */\n  pop\n    /* \"#utility.yul\":5472:5741   */\n  pop\n  pop\n  pop\n  jump\t// out\n    /* \"#utility.yul\":5747:5820   */\ntag_39:\n    /* \"#utility.yul\":5792:5795   */\n  0x00\n    /* \"#utility.yul\":5813:5814   */\n  0x00\n    /* \"#utility.yul\":5806:5814   */\n  swap1\n  pop\n    /* \"#utility.yul\":5747:5820   */\n  swap1\n  jump\t// out\n    /* \"#utility.yul\":5826:6015   */\ntag_40:\n    /* \"#utility.yul\":5903:5935   */\n  tag_114\n  tag_39\n  jump\t// in\ntag_114:\n    /* \"#utility.yul\":5944:6009   */\n  tag_115\n    /* \"#utility.yul\":6002:6008   */\n  dup2\n    /* \"#utility.yul\":5994:6000   */\n  dup5\n    /* \"#utility.yul\":5988:5992   */\n  dup5\n    /* \"#utility.yul\":5944:6009   */\n  tag_38\n  jump\t// in\ntag_115:\n    /* \"#utility.yul\":5879:6015   */\n  pop\n    /* \"#utility.yul\":5826:6015   */\n  pop\n  pop\n  jump\t// out\n    /* \"#utility.yul\":6021:6207   */\ntag_41:\n    /* \"#utility.yul\":6081:6201   */\ntag_117:\n    /* \"#utility.yul\":6098:6101   */\n  dup2\n    /* \"#utility.yul\":6091:6096   */\n  dup2\n    /* \"#utility.yul\":6088:6102   */\n  lt\n    /* \"#utility.yul\":6081:6201   */\n  iszero\n  tag_119\n  jumpi\n    /* \"#utility.yul\":6152:6191   */\n  tag_120\n    /* \"#utility.yul\":6189:6190   */\n  0x00\n    /* \"#utility.yul\":6182:6187   */\n  dup3\n    /* \"#utility.yul\":6152:6191   */\n  tag_40\n  jump\t// in\ntag_120:\n    /* \"#utility.yul\":6125:6126   */\n  0x01\n    /* \"#utility.yul\":6118:6123   */\n  dup2\n    /* \"#utility.yul\":6114:6127   */\n  add\n    /* \"#utility.yul\":6105:6127   */\n  swap1\n  pop\n    /* \"#utility.yul\":6081:6201   */\n  jump(tag_117)\ntag_119:\n    /* \"#utility.yul\":6021:6207   */\n  pop\n  pop\n  jump\t// out\n    /* \"#utility.yul\":6213:6756   */\ntag_42:\n    /* \"#utility.yul\":6314:6316   */\n  0x1f\n    /* \"#utility.yul\":6309:6312   */\n  dup3\n    /* \"#utility.yul\":6306:6317   */\n  gt\n    /* \"#utility.yul\":6303:6749   */\n  iszero\n  tag_122\n  jumpi\n    /* \"#utility.yul\":6348:6386   */\n  tag_123\n    /* \"#utility.yul\":6380:6385   */\n  dup2\n    /* \"#utility.yul\":6348:6386   */\n  tag_31\n  jump\t// in\ntag_123:\n    /* \"#utility.yul\":6432:6461   */\n  tag_124\n    /* \"#utility.yul\":6450:6460   */\n  dup5\n    /* \"#utility.yul\":6432:6461   */\n  tag_32\n  jump\t// in\ntag_124:\n    /* \"#utility.yul\":6422:6430   */\n  dup2\n    /* \"#utility.yul\":6418:6462   */\n  add\n    /* \"#utility.yul\":6615:6617   */\n  0x20\n    /* \"#utility.yul\":6603:6613   */\n  dup6\n    /* \"#utility.yul\":6600:6618   */\n  lt\n    /* \"#utility.yul\":6597:6646   */\n  iszero\n  tag_125\n  jumpi\n    /* \"#utility.yul\":6636:6644   */\n  dup2\n    /* \"#utility.yul\":6621:6644   */\n  swap1\n  pop\n    /* \"#utility.yul\":6597:6646   */\ntag_125:\n    /* \"#utility.yul\":6659:6739   */\n  tag_126\n    /* \"#utility.yul\":6715:6737   */\n  tag_127\n    /* \"#utility.yul\":6733:6736   */\n  dup6\n    /* \"#utility.yul\":6715:6737   */\n  tag_32\n  jump\t// in\ntag_127:\n    /* \"#utility.yul\":6705:6713   */\n  dup4\n    /* \"#utility.yul\":6701:6738   */\n  add\n    /* \"#utility.yul\":6688:6699   */\n  dup3\n    /* \"#utility.yul\":6659:6739   */\n  tag_41\n  jump\t// in\ntag_126:\n    /* \"#utility.yul\":6318:6749   */\n  pop\n  pop\n    /* \"#utility.yul\":6303:6749   */\ntag_122:\n    /* \"#utility.yul\":6213:6756   */\n  pop\n  pop\n  pop\n  jump\t// out\n    /* \"#utility.yul\":6762:6879   */\ntag_43:\n    /* \"#utility.yul\":6816:6824   */\n  0x00\n    /* \"#utility.yul\":6866:6871   */\n  dup3\n    /* \"#utility.yul\":6860:6864   */\n  dup3\n    /* \"#utility.yul\":6856:6872   */\n  shr\n    /* \"#utility.yul\":6835:6872   */\n  swap1\n  pop\n    /* \"#utility.yul\":6762:6879   */\n  swap3\n  swap2\n  pop\n  pop\n  jump\t// out\n    /* \"#utility.yul\":6885:7054   */\ntag_44:\n    /* \"#utility.yul\":6929:6935   */\n  0x00\n    /* \"#utility.yul\":6962:7013   */\n  tag_130\n    /* \"#utility.yul\":7010:7011   */\n  0x00\n    /* \"#utility.yul\":7006:7012   */\n  not\n    /* \"#utility.yul\":6998:7003   */\n  dup5\n    /* \"#utility.yul\":6995:6996   */\n  0x08\n    /* \"#utility.yul\":6991:7004   */\n  mul\n    /* \"#utility.yul\":6962:7013   */\n  tag_43\n  jump\t// in\ntag_130:\n    /* \"#utility.yul\":6958:7014   */\n  not\n    /* \"#utility.yul\":7043:7047   */\n  dup1\n    /* \"#utility.yul\":7037:7041   */\n  dup4\n    /* \"#utility.yul\":7033:7048   */\n  and\n    /* \"#utility.yul\":7023:7048   */\n  swap2\n  pop\n    /* \"#utility.yul\":6936:7054   */\n  pop\n    /* \"#utility.yul\":6885:7054   */\n  swap3\n  swap2\n  pop\n  pop\n  jump\t// out\n    /* \"#utility.yul\":7059:7354   */\ntag_45:\n    /* \"#utility.yul\":7135:7139   */\n  0x00\n    /* \"#utility.yul\":7281:7310   */\n  tag_132\n    /* \"#utility.yul\":7306:7309   */\n  dup4\n    /* \"#utility.yul\":7300:7304   */\n  dup4\n    /* \"#utility.yul\":7281:7310   */\n  tag_44\n  jump\t// in\ntag_132:\n    /* \"#utility.yul\":7273:7310   */\n  swap2\n  pop\n    /* \"#utility.yul\":7343:7346   */\n  dup3\n    /* \"#utility.yul\":7340:7341   */\n  0x02\n    /* \"#utility.yul\":7336:7347   */\n  mul\n    /* \"#utility.yul\":7330:7334   */\n  dup3\n    /* \"#utility.yul\":7327:7348   */\n  or\n    /* \"#utility.yul\":7319:7348   */\n  swap1\n  pop\n    /* \"#utility.yul\":7059:7354   */\n  swap3\n  swap2\n  pop\n  pop\n  jump\t// out\n    /* \"#utility.yul\":7359:8754   */\ntag_10:\n    /* \"#utility.yul\":7476:7513   */\n  tag_134\n    /* \"#utility.yul\":7509:7512   */\n  dup3\n    /* \"#utility.yul\":7476:7513   */\n  tag_28\n  jump\t// in\ntag_134:\n    /* \"#utility.yul\":7578:7596   */\n  0xffffffffffffffff\n    /* \"#utility.yul\":7570:7576   */\n  dup2\n    /* \"#utility.yul\":7567:7597   */\n  gt\n    /* \"#utility.yul\":7564:7620   */\n  iszero\n  tag_135\n  jumpi\n    /* \"#utility.yul\":7600:7618   */\n  tag_136\n  tag_21\n  jump\t// in\ntag_136:\n    /* \"#utility.yul\":7564:7620   */\ntag_135:\n    /* \"#utility.yul\":7644:7682   */\n  tag_137\n    /* \"#utility.yul\":7676:7680   */\n  dup3\n    /* \"#utility.yul\":7670:7681   */\n  sload\n    /* \"#utility.yul\":7644:7682   */\n  tag_30\n  jump\t// in\ntag_137:\n    /* \"#utility.yul\":7729:7796   */\n  tag_138\n    /* \"#utility.yul\":7789:7795   */\n  dup3\n    /* \"#utility.yul\":7781:7787   */\n  dup3\n    /* \"#utility.yul\":7775:7779   */\n  dup6\n    /* \"#utility.yul\":7729:7796   */\n  tag_42\n  jump\t// in\ntag_138:\n    /* \"#utility.yul\":7823:7824   */\n  0x00\n    /* \"#utility.yul\":7847:7851   */\n  0x20\n    /* \"#utility.yul\":7834:7851   */\n  swap1\n  pop\n    /* \"#utility.yul\":7879:7881   */\n  0x1f\n    /* \"#utility.yul\":7871:7877   */\n  dup4\n    /* \"#utility.yul\":7868:7882   */\n  gt\n    /* \"#utility.yul\":7896:7897   */\n  0x01\n    /* \"#utility.yul\":7891:8509   */\n  dup2\n  eq\n  tag_140\n  jumpi\n    /* \"#utility.yul\":8553:8554   */\n  0x00\n    /* \"#utility.yul\":8570:8576   */\n  dup5\n    /* \"#utility.yul\":8567:8644   */\n  iszero\n  tag_141\n  jumpi\n    /* \"#utility.yul\":8619:8628   */\n  dup3\n    /* \"#utility.yul\":8614:8617   */\n  dup8\n    /* \"#utility.yul\":8610:8629   */\n  add\n    /* \"#utility.yul\":8604:8630   */\n  mload\n    /* \"#utility.yul\":8595:8630   */\n  swap1\n  pop\n    /* \"#utility.yul\":8567:8644   */\ntag_141:\n    /* \"#utility.yul\":8670:8737   */\n  tag_142\n    /* \"#utility.yul\":8730:8736   */\n  dup6\n    /* \"#utility.yul\":8723:8728   */\n  dup3\n    /* \"#utility.yul\":8670:8737   */\n  tag_45\n  jump\t// in\ntag_142:\n    /* \"#utility.yul\":8664:8668   */\n  dup7\n    /* \"#utility.yul\":8657:8738   */\n  sstore\n    /* \"#utility.yul\":8526:8748   */\n  pop\n    /* \"#utility.yul\":7861:8748   */\n  jump(tag_139)\n    /* \"#utility.yul\":7891:8509   */\ntag_140:\n    /* \"#utility.yul\":7943:7947   */\n  0x1f\n    /* \"#utility.yul\":7939:7948   */\n  not\n    /* \"#utility.yul\":7931:7937   */\n  dup5\n    /* \"#utility.yul\":7927:7949   */\n  and\n    /* \"#utility.yul\":7977:8014   */\n  tag_143\n    /* \"#utility.yul\":8009:8013   */\n  dup7\n    /* \"#utility.yul\":7977:8014   */\n  tag_31\n  jump\t// in\ntag_143:\n    /* \"#utility.yul\":8036:8037   */\n  0x00\n    /* \"#utility.yul\":8050:8258   */\ntag_144:\n    /* \"#utility.yul\":8064:8071   */\n  dup3\n    /* \"#utility.yul\":8061:8062   */\n  dup2\n    /* \"#utility.yul\":8058:8072   */\n  lt\n    /* \"#utility.yul\":8050:8258   */\n  iszero\n  tag_146\n  jumpi\n    /* \"#utility.yul\":8143:8152   */\n  dup5\n    /* \"#utility.yul\":8138:8141   */\n  dup10\n    /* \"#utility.yul\":8134:8153   */\n  add\n    /* \"#utility.yul\":8128:8154   */\n  mload\n    /* \"#utility.yul\":8120:8126   */\n  dup3\n    /* \"#utility.yul\":8113:8155   */\n  sstore\n    /* \"#utility.yul\":8194:8195   */\n  0x01\n    /* \"#utility.yul\":8186:8192   */\n  dup3\n    /* \"#utility.yul\":8182:8196   */\n  add\n    /* \"#utility.yul\":8172:8196   */\n  swap2\n  pop\n    /* \"#utility.yul\":8241:8243   */\n  0x20\n    /* \"#utility.yul\":8230:8239   */\n  dup6\n    /* \"#utility.yul\":8226:8244   */\n  add\n    /* \"#utility.yul\":8213:8244   */\n  swap5\n  pop\n    /* \"#utility.yul\":8087:8091   */\n  0x20\n    /* \"#utility.yul\":8084:8085   */\n  dup2\n    /* \"#utility.yul\":8080:8092   */\n  add\n    /* \"#utility.yul\":8075:8092   */\n  swap1\n  pop\n    /* \"#utility.yul\":8050:8258   */\n  jump(tag_144)\ntag_146:\n    /* \"#utility.yul\":8286:8292   */\n  dup7\n    /* \"#utility.yul\":8277:8284   */\n  dup4\n    /* \"#utility.yul\":8274:8293   */\n  lt\n    /* \"#utility.yul\":8271:8450   */\n  iszero\n  tag_147\n  jumpi\n    /* \"#utility.yul\":8344:8353   */\n  dup5\n    /* \"#utility.yul\":8339:8342   */\n  dup10\n    /* \"#utility.yul\":8335:8354   */\n  add\n    /* \"#utility.yul\":8329:8355   */\n  mload\n    /* \"#utility.yul\":8387:8435   */\n  tag_148\n    /* \"#utility.yul\":8429:8433   */\n  0x1f\n    /* \"#utility.yul\":8421:8427   */\n  dup10\n    /* \"#utility.yul\":8417:8434   */\n  and\n    /* \"#utility.yul\":8406:8415   */\n  dup3\n    /* \"#utility.yul\":8387:8435   */\n  tag_44\n  jump\t// in\ntag_148:\n    /* \"#utility.yul\":8379:8385   */\n  dup4\n    /* \"#utility.yul\":8372:8436   */\n  sstore\n    /* \"#utility.yul\":8294:8450   */\n  pop\n    /* \"#utility.yul\":8271:8450   */\ntag_147:\n    /* \"#utility.yul\":8496:8497   */\n  0x01\n    /* \"#utility.yul\":8492:8493   */\n  0x02\n    /* \"#utility.yul\":8484:8490   */\n  dup9\n    /* \"#utility.yul\":8480:8494   */\n  mul\n    /* \"#utility.yul\":8476:8498   */\n  add\n    /* \"#utility.yul\":8470:8474   */\n  dup9\n    /* \"#utility.yul\":8463:8499   */\n  sstore\n    /* \"#utility.yul\":7898:8509   */\n  pop\n  pop\n  pop\n    /* \"#utility.yul\":7861:8748   */\ntag_139:\n  pop\n    /* \"#utility.yul\":7451:8754   */\n  pop\n  pop\n  pop\n    /* \"#utility.yul\":7359:8754   */\n  pop\n  pop\n  jump\t// out\n    /* \"sixth1.sol\":138:1002  contract advance {... */\ntag_11:\n  dataSize(sub_0)\n  dup1\n  dataOffset(sub_0)\n  0x00\n  codecopy\n  0x00\n  return\nstop\n\nsub_0: assembly {\n        /* \"sixth1.sol\":138:1002  contract advance {... */\n      mstore(0x40, 0x80)\n      callvalue\n      dup1\n      iszero\n      tag_1\n      jumpi\n      revert(0x00, 0x00)\n    tag_1:\n      pop\n      jumpi(tag_2, lt(calldatasize, 0x04))\n      shr(0xe0, calldataload(0x00))\n      dup1\n      0x42f6487a\n      eq\n      tag_3\n      jumpi\n      dup1\n      0x6cc014de\n      eq\n      tag_4\n      jumpi\n      dup1\n      0xa03a8247\n      eq\n      tag_5\n      jumpi\n      dup1\n      0xb69ef8a8\n      eq\n      tag_6\n      jumpi\n      dup1\n      0xc75226ec\n      eq\n      tag_7\n      jumpi\n    tag_2:\n      revert(0x00, 0x00)\n        /* \"sixth1.sol\":491:529  Status public payment = Status.waiting */\n    tag_3:\n      tag_8\n      tag_9\n      jump\t// in\n    tag_8:\n      mload(0x40)\n      tag_10\n      swap2\n      swap1\n      tag_11\n      jump\t// in\n    tag_10:\n      mload(0x40)\n      dup1\n      swap2\n      sub\n      swap1\n      return\n        /* \"sixth1.sol\":158:175  Student public s1 */\n    tag_4:\n      tag_12\n      tag_13\n      jump\t// in\n    tag_12:\n      mload(0x40)\n      tag_14\n      swap3\n      swap2\n      swap1\n      tag_15\n      jump\t// in\n    tag_14:\n      mload(0x40)\n      dup1\n      swap2\n      sub\n      swap1\n      return\n        /* \"sixth1.sol\":560:999  function updatePayment(uint _amout) public returns (Status) {... */\n    tag_5:\n      tag_16\n      0x04\n      dup1\n      calldatasize\n      sub\n      dup2\n      add\n      swap1\n      tag_17\n      swap2\n      swap1\n      tag_18\n      jump\t// in\n    tag_17:\n      tag_19\n      jump\t// in\n    tag_16:\n      mload(0x40)\n      tag_20\n      swap2\n      swap1\n      tag_11\n      jump\t// in\n    tag_20:\n      mload(0x40)\n      dup1\n      swap2\n      sub\n      swap1\n      return\n        /* \"sixth1.sol\":532:555  uint public  balance =0 */\n    tag_6:\n      tag_21\n      tag_22\n      jump\t// in\n    tag_21:\n      mload(0x40)\n      tag_23\n      swap2\n      swap1\n      tag_24\n      jump\t// in\n    tag_23:\n      mload(0x40)\n      dup1\n      swap2\n      sub\n      swap1\n      return\n        /* \"sixth1.sol\":272:432  function change ( uint _uid, string memory _name) public{... */\n    tag_7:\n      tag_25\n      0x04\n      dup1\n      calldatasize\n      sub\n      dup2\n      add\n      swap1\n      tag_26\n      swap2\n      swap1\n      tag_27\n      jump\t// in\n    tag_26:\n      tag_28\n      jump\t// in\n    tag_25:\n      stop\n        /* \"sixth1.sol\":491:529  Status public payment = Status.waiting */\n    tag_9:\n      0x02\n      0x00\n      swap1\n      sload\n      swap1\n      0x0100\n      exp\n      swap1\n      div\n      0xff\n      and\n      dup2\n      jump\t// out\n        /* \"sixth1.sol\":158:175  Student public s1 */\n    tag_13:\n      0x00\n      dup1\n      0x00\n      add\n      sload\n      swap1\n      dup1\n      0x01\n      add\n      dup1\n      sload\n      tag_29\n      swap1\n      tag_30\n      jump\t// in\n    tag_29:\n      dup1\n      0x1f\n      add\n      0x20\n      dup1\n      swap2\n      div\n      mul\n      0x20\n      add\n      mload(0x40)\n      swap1\n      dup2\n      add\n      0x40\n      mstore\n      dup1\n      swap3\n      swap2\n      swap1\n      dup2\n      dup2\n      mstore\n      0x20\n      add\n      dup3\n      dup1\n      sload\n      tag_31\n      swap1\n      tag_30\n      jump\t// in\n    tag_31:\n      dup1\n      iszero\n      tag_32\n      jumpi\n      dup1\n      0x1f\n      lt\n      tag_33\n      jumpi\n      0x0100\n      dup1\n      dup4\n      sload\n      div\n      mul\n      dup4\n      mstore\n      swap2\n      0x20\n      add\n      swap2\n      jump(tag_32)\n    tag_33:\n      dup3\n      add\n      swap2\n      swap1\n      0x00\n      mstore\n      keccak256(0x00, 0x20)\n      swap1\n    tag_34:\n      dup2\n      sload\n      dup2\n      mstore\n      swap1\n      0x01\n      add\n      swap1\n      0x20\n      add\n      dup1\n      dup4\n      gt\n      tag_34\n      jumpi\n      dup3\n      swap1\n      sub\n      0x1f\n      and\n      dup3\n      add\n      swap2\n    tag_32:\n      pop\n      pop\n      pop\n      pop\n      pop\n      swap1\n      pop\n      dup3\n      jump\t// out\n        /* \"sixth1.sol\":560:999  function updatePayment(uint _amout) public returns (Status) {... */\n    tag_19:\n        /* \"sixth1.sol\":612:618  Status */\n      0x00\n        /* \"sixth1.sol\":642:647  10000 */\n      0x2710\n        /* \"sixth1.sol\":632:638  _amout */\n      dup3\n        /* \"sixth1.sol\":632:647  _amout == 10000 */\n      sub\n        /* \"sixth1.sol\":627:996  if ( _amout == 10000 ) {... */\n      tag_36\n      jumpi\n        /* \"sixth1.sol\":681:687  _amout */\n      dup2\n        /* \"sixth1.sol\":671:678  balance */\n      sload(0x03)\n        /* \"sixth1.sol\":671:687  balance + _amout */\n      tag_37\n      swap2\n      swap1\n      tag_38\n      jump\t// in\n    tag_37:\n        /* \"sixth1.sol\":661:668  balance */\n      0x03\n        /* \"sixth1.sol\":661:687  balance = balance + _amout */\n      dup2\n      swap1\n      sstore\n      pop\n        /* \"sixth1.sol\":708:722  Status.success */\n      0x00\n        /* \"sixth1.sol\":698:705  payment */\n      0x02\n      0x00\n        /* \"sixth1.sol\":698:722  payment = Status.success */\n      0x0100\n      exp\n      dup2\n      sload\n      dup2\n      0xff\n      mul\n      not\n      and\n      swap1\n      dup4\n      0x02\n      dup2\n      gt\n      iszero\n      tag_39\n      jumpi\n      tag_40\n      tag_41\n      jump\t// in\n    tag_40:\n    tag_39:\n      mul\n      or\n      swap1\n      sstore\n      pop\n        /* \"sixth1.sol\":740:747  payment */\n      0x02\n      0x00\n      swap1\n      sload\n      swap1\n      0x0100\n      exp\n      swap1\n      div\n      0xff\n      and\n        /* \"sixth1.sol\":733:747  return payment */\n      swap1\n      pop\n      jump(tag_35)\n        /* \"sixth1.sol\":627:996  if ( _amout == 10000 ) {... */\n    tag_36:\n        /* \"sixth1.sol\":775:776  0 */\n      0x00\n        /* \"sixth1.sol\":765:771  _amout */\n      dup3\n        /* \"sixth1.sol\":765:776  _amout == 0 */\n      sub\n        /* \"sixth1.sol\":761:996  if (_amout == 0){... */\n      tag_43\n      jumpi\n        /* \"sixth1.sol\":808:814  _amout */\n      dup2\n        /* \"sixth1.sol\":798:805  balance */\n      sload(0x03)\n        /* \"sixth1.sol\":798:814  balance + _amout */\n      tag_44\n      swap2\n      swap1\n      tag_38\n      jump\t// in\n    tag_44:\n        /* \"sixth1.sol\":788:795  balance */\n      0x03\n        /* \"sixth1.sol\":788:814  balance = balance + _amout */\n      dup2\n      swap1\n      sstore\n      pop\n        /* \"sixth1.sol\":835:848  Status.failed */\n      0x02\n        /* \"sixth1.sol\":825:832  payment */\n      dup1\n      0x00\n        /* \"sixth1.sol\":825:848  payment = Status.failed */\n      0x0100\n      exp\n      dup2\n      sload\n      dup2\n      0xff\n      mul\n      not\n      and\n      swap1\n      dup4\n      0x02\n      dup2\n      gt\n      iszero\n      tag_45\n      jumpi\n      tag_46\n      tag_41\n      jump\t// in\n    tag_46:\n    tag_45:\n      mul\n      or\n      swap1\n      sstore\n      pop\n        /* \"sixth1.sol\":866:873  payment */\n      0x02\n      0x00\n      swap1\n      sload\n      swap1\n      0x0100\n      exp\n      swap1\n      div\n      0xff\n      and\n        /* \"sixth1.sol\":859:873  return payment */\n      swap1\n      pop\n      jump(tag_35)\n        /* \"sixth1.sol\":761:996  if (_amout == 0){... */\n    tag_43:\n        /* \"sixth1.sol\":922:928  _amout */\n      dup2\n        /* \"sixth1.sol\":912:919  balance */\n      sload(0x03)\n        /* \"sixth1.sol\":912:928  balance + _amout */\n      tag_48\n      swap2\n      swap1\n      tag_38\n      jump\t// in\n    tag_48:\n        /* \"sixth1.sol\":902:909  balance */\n      0x03\n        /* \"sixth1.sol\":902:928  balance = balance + _amout */\n      dup2\n      swap1\n      sstore\n      pop\n        /* \"sixth1.sol\":949:963  Status.waiting */\n      0x01\n        /* \"sixth1.sol\":939:946  payment */\n      0x02\n      0x00\n        /* \"sixth1.sol\":939:963  payment = Status.waiting */\n      0x0100\n      exp\n      dup2\n      sload\n      dup2\n      0xff\n      mul\n      not\n      and\n      swap1\n      dup4\n      0x02\n      dup2\n      gt\n      iszero\n      tag_49\n      jumpi\n      tag_50\n      tag_41\n      jump\t// in\n    tag_50:\n    tag_49:\n      mul\n      or\n      swap1\n      sstore\n      pop\n        /* \"sixth1.sol\":981:988  payment */\n      0x02\n      0x00\n      swap1\n      sload\n      swap1\n      0x0100\n      exp\n      swap1\n      div\n      0xff\n      and\n        /* \"sixth1.sol\":974:988  return payment */\n      swap1\n      pop\n        /* \"sixth1.sol\":560:999  function updatePayment(uint _amout) public returns (Status) {... */\n    tag_35:\n      swap2\n      swap1\n      pop\n      jump\t// out\n        /* \"sixth1.sol\":532:555  uint public  balance =0 */\n    tag_22:\n      sload(0x03)\n      dup2\n      jump\t// out\n        /* \"sixth1.sol\":272:432  function change ( uint _uid, string memory _name) public{... */\n    tag_28:\n        /* \"sixth1.sol\":334:351  Student memory s2 */\n      tag_52\n      tag_53\n      jump\t// in\n    tag_52:\n        /* \"sixth1.sol\":367:371  _uid */\n      dup3\n        /* \"sixth1.sol\":358:360  s2 */\n      dup2\n        /* \"sixth1.sol\":358:364  s2.uid */\n      0x00\n      add\n        /* \"sixth1.sol\":358:371  s2.uid = _uid */\n      dup2\n      dup2\n      mstore\n      pop\n      pop\n        /* \"sixth1.sol\":387:392  _name */\n      dup2\n        /* \"sixth1.sol\":377:379  s2 */\n      dup2\n        /* \"sixth1.sol\":377:384  s2.name */\n      0x20\n      add\n        /* \"sixth1.sol\":377:392  s2.name = _name */\n      dup2\n      swap1\n      mstore\n      pop\n        /* \"sixth1.sol\":403:405  s2 */\n      dup1\n        /* \"sixth1.sol\":398:400  s1 */\n      0x00\n        /* \"sixth1.sol\":398:405  s1 = s2 */\n      0x00\n      dup3\n      add\n      mload\n      dup2\n      0x00\n      add\n      sstore\n      0x20\n      dup3\n      add\n      mload\n      dup2\n      0x01\n      add\n      swap1\n      dup2\n      tag_54\n      swap2\n      swap1\n      tag_55\n      jump\t// in\n    tag_54:\n      pop\n      swap1\n      pop\n      pop\n        /* \"sixth1.sol\":328:432  {... */\n      pop\n        /* \"sixth1.sol\":272:432  function change ( uint _uid, string memory _name) public{... */\n      pop\n      pop\n      jump\t// out\n    tag_53:\n      mload(0x40)\n      dup1\n      0x40\n      add\n      0x40\n      mstore\n      dup1\n      0x00\n      dup2\n      mstore\n      0x20\n      add\n      0x60\n      dup2\n      mstore\n      pop\n      swap1\n      jump\t// out\n        /* \"#utility.yul\":7:187   */\n    tag_41:\n        /* \"#utility.yul\":55:132   */\n      0x4e487b7100000000000000000000000000000000000000000000000000000000\n        /* \"#utility.yul\":52:53   */\n      0x00\n        /* \"#utility.yul\":45:133   */\n      mstore\n        /* \"#utility.yul\":152:156   */\n      0x21\n        /* \"#utility.yul\":149:150   */\n      0x04\n        /* \"#utility.yul\":142:157   */\n      mstore\n        /* \"#utility.yul\":176:180   */\n      0x24\n        /* \"#utility.yul\":173:174   */\n      0x00\n        /* \"#utility.yul\":166:181   */\n      revert\n        /* \"#utility.yul\":193:307   */\n    tag_56:\n        /* \"#utility.yul\":275:276   */\n      0x03\n        /* \"#utility.yul\":268:273   */\n      dup2\n        /* \"#utility.yul\":265:277   */\n      lt\n        /* \"#utility.yul\":255:301   */\n      tag_101\n      jumpi\n        /* \"#utility.yul\":281:299   */\n      tag_102\n      tag_41\n      jump\t// in\n    tag_102:\n        /* \"#utility.yul\":255:301   */\n    tag_101:\n        /* \"#utility.yul\":193:307   */\n      pop\n      jump\t// out\n        /* \"#utility.yul\":313:442   */\n    tag_57:\n        /* \"#utility.yul\":359:366   */\n      0x00\n        /* \"#utility.yul\":388:393   */\n      dup2\n        /* \"#utility.yul\":377:393   */\n      swap1\n      pop\n        /* \"#utility.yul\":394:436   */\n      tag_104\n        /* \"#utility.yul\":430:435   */\n      dup3\n        /* \"#utility.yul\":394:436   */\n      tag_56\n      jump\t// in\n    tag_104:\n        /* \"#utility.yul\":313:442   */\n      swap2\n      swap1\n      pop\n      jump\t// out\n        /* \"#utility.yul\":448:577   */\n    tag_58:\n        /* \"#utility.yul\":505:514   */\n      0x00\n        /* \"#utility.yul\":538:571   */\n      tag_106\n        /* \"#utility.yul\":565:570   */\n      dup3\n        /* \"#utility.yul\":538:571   */\n      tag_57\n      jump\t// in\n    tag_106:\n        /* \"#utility.yul\":525:571   */\n      swap1\n      pop\n        /* \"#utility.yul\":448:577   */\n      swap2\n      swap1\n      pop\n      jump\t// out\n        /* \"#utility.yul\":583:728   */\n    tag_59:\n        /* \"#utility.yul\":677:721   */\n      tag_108\n        /* \"#utility.yul\":715:720   */\n      dup2\n        /* \"#utility.yul\":677:721   */\n      tag_58\n      jump\t// in\n    tag_108:\n        /* \"#utility.yul\":672:675   */\n      dup3\n        /* \"#utility.yul\":665:722   */\n      mstore\n        /* \"#utility.yul\":583:728   */\n      pop\n      pop\n      jump\t// out\n        /* \"#utility.yul\":734:970   */\n    tag_11:\n        /* \"#utility.yul\":834:838   */\n      0x00\n        /* \"#utility.yul\":872:874   */\n      0x20\n        /* \"#utility.yul\":861:870   */\n      dup3\n        /* \"#utility.yul\":857:875   */\n      add\n        /* \"#utility.yul\":849:875   */\n      swap1\n      pop\n        /* \"#utility.yul\":885:963   */\n      tag_110\n        /* \"#utility.yul\":960:961   */\n      0x00\n        /* \"#utility.yul\":949:958   */\n      dup4\n        /* \"#utility.yul\":945:962   */\n      add\n        /* \"#utility.yul\":936:942   */\n      dup5\n        /* \"#utility.yul\":885:963   */\n      tag_59\n      jump\t// in\n    tag_110:\n        /* \"#utility.yul\":734:970   */\n      swap3\n      swap2\n      pop\n      pop\n      jump\t// out\n        /* \"#utility.yul\":976:1053   */\n    tag_60:\n        /* \"#utility.yul\":1013:1020   */\n      0x00\n        /* \"#utility.yul\":1042:1047   */\n      dup2\n        /* \"#utility.yul\":1031:1047   */\n      swap1\n      pop\n        /* \"#utility.yul\":976:1053   */\n      swap2\n      swap1\n      pop\n      jump\t// out\n        /* \"#utility.yul\":1059:1177   */\n    tag_61:\n        /* \"#utility.yul\":1146:1170   */\n      tag_113\n        /* \"#utility.yul\":1164:1169   */\n      dup2\n        /* \"#utility.yul\":1146:1170   */\n      tag_60\n      jump\t// in\n    tag_113:\n        /* \"#utility.yul\":1141:1144   */\n      dup3\n        /* \"#utility.yul\":1134:1171   */\n      mstore\n        /* \"#utility.yul\":1059:1177   */\n      pop\n      pop\n      jump\t// out\n        /* \"#utility.yul\":1183:1282   */\n    tag_62:\n        /* \"#utility.yul\":1235:1241   */\n      0x00\n        /* \"#utility.yul\":1269:1274   */\n      dup2\n        /* \"#utility.yul\":1263:1275   */\n      mload\n        /* \"#utility.yul\":1253:1275   */\n      swap1\n      pop\n        /* \"#utility.yul\":1183:1282   */\n      swap2\n      swap1\n      pop\n      jump\t// out\n        /* \"#utility.yul\":1288:1457   */\n    tag_63:\n        /* \"#utility.yul\":1372:1383   */\n      0x00\n        /* \"#utility.yul\":1406:1412   */\n      dup3\n        /* \"#utility.yul\":1401:1404   */\n      dup3\n        /* \"#utility.yul\":1394:1413   */\n      mstore\n        /* \"#utility.yul\":1446:1450   */\n      0x20\n        /* \"#utility.yul\":1441:1444   */\n      dup3\n        /* \"#utility.yul\":1437:1451   */\n      add\n        /* \"#utility.yul\":1422:1451   */\n      swap1\n      pop\n        /* \"#utility.yul\":1288:1457   */\n      swap3\n      swap2\n      pop\n      pop\n      jump\t// out\n        /* \"#utility.yul\":1463:1602   */\n    tag_64:\n        /* \"#utility.yul\":1552:1558   */\n      dup3\n        /* \"#utility.yul\":1547:1550   */\n      dup2\n        /* \"#utility.yul\":1542:1545   */\n      dup4\n        /* \"#utility.yul\":1536:1559   */\n      mcopy\n        /* \"#utility.yul\":1593:1594   */\n      0x00\n        /* \"#utility.yul\":1584:1590   */\n      dup4\n        /* \"#utility.yul\":1579:1582   */\n      dup4\n        /* \"#utility.yul\":1575:1591   */\n      add\n        /* \"#utility.yul\":1568:1595   */\n      mstore\n        /* \"#utility.yul\":1463:1602   */\n      pop\n      pop\n      pop\n      jump\t// out\n        /* \"#utility.yul\":1608:1710   */\n    tag_65:\n        /* \"#utility.yul\":1649:1655   */\n      0x00\n        /* \"#utility.yul\":1700:1702   */\n      0x1f\n        /* \"#utility.yul\":1696:1703   */\n      not\n        /* \"#utility.yul\":1691:1693   */\n      0x1f\n        /* \"#utility.yul\":1684:1689   */\n      dup4\n        /* \"#utility.yul\":1680:1694   */\n      add\n        /* \"#utility.yul\":1676:1704   */\n      and\n        /* \"#utility.yul\":1666:1704   */\n      swap1\n      pop\n        /* \"#utility.yul\":1608:1710   */\n      swap2\n      swap1\n      pop\n      jump\t// out\n        /* \"#utility.yul\":1716:2093   */\n    tag_66:\n        /* \"#utility.yul\":1804:1807   */\n      0x00\n        /* \"#utility.yul\":1832:1871   */\n      tag_119\n        /* \"#utility.yul\":1865:1870   */\n      dup3\n        /* \"#utility.yul\":1832:1871   */\n      tag_62\n      jump\t// in\n    tag_119:\n        /* \"#utility.yul\":1887:1958   */\n      tag_120\n        /* \"#utility.yul\":1951:1957   */\n      dup2\n        /* \"#utility.yul\":1946:1949   */\n      dup6\n        /* \"#utility.yul\":1887:1958   */\n      tag_63\n      jump\t// in\n    tag_120:\n        /* \"#utility.yul\":1880:1958   */\n      swap4\n      pop\n        /* \"#utility.yul\":1967:2032   */\n      tag_121\n        /* \"#utility.yul\":2025:2031   */\n      dup2\n        /* \"#utility.yul\":2020:2023   */\n      dup6\n        /* \"#utility.yul\":2013:2017   */\n      0x20\n        /* \"#utility.yul\":2006:2011   */\n      dup7\n        /* \"#utility.yul\":2002:2018   */\n      add\n        /* \"#utility.yul\":1967:2032   */\n      tag_64\n      jump\t// in\n    tag_121:\n        /* \"#utility.yul\":2057:2086   */\n      tag_122\n        /* \"#utility.yul\":2079:2085   */\n      dup2\n        /* \"#utility.yul\":2057:2086   */\n      tag_65\n      jump\t// in\n    tag_122:\n        /* \"#utility.yul\":2052:2055   */\n      dup5\n        /* \"#utility.yul\":2048:2087   */\n      add\n        /* \"#utility.yul\":2041:2087   */\n      swap2\n      pop\n        /* \"#utility.yul\":1808:2093   */\n      pop\n        /* \"#utility.yul\":1716:2093   */\n      swap3\n      swap2\n      pop\n      pop\n      jump\t// out\n        /* \"#utility.yul\":2099:2522   */\n    tag_15:\n        /* \"#utility.yul\":2240:2244   */\n      0x00\n        /* \"#utility.yul\":2278:2280   */\n      0x40\n        /* \"#utility.yul\":2267:2276   */\n      dup3\n        /* \"#utility.yul\":2263:2281   */\n      add\n        /* \"#utility.yul\":2255:2281   */\n      swap1\n      pop\n        /* \"#utility.yul\":2291:2362   */\n      tag_124\n        /* \"#utility.yul\":2359:2360   */\n      0x00\n        /* \"#utility.yul\":2348:2357   */\n      dup4\n        /* \"#utility.yul\":2344:2361   */\n      add\n        /* \"#utility.yul\":2335:2341   */\n      dup6\n        /* \"#utility.yul\":2291:2362   */\n      tag_61\n      jump\t// in\n    tag_124:\n        /* \"#utility.yul\":2409:2418   */\n      dup2\n        /* \"#utility.yul\":2403:2407   */\n      dup2\n        /* \"#utility.yul\":2399:2419   */\n      sub\n        /* \"#utility.yul\":2394:2396   */\n      0x20\n        /* \"#utility.yul\":2383:2392   */\n      dup4\n        /* \"#utility.yul\":2379:2397   */\n      add\n        /* \"#utility.yul\":2372:2420   */\n      mstore\n        /* \"#utility.yul\":2437:2515   */\n      tag_125\n        /* \"#utility.yul\":2510:2514   */\n      dup2\n        /* \"#utility.yul\":2501:2507   */\n      dup5\n        /* \"#utility.yul\":2437:2515   */\n      tag_66\n      jump\t// in\n    tag_125:\n        /* \"#utility.yul\":2429:2515   */\n      swap1\n      pop\n        /* \"#utility.yul\":2099:2522   */\n      swap4\n      swap3\n      pop\n      pop\n      pop\n      jump\t// out\n        /* \"#utility.yul\":2528:2603   */\n    tag_67:\n        /* \"#utility.yul\":2561:2567   */\n      0x00\n        /* \"#utility.yul\":2594:2596   */\n      0x40\n        /* \"#utility.yul\":2588:2597   */\n      mload\n        /* \"#utility.yul\":2578:2597   */\n      swap1\n      pop\n        /* \"#utility.yul\":2528:2603   */\n      swap1\n      jump\t// out\n        /* \"#utility.yul\":2609:2726   */\n    tag_68:\n        /* \"#utility.yul\":2718:2719   */\n      0x00\n        /* \"#utility.yul\":2715:2716   */\n      0x00\n        /* \"#utility.yul\":2708:2720   */\n      revert\n        /* \"#utility.yul\":2732:2849   */\n    tag_69:\n        /* \"#utility.yul\":2841:2842   */\n      0x00\n        /* \"#utility.yul\":2838:2839   */\n      0x00\n        /* \"#utility.yul\":2831:2843   */\n      revert\n        /* \"#utility.yul\":2855:2977   */\n    tag_70:\n        /* \"#utility.yul\":2928:2952   */\n      tag_130\n        /* \"#utility.yul\":2946:2951   */\n      dup2\n        /* \"#utility.yul\":2928:2952   */\n      tag_60\n      jump\t// in\n    tag_130:\n        /* \"#utility.yul\":2921:2926   */\n      dup2\n        /* \"#utility.yul\":2918:2953   */\n      eq\n        /* \"#utility.yul\":2908:2971   */\n      tag_131\n      jumpi\n        /* \"#utility.yul\":2967:2968   */\n      0x00\n        /* \"#utility.yul\":2964:2965   */\n      0x00\n        /* \"#utility.yul\":2957:2969   */\n      revert\n        /* \"#utility.yul\":2908:2971   */\n    tag_131:\n        /* \"#utility.yul\":2855:2977   */\n      pop\n      jump\t// out\n        /* \"#utility.yul\":2983:3122   */\n    tag_71:\n        /* \"#utility.yul\":3029:3034   */\n      0x00\n        /* \"#utility.yul\":3067:3073   */\n      dup2\n        /* \"#utility.yul\":3054:3074   */\n      calldataload\n        /* \"#utility.yul\":3045:3074   */\n      swap1\n      pop\n        /* \"#utility.yul\":3083:3116   */\n      tag_133\n        /* \"#utility.yul\":3110:3115   */\n      dup2\n        /* \"#utility.yul\":3083:3116   */\n      tag_70\n      jump\t// in\n    tag_133:\n        /* \"#utility.yul\":2983:3122   */\n      swap3\n      swap2\n      pop\n      pop\n      jump\t// out\n        /* \"#utility.yul\":3128:3457   */\n    tag_18:\n        /* \"#utility.yul\":3187:3193   */\n      0x00\n        /* \"#utility.yul\":3236:3238   */\n      0x20\n        /* \"#utility.yul\":3224:3233   */\n      dup3\n        /* \"#utility.yul\":3215:3222   */\n      dup5\n        /* \"#utility.yul\":3211:3234   */\n      sub\n        /* \"#utility.yul\":3207:3239   */\n      slt\n        /* \"#utility.yul\":3204:3323   */\n      iszero\n      tag_135\n      jumpi\n        /* \"#utility.yul\":3242:3321   */\n      tag_136\n      tag_68\n      jump\t// in\n    tag_136:\n        /* \"#utility.yul\":3204:3323   */\n    tag_135:\n        /* \"#utility.yul\":3362:3363   */\n      0x00\n        /* \"#utility.yul\":3387:3440   */\n      tag_137\n        /* \"#utility.yul\":3432:3439   */\n      dup5\n        /* \"#utility.yul\":3423:3429   */\n      dup3\n        /* \"#utility.yul\":3412:3421   */\n      dup6\n        /* \"#utility.yul\":3408:3430   */\n      add\n        /* \"#utility.yul\":3387:3440   */\n      tag_71\n      jump\t// in\n    tag_137:\n        /* \"#utility.yul\":3377:3440   */\n      swap2\n      pop\n        /* \"#utility.yul\":3333:3450   */\n      pop\n        /* \"#utility.yul\":3128:3457   */\n      swap3\n      swap2\n      pop\n      pop\n      jump\t// out\n        /* \"#utility.yul\":3463:3685   */\n    tag_24:\n        /* \"#utility.yul\":3556:3560   */\n      0x00\n        /* \"#utility.yul\":3594:3596   */\n      0x20\n        /* \"#utility.yul\":3583:3592   */\n      dup3\n        /* \"#utility.yul\":3579:3597   */\n      add\n        /* \"#utility.yul\":3571:3597   */\n      swap1\n      pop\n        /* \"#utility.yul\":3607:3678   */\n      tag_139\n        /* \"#utility.yul\":3675:3676   */\n      0x00\n        /* \"#utility.yul\":3664:3673   */\n      dup4\n        /* \"#utility.yul\":3660:3677   */\n      add\n        /* \"#utility.yul\":3651:3657   */\n      dup5\n        /* \"#utility.yul\":3607:3678   */\n      tag_61\n      jump\t// in\n    tag_139:\n        /* \"#utility.yul\":3463:3685   */\n      swap3\n      swap2\n      pop\n      pop\n      jump\t// out\n        /* \"#utility.yul\":3691:3808   */\n    tag_72:\n        /* \"#utility.yul\":3800:3801   */\n      0x00\n        /* \"#utility.yul\":3797:3798   */\n      0x00\n        /* \"#utility.yul\":3790:3802   */\n      revert\n        /* \"#utility.yul\":3814:3931   */\n    tag_73:\n        /* \"#utility.yul\":3923:3924   */\n      0x00\n        /* \"#utility.yul\":3920:3921   */\n      0x00\n        /* \"#utility.yul\":3913:3925   */\n      revert\n        /* \"#utility.yul\":3937:4117   */\n    tag_74:\n        /* \"#utility.yul\":3985:4062   */\n      0x4e487b7100000000000000000000000000000000000000000000000000000000\n        /* \"#utility.yul\":3982:3983   */\n      0x00\n        /* \"#utility.yul\":3975:4063   */\n      mstore\n        /* \"#utility.yul\":4082:4086   */\n      0x41\n        /* \"#utility.yul\":4079:4080   */\n      0x04\n        /* \"#utility.yul\":4072:4087   */\n      mstore\n        /* \"#utility.yul\":4106:4110   */\n      0x24\n        /* \"#utility.yul\":4103:4104   */\n      0x00\n        /* \"#utility.yul\":4096:4111   */\n      revert\n        /* \"#utility.yul\":4123:4404   */\n    tag_75:\n        /* \"#utility.yul\":4206:4233   */\n      tag_144\n        /* \"#utility.yul\":4228:4232   */\n      dup3\n        /* \"#utility.yul\":4206:4233   */\n      tag_65\n      jump\t// in\n    tag_144:\n        /* \"#utility.yul\":4198:4204   */\n      dup2\n        /* \"#utility.yul\":4194:4234   */\n      add\n        /* \"#utility.yul\":4336:4342   */\n      dup2\n        /* \"#utility.yul\":4324:4334   */\n      dup2\n        /* \"#utility.yul\":4321:4343   */\n      lt\n        /* \"#utility.yul\":4300:4318   */\n      0xffffffffffffffff\n        /* \"#utility.yul\":4288:4298   */\n      dup3\n        /* \"#utility.yul\":4285:4319   */\n      gt\n        /* \"#utility.yul\":4282:4344   */\n      or\n        /* \"#utility.yul\":4279:4367   */\n      iszero\n      tag_145\n      jumpi\n        /* \"#utility.yul\":4347:4365   */\n      tag_146\n      tag_74\n      jump\t// in\n    tag_146:\n        /* \"#utility.yul\":4279:4367   */\n    tag_145:\n        /* \"#utility.yul\":4387:4397   */\n      dup1\n        /* \"#utility.yul\":4383:4385   */\n      0x40\n        /* \"#utility.yul\":4376:4398   */\n      mstore\n        /* \"#utility.yul\":4166:4404   */\n      pop\n        /* \"#utility.yul\":4123:4404   */\n      pop\n      pop\n      jump\t// out\n        /* \"#utility.yul\":4410:4539   */\n    tag_76:\n        /* \"#utility.yul\":4444:4450   */\n      0x00\n        /* \"#utility.yul\":4471:4491   */\n      tag_148\n      tag_67\n      jump\t// in\n    tag_148:\n        /* \"#utility.yul\":4461:4491   */\n      swap1\n      pop\n        /* \"#utility.yul\":4500:4533   */\n      tag_149\n        /* \"#utility.yul\":4528:4532   */\n      dup3\n        /* \"#utility.yul\":4520:4526   */\n      dup3\n        /* \"#utility.yul\":4500:4533   */\n      tag_75\n      jump\t// in\n    tag_149:\n        /* \"#utility.yul\":4410:4539   */\n      swap2\n      swap1\n      pop\n      jump\t// out\n        /* \"#utility.yul\":4545:4853   */\n    tag_77:\n        /* \"#utility.yul\":4607:4611   */\n      0x00\n        /* \"#utility.yul\":4697:4715   */\n      0xffffffffffffffff\n        /* \"#utility.yul\":4689:4695   */\n      dup3\n        /* \"#utility.yul\":4686:4716   */\n      gt\n        /* \"#utility.yul\":4683:4739   */\n      iszero\n      tag_151\n      jumpi\n        /* \"#utility.yul\":4719:4737   */\n      tag_152\n      tag_74\n      jump\t// in\n    tag_152:\n        /* \"#utility.yul\":4683:4739   */\n    tag_151:\n        /* \"#utility.yul\":4757:4786   */\n      tag_153\n        /* \"#utility.yul\":4779:4785   */\n      dup3\n        /* \"#utility.yul\":4757:4786   */\n      tag_65\n      jump\t// in\n    tag_153:\n        /* \"#utility.yul\":4749:4786   */\n      swap1\n      pop\n        /* \"#utility.yul\":4841:4845   */\n      0x20\n        /* \"#utility.yul\":4835:4839   */\n      dup2\n        /* \"#utility.yul\":4831:4846   */\n      add\n        /* \"#utility.yul\":4823:4846   */\n      swap1\n      pop\n        /* \"#utility.yul\":4545:4853   */\n      swap2\n      swap1\n      pop\n      jump\t// out\n        /* \"#utility.yul\":4859:5007   */\n    tag_78:\n        /* \"#utility.yul\":4957:4963   */\n      dup3\n        /* \"#utility.yul\":4952:4955   */\n      dup2\n        /* \"#utility.yul\":4947:4950   */\n      dup4\n        /* \"#utility.yul\":4934:4964   */\n      calldatacopy\n        /* \"#utility.yul\":4998:4999   */\n      0x00\n        /* \"#utility.yul\":4989:4995   */\n      dup4\n        /* \"#utility.yul\":4984:4987   */\n      dup4\n        /* \"#utility.yul\":4980:4996   */\n      add\n        /* \"#utility.yul\":4973:5000   */\n      mstore\n        /* \"#utility.yul\":4859:5007   */\n      pop\n      pop\n      pop\n      jump\t// out\n        /* \"#utility.yul\":5013:5438   */\n    tag_79:\n        /* \"#utility.yul\":5091:5096   */\n      0x00\n        /* \"#utility.yul\":5116:5182   */\n      tag_156\n        /* \"#utility.yul\":5132:5181   */\n      tag_157\n        /* \"#utility.yul\":5174:5180   */\n      dup5\n        /* \"#utility.yul\":5132:5181   */\n      tag_77\n      jump\t// in\n    tag_157:\n        /* \"#utility.yul\":5116:5182   */\n      tag_76\n      jump\t// in\n    tag_156:\n        /* \"#utility.yul\":5107:5182   */\n      swap1\n      pop\n        /* \"#utility.yul\":5205:5211   */\n      dup3\n        /* \"#utility.yul\":5198:5203   */\n      dup2\n        /* \"#utility.yul\":5191:5212   */\n      mstore\n        /* \"#utility.yul\":5243:5247   */\n      0x20\n        /* \"#utility.yul\":5236:5241   */\n      dup2\n        /* \"#utility.yul\":5232:5248   */\n      add\n        /* \"#utility.yul\":5281:5284   */\n      dup5\n        /* \"#utility.yul\":5272:5278   */\n      dup5\n        /* \"#utility.yul\":5267:5270   */\n      dup5\n        /* \"#utility.yul\":5263:5279   */\n      add\n        /* \"#utility.yul\":5260:5285   */\n      gt\n        /* \"#utility.yul\":5257:5369   */\n      iszero\n      tag_158\n      jumpi\n        /* \"#utility.yul\":5288:5367   */\n      tag_159\n      tag_73\n      jump\t// in\n    tag_159:\n        /* \"#utility.yul\":5257:5369   */\n    tag_158:\n        /* \"#utility.yul\":5378:5432   */\n      tag_160\n        /* \"#utility.yul\":5425:5431   */\n      dup5\n        /* \"#utility.yul\":5420:5423   */\n      dup3\n        /* \"#utility.yul\":5415:5418   */\n      dup6\n        /* \"#utility.yul\":5378:5432   */\n      tag_78\n      jump\t// in\n    tag_160:\n        /* \"#utility.yul\":5097:5438   */\n      pop\n        /* \"#utility.yul\":5013:5438   */\n      swap4\n      swap3\n      pop\n      pop\n      pop\n      jump\t// out\n        /* \"#utility.yul\":5458:5798   */\n    tag_80:\n        /* \"#utility.yul\":5514:5519   */\n      0x00\n        /* \"#utility.yul\":5563:5566   */\n      dup3\n        /* \"#utility.yul\":5556:5560   */\n      0x1f\n        /* \"#utility.yul\":5548:5554   */\n      dup4\n        /* \"#utility.yul\":5544:5561   */\n      add\n        /* \"#utility.yul\":5540:5567   */\n      slt\n        /* \"#utility.yul\":5530:5652   */\n      tag_162\n      jumpi\n        /* \"#utility.yul\":5571:5650   */\n      tag_163\n      tag_72\n      jump\t// in\n    tag_163:\n        /* \"#utility.yul\":5530:5652   */\n    tag_162:\n        /* \"#utility.yul\":5688:5694   */\n      dup2\n        /* \"#utility.yul\":5675:5695   */\n      calldataload\n        /* \"#utility.yul\":5713:5792   */\n      tag_164\n        /* \"#utility.yul\":5788:5791   */\n      dup5\n        /* \"#utility.yul\":5780:5786   */\n      dup3\n        /* \"#utility.yul\":5773:5777   */\n      0x20\n        /* \"#utility.yul\":5765:5771   */\n      dup7\n        /* \"#utility.yul\":5761:5778   */\n      add\n        /* \"#utility.yul\":5713:5792   */\n      tag_79\n      jump\t// in\n    tag_164:\n        /* \"#utility.yul\":5704:5792   */\n      swap2\n      pop\n        /* \"#utility.yul\":5520:5798   */\n      pop\n        /* \"#utility.yul\":5458:5798   */\n      swap3\n      swap2\n      pop\n      pop\n      jump\t// out\n        /* \"#utility.yul\":5804:6458   */\n    tag_27:\n        /* \"#utility.yul\":5882:5888   */\n      0x00\n        /* \"#utility.yul\":5890:5896   */\n      0x00\n        /* \"#utility.yul\":5939:5941   */\n      0x40\n        /* \"#utility.yul\":5927:5936   */\n      dup4\n        /* \"#utility.yul\":5918:5925   */\n      dup6\n        /* \"#utility.yul\":5914:5937   */\n      sub\n        /* \"#utility.yul\":5910:5942   */\n      slt\n        /* \"#utility.yul\":5907:6026   */\n      iszero\n      tag_166\n      jumpi\n        /* \"#utility.yul\":5945:6024   */\n      tag_167\n      tag_68\n      jump\t// in\n    tag_167:\n        /* \"#utility.yul\":5907:6026   */\n    tag_166:\n        /* \"#utility.yul\":6065:6066   */\n      0x00\n        /* \"#utility.yul\":6090:6143   */\n      tag_168\n        /* \"#utility.yul\":6135:6142   */\n      dup6\n        /* \"#utility.yul\":6126:6132   */\n      dup3\n        /* \"#utility.yul\":6115:6124   */\n      dup7\n        /* \"#utility.yul\":6111:6133   */\n      add\n        /* \"#utility.yul\":6090:6143   */\n      tag_71\n      jump\t// in\n    tag_168:\n        /* \"#utility.yul\":6080:6143   */\n      swap3\n      pop\n        /* \"#utility.yul\":6036:6153   */\n      pop\n        /* \"#utility.yul\":6220:6222   */\n      0x20\n        /* \"#utility.yul\":6209:6218   */\n      dup4\n        /* \"#utility.yul\":6205:6223   */\n      add\n        /* \"#utility.yul\":6192:6224   */\n      calldataload\n        /* \"#utility.yul\":6251:6269   */\n      0xffffffffffffffff\n        /* \"#utility.yul\":6243:6249   */\n      dup2\n        /* \"#utility.yul\":6240:6270   */\n      gt\n        /* \"#utility.yul\":6237:6354   */\n      iszero\n      tag_169\n      jumpi\n        /* \"#utility.yul\":6273:6352   */\n      tag_170\n      tag_69\n      jump\t// in\n    tag_170:\n        /* \"#utility.yul\":6237:6354   */\n    tag_169:\n        /* \"#utility.yul\":6378:6441   */\n      tag_171\n        /* \"#utility.yul\":6433:6440   */\n      dup6\n        /* \"#utility.yul\":6424:6430   */\n      dup3\n        /* \"#utility.yul\":6413:6422   */\n      dup7\n        /* \"#utility.yul\":6409:6431   */\n      add\n        /* \"#utility.yul\":6378:6441   */\n      tag_80\n      jump\t// in\n    tag_171:\n        /* \"#utility.yul\":6368:6441   */\n      swap2\n      pop\n        /* \"#utility.yul\":6163:6451   */\n      pop\n        /* \"#utility.yul\":5804:6458   */\n      swap3\n      pop\n      swap3\n      swap1\n      pop\n      jump\t// out\n        /* \"#utility.yul\":6464:6644   */\n    tag_81:\n        /* \"#utility.yul\":6512:6589   */\n      0x4e487b7100000000000000000000000000000000000000000000000000000000\n        /* \"#utility.yul\":6509:6510   */\n      0x00\n        /* \"#utility.yul\":6502:6590   */\n      mstore\n        /* \"#utility.yul\":6609:6613   */\n      0x22\n        /* \"#utility.yul\":6606:6607   */\n      0x04\n        /* \"#utility.yul\":6599:6614   */\n      mstore\n        /* \"#utility.yul\":6633:6637   */\n      0x24\n        /* \"#utility.yul\":6630:6631   */\n      0x00\n        /* \"#utility.yul\":6623:6638   */\n      revert\n        /* \"#utility.yul\":6650:6970   */\n    tag_30:\n        /* \"#utility.yul\":6694:6700   */\n      0x00\n        /* \"#utility.yul\":6731:6732   */\n      0x02\n        /* \"#utility.yul\":6725:6729   */\n      dup3\n        /* \"#utility.yul\":6721:6733   */\n      div\n        /* \"#utility.yul\":6711:6733   */\n      swap1\n      pop\n        /* \"#utility.yul\":6778:6779   */\n      0x01\n        /* \"#utility.yul\":6772:6776   */\n      dup3\n        /* \"#utility.yul\":6768:6780   */\n      and\n        /* \"#utility.yul\":6799:6817   */\n      dup1\n        /* \"#utility.yul\":6789:6870   */\n      tag_174\n      jumpi\n        /* \"#utility.yul\":6855:6859   */\n      0x7f\n        /* \"#utility.yul\":6847:6853   */\n      dup3\n        /* \"#utility.yul\":6843:6860   */\n      and\n        /* \"#utility.yul\":6833:6860   */\n      swap2\n      pop\n        /* \"#utility.yul\":6789:6870   */\n    tag_174:\n        /* \"#utility.yul\":6917:6919   */\n      0x20\n        /* \"#utility.yul\":6909:6915   */\n      dup3\n        /* \"#utility.yul\":6906:6920   */\n      lt\n        /* \"#utility.yul\":6886:6904   */\n      dup2\n        /* \"#utility.yul\":6883:6921   */\n      sub\n        /* \"#utility.yul\":6880:6964   */\n      tag_175\n      jumpi\n        /* \"#utility.yul\":6936:6954   */\n      tag_176\n      tag_81\n      jump\t// in\n    tag_176:\n        /* \"#utility.yul\":6880:6964   */\n    tag_175:\n        /* \"#utility.yul\":6701:6970   */\n      pop\n        /* \"#utility.yul\":6650:6970   */\n      swap2\n      swap1\n      pop\n      jump\t// out\n        /* \"#utility.yul\":6976:7156   */\n    tag_82:\n        /* \"#utility.yul\":7024:7101   */\n      0x4e487b7100000000000000000000000000000000000000000000000000000000\n        /* \"#utility.yul\":7021:7022   */\n      0x00\n        /* \"#utility.yul\":7014:7102   */\n      mstore\n        /* \"#utility.yul\":7121:7125   */\n      0x11\n        /* \"#utility.yul\":7118:7119   */\n      0x04\n        /* \"#utility.yul\":7111:7126   */\n      mstore\n        /* \"#utility.yul\":7145:7149   */\n      0x24\n        /* \"#utility.yul\":7142:7143   */\n      0x00\n        /* \"#utility.yul\":7135:7150   */\n      revert\n        /* \"#utility.yul\":7162:7353   */\n    tag_38:\n        /* \"#utility.yul\":7202:7205   */\n      0x00\n        /* \"#utility.yul\":7221:7241   */\n      tag_179\n        /* \"#utility.yul\":7239:7240   */\n      dup3\n        /* \"#utility.yul\":7221:7241   */\n      tag_60\n      jump\t// in\n    tag_179:\n        /* \"#utility.yul\":7216:7241   */\n      swap2\n      pop\n        /* \"#utility.yul\":7255:7275   */\n      tag_180\n        /* \"#utility.yul\":7273:7274   */\n      dup4\n        /* \"#utility.yul\":7255:7275   */\n      tag_60\n      jump\t// in\n    tag_180:\n        /* \"#utility.yul\":7250:7275   */\n      swap3\n      pop\n        /* \"#utility.yul\":7298:7299   */\n      dup3\n        /* \"#utility.yul\":7295:7296   */\n      dup3\n        /* \"#utility.yul\":7291:7300   */\n      add\n        /* \"#utility.yul\":7284:7300   */\n      swap1\n      pop\n        /* \"#utility.yul\":7319:7322   */\n      dup1\n        /* \"#utility.yul\":7316:7317   */\n      dup3\n        /* \"#utility.yul\":7313:7323   */\n      gt\n        /* \"#utility.yul\":7310:7346   */\n      iszero\n      tag_181\n      jumpi\n        /* \"#utility.yul\":7326:7344   */\n      tag_182\n      tag_82\n      jump\t// in\n    tag_182:\n        /* \"#utility.yul\":7310:7346   */\n    tag_181:\n        /* \"#utility.yul\":7162:7353   */\n      swap3\n      swap2\n      pop\n      pop\n      jump\t// out\n        /* \"#utility.yul\":7359:7500   */\n    tag_83:\n        /* \"#utility.yul\":7408:7412   */\n      0x00\n        /* \"#utility.yul\":7431:7434   */\n      dup2\n        /* \"#utility.yul\":7423:7434   */\n      swap1\n      pop\n        /* \"#utility.yul\":7454:7457   */\n      dup2\n        /* \"#utility.yul\":7451:7452   */\n      0x00\n        /* \"#utility.yul\":7444:7458   */\n      mstore\n        /* \"#utility.yul\":7488:7492   */\n      0x20\n        /* \"#utility.yul\":7485:7486   */\n      0x00\n        /* \"#utility.yul\":7475:7493   */\n      keccak256\n        /* \"#utility.yul\":7467:7493   */\n      swap1\n      pop\n        /* \"#utility.yul\":7359:7500   */\n      swap2\n      swap1\n      pop\n      jump\t// out\n        /* \"#utility.yul\":7506:7599   */\n    tag_84:\n        /* \"#utility.yul\":7543:7549   */\n      0x00\n        /* \"#utility.yul\":7590:7592   */\n      0x20\n        /* \"#utility.yul\":7585:7587   */\n      0x1f\n        /* \"#utility.yul\":7578:7583   */\n      dup4\n        /* \"#utility.yul\":7574:7588   */\n      add\n        /* \"#utility.yul\":7570:7593   */\n      div\n        /* \"#utility.yul\":7560:7593   */\n      swap1\n      pop\n        /* \"#utility.yul\":7506:7599   */\n      swap2\n      swap1\n      pop\n      jump\t// out\n        /* \"#utility.yul\":7605:7712   */\n    tag_85:\n        /* \"#utility.yul\":7649:7657   */\n      0x00\n        /* \"#utility.yul\":7699:7704   */\n      dup3\n        /* \"#utility.yul\":7693:7697   */\n      dup3\n        /* \"#utility.yul\":7689:7705   */\n      shl\n        /* \"#utility.yul\":7668:7705   */\n      swap1\n      pop\n        /* \"#utility.yul\":7605:7712   */\n      swap3\n      swap2\n      pop\n      pop\n      jump\t// out\n        /* \"#utility.yul\":7718:8111   */\n    tag_86:\n        /* \"#utility.yul\":7787:7793   */\n      0x00\n        /* \"#utility.yul\":7837:7838   */\n      0x08\n        /* \"#utility.yul\":7825:7835   */\n      dup4\n        /* \"#utility.yul\":7821:7839   */\n      mul\n        /* \"#utility.yul\":7860:7957   */\n      tag_187\n        /* \"#utility.yul\":7890:7956   */\n      0xffffffffffffffffffffffffffffffffffffffffffffffffffffffffffffffff\n        /* \"#utility.yul\":7879:7888   */\n      dup3\n        /* \"#utility.yul\":7860:7957   */\n      tag_85\n      jump\t// in\n    tag_187:\n        /* \"#utility.yul\":7978:8017   */\n      tag_188\n        /* \"#utility.yul\":8008:8016   */\n      dup7\n        /* \"#utility.yul\":7997:8006   */\n      dup4\n        /* \"#utility.yul\":7978:8017   */\n      tag_85\n      jump\t// in\n    tag_188:\n        /* \"#utility.yul\":7966:8017   */\n      swap6\n      pop\n        /* \"#utility.yul\":8050:8054   */\n      dup1\n        /* \"#utility.yul\":8046:8055   */\n      not\n        /* \"#utility.yul\":8039:8044   */\n      dup5\n        /* \"#utility.yul\":8035:8056   */\n      and\n        /* \"#utility.yul\":8026:8056   */\n      swap4\n      pop\n        /* \"#utility.yul\":8099:8103   */\n      dup1\n        /* \"#utility.yul\":8089:8097   */\n      dup7\n        /* \"#utility.yul\":8085:8104   */\n      and\n        /* \"#utility.yul\":8078:8083   */\n      dup5\n        /* \"#utility.yul\":8075:8105   */\n      or\n        /* \"#utility.yul\":8065:8105   */\n      swap3\n      pop\n        /* \"#utility.yul\":7794:8111   */\n      pop\n      pop\n        /* \"#utility.yul\":7718:8111   */\n      swap4\n      swap3\n      pop\n      pop\n      pop\n      jump\t// out\n        /* \"#utility.yul\":8117:8177   */\n    tag_87:\n        /* \"#utility.yul\":8145:8148   */\n      0x00\n        /* \"#utility.yul\":8166:8171   */\n      dup2\n        /* \"#utility.yul\":8159:8171   */\n      swap1\n      pop\n        /* \"#utility.yul\":8117:8177   */\n      swap2\n      swap1\n      pop\n      jump\t// out\n        /* \"#utility.yul\":8183:8325   */\n    tag_88:\n        /* \"#utility.yul\":8233:8242   */\n      0x00\n        /* \"#utility.yul\":8266:8319   */\n      tag_191\n        /* \"#utility.yul\":8284:8318   */\n      tag_192\n        /* \"#utility.yul\":8293:8317   */\n      tag_193\n        /* \"#utility.yul\":8311:8316   */\n      dup5\n        /* \"#utility.yul\":8293:8317   */\n      tag_60\n      jump\t// in\n    tag_193:\n        /* \"#utility.yul\":8284:8318   */\n      tag_87\n      jump\t// in\n    tag_192:\n        /* \"#utility.yul\":8266:8319   */\n      tag_60\n      jump\t// in\n    tag_191:\n        /* \"#utility.yul\":8253:8319   */\n      swap1\n      pop\n        /* \"#utility.yul\":8183:8325   */\n      swap2\n      swap1\n      pop\n      jump\t// out\n        /* \"#utility.yul\":8331:8406   */\n    tag_89:\n        /* \"#utility.yul\":8374:8377   */\n      0x00\n        /* \"#utility.yul\":8395:8400   */\n      dup2\n        /* \"#utility.yul\":8388:8400   */\n      swap1\n      pop\n        /* \"#utility.yul\":8331:8406   */\n      swap2\n      swap1\n      pop\n      jump\t// out\n        /* \"#utility.yul\":8412:8681   */\n    tag_90:\n        /* \"#utility.yul\":8522:8561   */\n      tag_196\n        /* \"#utility.yul\":8553:8560   */\n      dup4\n        /* \"#utility.yul\":8522:8561   */\n      tag_88\n      jump\t// in\n    tag_196:\n        /* \"#utility.yul\":8583:8674   */\n      tag_197\n        /* \"#utility.yul\":8632:8673   */\n      tag_198\n        /* \"#utility.yul\":8656:8672   */\n      dup3\n        /* \"#utility.yul\":8632:8673   */\n      tag_89\n      jump\t// in\n    tag_198:\n        /* \"#utility.yul\":8624:8630   */\n      dup5\n        /* \"#utility.yul\":8617:8621   */\n      dup5\n        /* \"#utility.yul\":8611:8622   */\n      sload\n        /* \"#utility.yul\":8583:8674   */\n      tag_86\n      jump\t// in\n    tag_197:\n        /* \"#utility.yul\":8577:8581   */\n      dup3\n        /* \"#utility.yul\":8570:8675   */\n      sstore\n        /* \"#utility.yul\":8488:8681   */\n      pop\n        /* \"#utility.yul\":8412:8681   */\n      pop\n      pop\n      pop\n      jump\t// out\n        /* \"#utility.yul\":8687:8760   */\n    tag_91:\n        /* \"#utility.yul\":8732:8735   */\n      0x00\n        /* \"#utility.yul\":8753:8754   */\n      0x00\n        /* \"#utility.yul\":8746:8754   */\n      swap1\n      pop\n        /* \"#utility.yul\":8687:8760   */\n      swap1\n      jump\t// out\n        /* \"#utility.yul\":8766:8955   */\n    tag_92:\n        /* \"#utility.yul\":8843:8875   */\n      tag_201\n      tag_91\n      jump\t// in\n    tag_201:\n        /* \"#utility.yul\":8884:8949   */\n      tag_202\n        /* \"#utility.yul\":8942:8948   */\n      dup2\n        /* \"#utility.yul\":8934:8940   */\n      dup5\n        /* \"#utility.yul\":8928:8932   */\n      dup5\n        /* \"#utility.yul\":8884:8949   */\n      tag_90\n      jump\t// in\n    tag_202:\n        /* \"#utility.yul\":8819:8955   */\n      pop\n        /* \"#utility.yul\":8766:8955   */\n      pop\n      pop\n      jump\t// out\n        /* \"#utility.yul\":8961:9147   */\n    tag_93:\n        /* \"#utility.yul\":9021:9141   */\n    tag_204:\n        /* \"#utility.yul\":9038:9041   */\n      dup2\n        /* \"#utility.yul\":9031:9036   */\n      dup2\n        /* \"#utility.yul\":9028:9042   */\n      lt\n        /* \"#utility.yul\":9021:9141   */\n      iszero\n      tag_206\n      jumpi\n        /* \"#utility.yul\":9092:9131   */\n      tag_207\n        /* \"#utility.yul\":9129:9130   */\n      0x00\n        /* \"#utility.yul\":9122:9127   */\n      dup3\n        /* \"#utility.yul\":9092:9131   */\n      tag_92\n      jump\t// in\n    tag_207:\n        /* \"#utility.yul\":9065:9066   */\n      0x01\n        /* \"#utility.yul\":9058:9063   */\n      dup2\n        /* \"#utility.yul\":9054:9067   */\n      add\n        /* \"#utility.yul\":9045:9067   */\n      swap1\n      pop\n        /* \"#utility.yul\":9021:9141   */\n      jump(tag_204)\n    tag_206:\n        /* \"#utility.yul\":8961:9147   */\n      pop\n      pop\n      jump\t// out\n        /* \"#utility.yul\":9153:9696   */\n    tag_94:\n        /* \"#utility.yul\":9254:9256   */\n      0x1f\n        /* \"#utility.yul\":9249:9252   */\n      dup3\n        /* \"#utility.yul\":9246:9257   */\n      gt\n        /* \"#utility.yul\":9243:9689   */\n      iszero\n      tag_209\n      jumpi\n        /* \"#utility.yul\":9288:9326   */\n      tag_210\n        /* \"#utility.yul\":9320:9325   */\n      dup2\n        /* \"#utility.yul\":9288:9326   */\n      tag_83\n      jump\t// in\n    tag_210:\n        /* \"#utility.yul\":9372:9401   */\n      tag_211\n        /* \"#utility.yul\":9390:9400   */\n      dup5\n        /* \"#utility.yul\":9372:9401   */\n      tag_84\n      jump\t// in\n    tag_211:\n        /* \"#utility.yul\":9362:9370   */\n      dup2\n        /* \"#utility.yul\":9358:9402   */\n      add\n        /* \"#utility.yul\":9555:9557   */\n      0x20\n        /* \"#utility.yul\":9543:9553   */\n      dup6\n        /* \"#utility.yul\":9540:9558   */\n      lt\n        /* \"#utility.yul\":9537:9586   */\n      iszero\n      tag_212\n      jumpi\n        /* \"#utility.yul\":9576:9584   */\n      dup2\n        /* \"#utility.yul\":9561:9584   */\n      swap1\n      pop\n        /* \"#utility.yul\":9537:9586   */\n    tag_212:\n        /* \"#utility.yul\":9599:9679   */\n      tag_213\n        /* \"#utility.yul\":9655:9677   */\n      tag_214\n        /* \"#utility.yul\":9673:9676   */\n      dup6\n        /* \"#utility.yul\":9655:9677   */\n      tag_84\n      jump\t// in\n    tag_214:\n        /* \"#utility.yul\":9645:9653   */\n      dup4\n        /* \"#utility.yul\":9641:9678   */\n      add\n        /* \"#utility.yul\":9628:9639   */\n      dup3\n        /* \"#utility.yul\":9599:9679   */\n      tag_93\n      jump\t// in\n    tag_213:\n        /* \"#utility.yul\":9258:9689   */\n      pop\n      pop\n        /* \"#utility.yul\":9243:9689   */\n    tag_209:\n        /* \"#utility.yul\":9153:9696   */\n      pop\n      pop\n      pop\n      jump\t// out\n        /* \"#utility.yul\":9702:9819   */\n    tag_95:\n        /* \"#utility.yul\":9756:9764   */\n      0x00\n        /* \"#utility.yul\":9806:9811   */\n      dup3\n        /* \"#utility.yul\":9800:9804   */\n      dup3\n        /* \"#utility.yul\":9796:9812   */\n      shr\n        /* \"#utility.yul\":9775:9812   */\n      swap1\n      pop\n        /* \"#utility.yul\":9702:9819   */\n      swap3\n      swap2\n      pop\n      pop\n      jump\t// out\n        /* \"#utility.yul\":9825:9994   */\n    tag_96:\n        /* \"#utility.yul\":9869:9875   */\n      0x00\n        /* \"#utility.yul\":9902:9953   */\n      tag_217\n        /* \"#utility.yul\":9950:9951   */\n      0x00\n        /* \"#utility.yul\":9946:9952   */\n      not\n        /* \"#utility.yul\":9938:9943   */\n      dup5\n        /* \"#utility.yul\":9935:9936   */\n      0x08\n        /* \"#utility.yul\":9931:9944   */\n      mul\n        /* \"#utility.yul\":9902:9953   */\n      tag_95\n      jump\t// in\n    tag_217:\n        /* \"#utility.yul\":9898:9954   */\n      not\n        /* \"#utility.yul\":9983:9987   */\n      dup1\n        /* \"#utility.yul\":9977:9981   */\n      dup4\n        /* \"#utility.yul\":9973:9988   */\n      and\n        /* \"#utility.yul\":9963:9988   */\n      swap2\n      pop\n        /* \"#utility.yul\":9876:9994   */\n      pop\n        /* \"#utility.yul\":9825:9994   */\n      swap3\n      swap2\n      pop\n      pop\n      jump\t// out\n        /* \"#utility.yul\":9999:10294   */\n    tag_97:\n        /* \"#utility.yul\":10075:10079   */\n      0x00\n        /* \"#utility.yul\":10221:10250   */\n      tag_219\n        /* \"#utility.yul\":10246:10249   */\n      dup4\n        /* \"#utility.yul\":10240:10244   */\n      dup4\n        /* \"#utility.yul\":10221:10250   */\n      tag_96\n      jump\t// in\n    tag_219:\n        /* \"#utility.yul\":10213:10250   */\n      swap2\n      pop\n        /* \"#utility.yul\":10283:10286   */\n      dup3\n        /* \"#utility.yul\":10280:10281   */\n      0x02\n        /* \"#utility.yul\":10276:10287   */\n      mul\n        /* \"#utility.yul\":10270:10274   */\n      dup3\n        /* \"#utility.yul\":10267:10288   */\n      or\n        /* \"#utility.yul\":10259:10288   */\n      swap1\n      pop\n        /* \"#utility.yul\":9999:10294   */\n      swap3\n      swap2\n      pop\n      pop\n      jump\t// out\n        /* \"#utility.yul\":10299:11694   */\n    tag_55:\n        /* \"#utility.yul\":10416:10453   */\n      tag_221\n        /* \"#utility.yul\":10449:10452   */\n      dup3\n        /* \"#utility.yul\":10416:10453   */\n      tag_62\n      jump\t// in\n    tag_221:\n        /* \"#utility.yul\":10518:10536   */\n      0xffffffffffffffff\n        /* \"#utility.yul\":10510:10516   */\n      dup2\n        /* \"#utility.yul\":10507:10537   */\n      gt\n        /* \"#utility.yul\":10504:10560   */\n      iszero\n      tag_222\n      jumpi\n        /* \"#utility.yul\":10540:10558   */\n      tag_223\n      tag_74\n      jump\t// in\n    tag_223:\n        /* \"#utility.yul\":10504:10560   */\n    tag_222:\n        /* \"#utility.yul\":10584:10622   */\n      tag_224\n        /* \"#utility.yul\":10616:10620   */\n      dup3\n        /* \"#utility.yul\":10610:10621   */\n      sload\n        /* \"#utility.yul\":10584:10622   */\n      tag_30\n      jump\t// in\n    tag_224:\n        /* \"#utility.yul\":10669:10736   */\n      tag_225\n        /* \"#utility.yul\":10729:10735   */\n      dup3\n        /* \"#utility.yul\":10721:10727   */\n      dup3\n        /* \"#utility.yul\":10715:10719   */\n      dup6\n        /* \"#utility.yul\":10669:10736   */\n      tag_94\n      jump\t// in\n    tag_225:\n        /* \"#utility.yul\":10763:10764   */\n      0x00\n        /* \"#utility.yul\":10787:10791   */\n      0x20\n        /* \"#utility.yul\":10774:10791   */\n      swap1\n      pop\n        /* \"#utility.yul\":10819:10821   */\n      0x1f\n        /* \"#utility.yul\":10811:10817   */\n      dup4\n        /* \"#utility.yul\":10808:10822   */\n      gt\n        /* \"#utility.yul\":10836:10837   */\n      0x01\n        /* \"#utility.yul\":10831:11449   */\n      dup2\n      eq\n      tag_227\n      jumpi\n        /* \"#utility.yul\":11493:11494   */\n      0x00\n        /* \"#utility.yul\":11510:11516   */\n      dup5\n        /* \"#utility.yul\":11507:11584   */\n      iszero\n      tag_228\n      jumpi\n        /* \"#utility.yul\":11559:11568   */\n      dup3\n        /* \"#utility.yul\":11554:11557   */\n      dup8\n        /* \"#utility.yul\":11550:11569   */\n      add\n        /* \"#utility.yul\":11544:11570   */\n      mload\n        /* \"#utility.yul\":11535:11570   */\n      swap1\n      pop\n        /* \"#utility.yul\":11507:11584   */\n    tag_228:\n        /* \"#utility.yul\":11610:11677   */\n      tag_229\n        /* \"#utility.yul\":11670:11676   */\n      dup6\n        /* \"#utility.yul\":11663:11668   */\n      dup3\n        /* \"#utility.yul\":11610:11677   */\n      tag_97\n      jump\t// in\n    tag_229:\n        /* \"#utility.yul\":11604:11608   */\n      dup7\n        /* \"#utility.yul\":11597:11678   */\n      sstore\n        /* \"#utility.yul\":11466:11688   */\n      pop\n        /* \"#utility.yul\":10801:11688   */\n      jump(tag_226)\n        /* \"#utility.yul\":10831:11449   */\n    tag_227:\n        /* \"#utility.yul\":10883:10887   */\n      0x1f\n        /* \"#utility.yul\":10879:10888   */\n      not\n        /* \"#utility.yul\":10871:10877   */\n      dup5\n        /* \"#utility.yul\":10867:10889   */\n      and\n        /* \"#utility.yul\":10917:10954   */\n      tag_230\n        /* \"#utility.yul\":10949:10953   */\n      dup7\n        /* \"#utility.yul\":10917:10954   */\n      tag_83\n      jump\t// in\n    tag_230:\n        /* \"#utility.yul\":10976:10977   */\n      0x00\n        /* \"#utility.yul\":10990:11198   */\n    tag_231:\n        /* \"#utility.yul\":11004:11011   */\n      dup3\n        /* \"#utility.yul\":11001:11002   */\n      dup2\n        /* \"#utility.yul\":10998:11012   */\n      lt\n        /* \"#utility.yul\":10990:11198   */\n      iszero\n      tag_233\n      jumpi\n        /* \"#utility.yul\":11083:11092   */\n      dup5\n        /* \"#utility.yul\":11078:11081   */\n      dup10\n        /* \"#utility.yul\":11074:11093   */\n      add\n        /* \"#utility.yul\":11068:11094   */\n      mload\n        /* \"#utility.yul\":11060:11066   */\n      dup3\n        /* \"#utility.yul\":11053:11095   */\n      sstore\n        /* \"#utility.yul\":11134:11135   */\n      0x01\n        /* \"#utility.yul\":11126:11132   */\n      dup3\n        /* \"#utility.yul\":11122:11136   */\n      add\n        /* \"#utility.yul\":11112:11136   */\n      swap2\n      pop\n        /* \"#utility.yul\":11181:11183   */\n      0x20\n        /* \"#utility.yul\":11170:11179   */\n      dup6\n        /* \"#utility.yul\":11166:11184   */\n      add\n        /* \"#utility.yul\":11153:11184   */\n      swap5\n      pop\n        /* \"#utility.yul\":11027:11031   */\n      0x20\n        /* \"#utility.yul\":11024:11025   */\n      dup2\n        /* \"#utility.yul\":11020:11032   */\n      add\n        /* \"#utility.yul\":11015:11032   */\n      swap1\n      pop\n        /* \"#utility.yul\":10990:11198   */\n      jump(tag_231)\n    tag_233:\n        /* \"#utility.yul\":11226:11232   */\n      dup7\n        /* \"#utility.yul\":11217:11224   */\n      dup4\n        /* \"#utility.yul\":11214:11233   */\n      lt\n        /* \"#utility.yul\":11211:11390   */\n      iszero\n      tag_234\n      jumpi\n        /* \"#utility.yul\":11284:11293   */\n      dup5\n        /* \"#utility.yul\":11279:11282   */\n      dup10\n        /* \"#utility.yul\":11275:11294   */\n      add\n        /* \"#utility.yul\":11269:11295   */\n      mload\n        /* \"#utility.yul\":11327:11375   */\n      tag_235\n        /* \"#utility.yul\":11369:11373   */\n      0x1f\n        /* \"#utility.yul\":11361:11367   */\n      dup10\n        /* \"#utility.yul\":11357:11374   */\n      and\n        /* \"#utility.yul\":11346:11355   */\n      dup3\n        /* \"#utility.yul\":11327:11375   */\n      tag_96\n      jump\t// in\n    tag_235:\n        /* \"#utility.yul\":11319:11325   */\n      dup4\n        /* \"#utility.yul\":11312:11376   */\n      sstore\n        /* \"#utility.yul\":11234:11390   */\n      pop\n        /* \"#utility.yul\":11211:11390   */\n    tag_234:\n        /* \"#utility.yul\":11436:11437   */\n      0x01\n        /* \"#utility.yul\":11432:11433   */\n      0x02\n        /* \"#utility.yul\":11424:11430   */\n      dup9\n        /* \"#utility.yul\":11420:11434   */\n      mul\n        /* \"#utility.yul\":11416:11438   */\n      add\n        /* \"#utility.yul\":11410:11414   */\n      dup9\n        /* \"#utility.yul\":11403:11439   */\n      sstore\n        /* \"#utility.yul\":10838:11449   */\n      pop\n      pop\n      pop\n        /* \"#utility.yul\":10801:11688   */\n    tag_226:\n      pop\n        /* \"#utility.yul\":10391:11694   */\n      pop\n      pop\n      pop\n        /* \"#utility.yul\":10299:11694   */\n      pop\n      pop\n      jump\t// out\n\n    auxdata: 0xa264697066735822122058939d5eda4a59c65abbc125aad3b60b138052b8b1075a56fe818a1b7df6305d64736f6c634300081f0033\n}\n",
				"bytecode": {
					"linkReferences": {},
					"object": "6080604052600160025f6101000a81548160ff0219169083600281111561002957610028610080565b5b02179055505f60035534801561003d575f5ffd5b50604051610f28380380610f28833981810160405281019061005f919061022d565b815f5f0181905550805f6001019081610078919061048e565b50505061055d565b7f4e487b71000000000000000000000000000000000000000000000000000000005f52602160045260245ffd5b5f604051905090565b5f5ffd5b5f5ffd5b5f819050919050565b6100d0816100be565b81146100da575f5ffd5b50565b5f815190506100eb816100c7565b92915050565b5f5ffd5b5f5ffd5b5f601f19601f8301169050919050565b7f4e487b71000000000000000000000000000000000000000000000000000000005f52604160045260245ffd5b61013f826100f9565b810181811067ffffffffffffffff8211171561015e5761015d610109565b5b80604052505050565b5f6101706100ad565b905061017c8282610136565b919050565b5f67ffffffffffffffff82111561019b5761019a610109565b5b6101a4826100f9565b9050602081019050919050565b8281835e5f83830152505050565b5f6101d16101cc84610181565b610167565b9050828152602081018484840111156101ed576101ec6100f5565b5b6101f88482856101b1565b509392505050565b5f82601f830112610214576102136100f1565b5b81516102248482602086016101bf565b91505092915050565b5f5f60408385031215610243576102426100b6565b5b5f610250858286016100dd565b925050602083015167ffffffffffffffff811115610271576102706100ba565b5b61027d85828601610200565b9150509250929050565b5f81519050919050565b7f4e487b71000000000000000000000000000000000000000000000000000000005f52602260045260245ffd5b5f60028204905060018216806102d557607f821691505b6020821081036102e8576102e7610291565b5b50919050565b5f819050815f5260205f209050919050565b5f6020601f8301049050919050565b5f82821b905092915050565b5f6008830261034a7fffffffffffffffffffffffffffffffffffffffffffffffffffffffffffffffff8261030f565b610354868361030f565b95508019841693508086168417925050509392505050565b5f819050919050565b5f61038f61038a610385846100be565b61036c565b6100be565b9050919050565b5f819050919050565b6103a883610375565b6103bc6103b482610396565b84845461031b565b825550505050565b5f5f905090565b6103d36103c4565b6103de81848461039f565b505050565b5b81811015610401576103f65f826103cb565b6001810190506103e4565b5050565b601f82111561044657610417816102ee565b61042084610300565b8101602085101561042f578190505b61044361043b85610300565b8301826103e3565b50505b505050565b5f82821c905092915050565b5f6104665f198460080261044b565b1980831691505092915050565b5f61047e8383610457565b9150826002028217905092915050565b61049782610287565b67ffffffffffffffff8111156104b0576104af610109565b5b6104ba82546102be565b6104c5828285610405565b5f60209050601f8311600181146104f6575f84156104e4578287015190505b6104ee8582610473565b865550610555565b601f198416610504866102ee565b5f5b8281101561052b57848901518255600182019150602085019450602081019050610506565b868310156105485784890151610544601f891682610457565b8355505b6001600288020188555050505b505050505050565b6109be8061056a5f395ff3fe608060405234801561000f575f5ffd5b5060043610610055575f3560e01c806342f6487a146100595780636cc014de14610077578063a03a824714610096578063b69ef8a8146100c6578063c75226ec146100e4575b5f5ffd5b610061610100565b60405161006e9190610388565b60405180910390f35b61007f610112565b60405161008d929190610429565b60405180910390f35b6100b060048036038101906100ab9190610492565b6101a8565b6040516100bd9190610388565b60405180910390f35b6100ce6102b4565b6040516100db91906104bd565b60405180910390f35b6100fe60048036038101906100f99190610602565b6102ba565b005b60025f9054906101000a900460ff1681565b5f805f01549080600101805461012790610689565b80601f016020809104026020016040519081016040528092919081815260200182805461015390610689565b801561019e5780601f106101755761010080835404028352916020019161019e565b820191905f5260205f20905b81548152906001019060200180831161018157829003601f168201915b5050505050905082565b5f612710820361020557816003546101c091906106e6565b6003819055505f60025f6101000a81548160ff021916908360028111156101ea576101e9610315565b5b021790555060025f9054906101000a900460ff1690506102af565b5f820361025f578160035461021a91906106e6565b6003819055506002805f6101000a81548160ff0219169083600281111561024457610243610315565b5b021790555060025f9054906101000a900460ff1690506102af565b8160035461026d91906106e6565b600381905550600160025f6101000a81548160ff0219169083600281111561029857610297610315565b5b021790555060025f9054906101000a900460ff1690505b919050565b60035481565b6102c26102fc565b82815f018181525050818160200181905250805f5f820151815f015560208201518160010190816102f391906108b9565b50905050505050565b60405180604001604052805f8152602001606081525090565b7f4e487b71000000000000000000000000000000000000000000000000000000005f52602160045260245ffd5b6003811061035357610352610315565b5b50565b5f81905061036382610342565b919050565b5f61037282610356565b9050919050565b61038281610368565b82525050565b5f60208201905061039b5f830184610379565b92915050565b5f819050919050565b6103b3816103a1565b82525050565b5f81519050919050565b5f82825260208201905092915050565b8281835e5f83830152505050565b5f601f19601f8301169050919050565b5f6103fb826103b9565b61040581856103c3565b93506104158185602086016103d3565b61041e816103e1565b840191505092915050565b5f60408201905061043c5f8301856103aa565b818103602083015261044e81846103f1565b90509392505050565b5f604051905090565b5f5ffd5b5f5ffd5b610471816103a1565b811461047b575f5ffd5b50565b5f8135905061048c81610468565b92915050565b5f602082840312156104a7576104a6610460565b5b5f6104b48482850161047e565b91505092915050565b5f6020820190506104d05f8301846103aa565b92915050565b5f5ffd5b5f5ffd5b7f4e487b71000000000000000000000000000000000000000000000000000000005f52604160045260245ffd5b610514826103e1565b810181811067ffffffffffffffff82111715610533576105326104de565b5b80604052505050565b5f610545610457565b9050610551828261050b565b919050565b5f67ffffffffffffffff8211156105705761056f6104de565b5b610579826103e1565b9050602081019050919050565b828183375f83830152505050565b5f6105a66105a184610556565b61053c565b9050828152602081018484840111156105c2576105c16104da565b5b6105cd848285610586565b509392505050565b5f82601f8301126105e9576105e86104d6565b5b81356105f9848260208601610594565b91505092915050565b5f5f6040838503121561061857610617610460565b5b5f6106258582860161047e565b925050602083013567ffffffffffffffff81111561064657610645610464565b5b610652858286016105d5565b9150509250929050565b7f4e487b71000000000000000000000000000000000000000000000000000000005f52602260045260245ffd5b5f60028204905060018216806106a057607f821691505b6020821081036106b3576106b261065c565b5b50919050565b7f4e487b71000000000000000000000000000000000000000000000000000000005f52601160045260245ffd5b5f6106f0826103a1565b91506106fb836103a1565b9250828201905080821115610713576107126106b9565b5b92915050565b5f819050815f5260205f209050919050565b5f6020601f8301049050919050565b5f82821b905092915050565b5f600883026107757fffffffffffffffffffffffffffffffffffffffffffffffffffffffffffffffff8261073a565b61077f868361073a565b95508019841693508086168417925050509392505050565b5f819050919050565b5f6107ba6107b56107b0846103a1565b610797565b6103a1565b9050919050565b5f819050919050565b6107d3836107a0565b6107e76107df826107c1565b848454610746565b825550505050565b5f5f905090565b6107fe6107ef565b6108098184846107ca565b505050565b5b8181101561082c576108215f826107f6565b60018101905061080f565b5050565b601f8211156108715761084281610719565b61084b8461072b565b8101602085101561085a578190505b61086e6108668561072b565b83018261080e565b50505b505050565b5f82821c905092915050565b5f6108915f1984600802610876565b1980831691505092915050565b5f6108a98383610882565b9150826002028217905092915050565b6108c2826103b9565b67ffffffffffffffff8111156108db576108da6104de565b5b6108e58254610689565b6108f0828285610830565b5f60209050601f831160018114610921575f841561090f578287015190505b610919858261089e565b865550610980565b601f19841661092f86610719565b5f5b8281101561095657848901518255600182019150602085019450602081019050610931565b86831015610973578489015161096f601f891682610882565b8355505b6001600288020188555050505b50505050505056fea264697066735822122058939d5eda4a59c65abbc125aad3b60b138052b8b1075a56fe818a1b7df6305d64736f6c634300081f0033",
					"opcodes": "PUSH1 0x80 PUSH1 0x40 MSTORE PUSH1 0x1 PUSH1 0x2 PUSH0 PUSH2 0x100 EXP DUP2 SLOAD DUP2 PUSH1 0xFF MUL NOT AND SWAP1 DUP4 PUSH1 0x2 DUP2 GT ISZERO PUSH2 0x29 JUMPI PUSH2 0x28 PUSH2 0x80 JUMP JUMPDEST JUMPDEST MUL OR SWAP1 SSTORE POP PUSH0 PUSH1 0x3 SSTORE CALLVALUE DUP1 ISZERO PUSH2 0x3D JUMPI PUSH0 PUSH0 REVERT JUMPDEST POP PUSH1 0x40 MLOAD PUSH2 0xF28 CODESIZE SUB DUP1 PUSH2 0xF28 DUP4 CODECOPY DUP2 DUP2 ADD PUSH1 0x40 MSTORE DUP2 ADD SWAP1 PUSH2 0x5F SWAP2 SWAP1 PUSH2 0x22D JUMP JUMPDEST DUP2 PUSH0 PUSH0 ADD DUP2 SWAP1 SSTORE POP DUP1 PUSH0 PUSH1 0x1 ADD SWAP1 DUP2 PUSH2 0x78 SWAP2 SWAP1 PUSH2 0x48E JUMP JUMPDEST POP POP POP PUSH2 0x55D JUMP JUMPDEST PUSH32 0x4E487B7100000000000000000000000000000000000000000000000000000000 PUSH0 MSTORE PUSH1 0x21 PUSH1 0x4 MSTORE PUSH1 0x24 PUSH0 REVERT JUMPDEST PUSH0 PUSH1 0x40 MLOAD SWAP1 POP SWAP1 JUMP JUMPDEST PUSH0 PUSH0 REVERT JUMPDEST PUSH0 PUSH0 REVERT JUMPDEST PUSH0 DUP2 SWAP1 POP SWAP2 SWAP1 POP JUMP JUMPDEST PUSH2 0xD0 DUP2 PUSH2 0xBE JUMP JUMPDEST DUP2 EQ PUSH2 0xDA JUMPI PUSH0 PUSH0 REVERT JUMPDEST POP JUMP JUMPDEST PUSH0 DUP2 MLOAD SWAP1 POP PUSH2 0xEB DUP2 PUSH2 0xC7 JUMP JUMPDEST SWAP3 SWAP2 POP POP JUMP JUMPDEST PUSH0 PUSH0 REVERT JUMPDEST PUSH0 PUSH0 REVERT JUMPDEST PUSH0 PUSH1 0x1F NOT PUSH1 0x1F DUP4 ADD AND SWAP1 POP SWAP2 SWAP1 POP JUMP JUMPDEST PUSH32 0x4E487B7100000000000000000000000000000000000000000000000000000000 PUSH0 MSTORE PUSH1 0x41 PUSH1 0x4 MSTORE PUSH1 0x24 PUSH0 REVERT JUMPDEST PUSH2 0x13F DUP3 PUSH2 0xF9 JUMP JUMPDEST DUP2 ADD DUP2 DUP2 LT PUSH8 0xFFFFFFFFFFFFFFFF DUP3 GT OR ISZERO PUSH2 0x15E JUMPI PUSH2 0x15D PUSH2 0x109 JUMP JUMPDEST JUMPDEST DUP1 PUSH1 0x40 MSTORE POP POP POP JUMP JUMPDEST PUSH0 PUSH2 0x170 PUSH2 0xAD JUMP JUMPDEST SWAP1 POP PUSH2 0x17C DUP3 DUP3 PUSH2 0x136 JUMP JUMPDEST SWAP2 SWAP1 POP JUMP JUMPDEST PUSH0 PUSH8 0xFFFFFFFFFFFFFFFF DUP3 GT ISZERO PUSH2 0x19B JUMPI PUSH2 0x19A PUSH2 0x109 JUMP JUMPDEST JUMPDEST PUSH2 0x1A4 DUP3 PUSH2 0xF9 JUMP JUMPDEST SWAP1 POP PUSH1 0x20 DUP2 ADD SWAP1 POP SWAP2 SWAP1 POP JUMP JUMPDEST DUP3 DUP2 DUP4 MCOPY PUSH0 DUP4 DUP4 ADD MSTORE POP POP POP JUMP JUMPDEST PUSH0 PUSH2 0x1D1 PUSH2 0x1CC DUP5 PUSH2 0x181 JUMP JUMPDEST PUSH2 0x167 JUMP JUMPDEST SWAP1 POP DUP3 DUP2 MSTORE PUSH1 0x20 DUP2 ADD DUP5 DUP5 DUP5 ADD GT ISZERO PUSH2 0x1ED JUMPI PUSH2 0x1EC PUSH2 0xF5 JUMP JUMPDEST JUMPDEST PUSH2 0x1F8 DUP5 DUP3 DUP6 PUSH2 0x1B1 JUMP JUMPDEST POP SWAP4 SWAP3 POP POP POP JUMP JUMPDEST PUSH0 DUP3 PUSH1 0x1F DUP4 ADD SLT PUSH2 0x214 JUMPI PUSH2 0x213 PUSH2 0xF1 JUMP JUMPDEST JUMPDEST DUP2 MLOAD PUSH2 0x224 DUP5 DUP3 PUSH1 0x20 DUP7 ADD PUSH2 0x1BF JUMP JUMPDEST SWAP2 POP POP SWAP3 SWAP2 POP POP JUMP JUMPDEST PUSH0 PUSH0 PUSH1 0x40 DUP4 DUP6 SUB SLT ISZERO PUSH2 0x243 JUMPI PUSH2 0x242 PUSH2 0xB6 JUMP JUMPDEST JUMPDEST PUSH0 PUSH2 0x250 DUP6 DUP3 DUP7 ADD PUSH2 0xDD JUMP JUMPDEST SWAP3 POP POP PUSH1 0x20 DUP4 ADD MLOAD PUSH8 0xFFFFFFFFFFFFFFFF DUP2 GT ISZERO PUSH2 0x271 JUMPI PUSH2 0x270 PUSH2 0xBA JUMP JUMPDEST JUMPDEST PUSH2 0x27D DUP6 DUP3 DUP7 ADD PUSH2 0x200 JUMP JUMPDEST SWAP2 POP POP SWAP3 POP SWAP3 SWAP1 POP JUMP JUMPDEST PUSH0 DUP2 MLOAD SWAP1 POP SWAP2 SWAP1 POP JUMP JUMPDEST PUSH32 0x4E487B7100000000000000000000000000000000000000000000000000000000 PUSH0 MSTORE PUSH1 0x22 PUSH1 0x4 MSTORE PUSH1 0x24 PUSH0 REVERT JUMPDEST PUSH0 PUSH1 0x2 DUP3 DIV SWAP1 POP PUSH1 0x1 DUP3 AND DUP1 PUSH2 0x2D5 JUMPI PUSH1 0x7F DUP3 AND SWAP2 POP JUMPDEST PUSH1 0x20 DUP3 LT DUP2 SUB PUSH2 0x2E8 JUMPI PUSH2 0x2E7 PUSH2 0x291 JUMP JUMPDEST JUMPDEST POP SWAP2 SWAP1 POP JUMP JUMPDEST PUSH0 DUP2 SWAP1 POP DUP2 PUSH0 MSTORE PUSH1 0x20 PUSH0 KECCAK256 SWAP1 POP SWAP2 SWAP1 POP JUMP JUMPDEST PUSH0 PUSH1 0x20 PUSH1 0x1F DUP4 ADD DIV SWAP1 POP SWAP2 SWAP1 POP JUMP JUMPDEST PUSH0 DUP3 DUP3 SHL SWAP1 POP SWAP3 SWAP2 POP POP JUMP JUMPDEST PUSH0 PUSH1 0x8 DUP4 MUL PUSH2 0x34A PUSH32 0xFFFFFFFFFFFFFFFFFFFFFFFFFFFFFFFFFFFFFFFFFFFFFFFFFFFFFFFFFFFFFFFF DUP3 PUSH2 0x30F JUMP JUMPDEST PUSH2 0x354 DUP7 DUP4 PUSH2 0x30F JUMP JUMPDEST SWAP6 POP DUP1 NOT DUP5 AND SWAP4 POP DUP1 DUP7 AND DUP5 OR SWAP3 POP POP POP SWAP4 SWAP3 POP POP POP JUMP JUMPDEST PUSH0 DUP2 SWAP1 POP SWAP2 SWAP1 POP JUMP JUMPDEST PUSH0 PUSH2 0x38F PUSH2 0x38A PUSH2 0x385 DUP5 PUSH2 0xBE JUMP JUMPDEST PUSH2 0x36C JUMP JUMPDEST PUSH2 0xBE JUMP JUMPDEST SWAP1 POP SWAP2 SWAP1 POP JUMP JUMPDEST PUSH0 DUP2 SWAP1 POP SWAP2 SWAP1 POP JUMP JUMPDEST PUSH2 0x3A8 DUP4 PUSH2 0x375 JUMP JUMPDEST PUSH2 0x3BC PUSH2 0x3B4 DUP3 PUSH2 0x396 JUMP JUMPDEST DUP5 DUP5 SLOAD PUSH2 0x31B JUMP JUMPDEST DUP3 SSTORE POP POP POP POP JUMP JUMPDEST PUSH0 PUSH0 SWAP1 POP SWAP1 JUMP JUMPDEST PUSH2 0x3D3 PUSH2 0x3C4 JUMP JUMPDEST PUSH2 0x3DE DUP2 DUP5 DUP5 PUSH2 0x39F JUMP JUMPDEST POP POP POP JUMP JUMPDEST JUMPDEST DUP2 DUP2 LT ISZERO PUSH2 0x401 JUMPI PUSH2 0x3F6 PUSH0 DUP3 PUSH2 0x3CB JUMP JUMPDEST PUSH1 0x1 DUP2 ADD SWAP1 POP PUSH2 0x3E4 JUMP JUMPDEST POP POP JUMP JUMPDEST PUSH1 0x1F DUP3 GT ISZERO PUSH2 0x446 JUMPI PUSH2 0x417 DUP2 PUSH2 0x2EE JUMP JUMPDEST PUSH2 0x420 DUP5 PUSH2 0x300 JUMP JUMPDEST DUP2 ADD PUSH1 0x20 DUP6 LT ISZERO PUSH2 0x42F JUMPI DUP2 SWAP1 POP JUMPDEST PUSH2 0x443 PUSH2 0x43B DUP6 PUSH2 0x300 JUMP JUMPDEST DUP4 ADD DUP3 PUSH2 0x3E3 JUMP JUMPDEST POP POP JUMPDEST POP POP POP JUMP JUMPDEST PUSH0 DUP3 DUP3 SHR SWAP1 POP SWAP3 SWAP2 POP POP JUMP JUMPDEST PUSH0 PUSH2 0x466 PUSH0 NOT DUP5 PUSH1 0x8 MUL PUSH2 0x44B JUMP JUMPDEST NOT DUP1 DUP4 AND SWAP2 POP POP SWAP3 SWAP2 POP POP JUMP JUMPDEST PUSH0 PUSH2 0x47E DUP4 DUP4 PUSH2 0x457 JUMP JUMPDEST SWAP2 POP DUP3 PUSH1 0x2 MUL DUP3 OR SWAP1 POP SWAP3 SWAP2 POP POP JUMP JUMPDEST PUSH2 0x497 DUP3 PUSH2 0x287 JUMP JUMPDEST PUSH8 0xFFFFFFFFFFFFFFFF DUP2 GT ISZERO PUSH2 0x4B0 JUMPI PUSH2 0x4AF PUSH2 0x109 JUMP JUMPDEST JUMPDEST PUSH2 0x4BA DUP3 SLOAD PUSH2 0x2BE JUMP JUMPDEST PUSH2 0x4C5 DUP3 DUP3 DUP6 PUSH2 0x405 JUMP JUMPDEST PUSH0 PUSH1 0x20 SWAP1 POP PUSH1 0x1F DUP4 GT PUSH1 0x1 DUP2 EQ PUSH2 0x4F6 JUMPI PUSH0 DUP5 ISZERO PUSH2 0x4E4 JUMPI DUP3 DUP8 ADD MLOAD SWAP1 POP JUMPDEST PUSH2 0x4EE DUP6 DUP3 PUSH2 0x473 JUMP JUMPDEST DUP7 SSTORE POP PUSH2 0x555 JUMP JUMPDEST PUSH1 0x1F NOT DUP5 AND PUSH2 0x504 DUP7 PUSH2 0x2EE JUMP JUMPDEST PUSH0 JUMPDEST DUP3 DUP2 LT ISZERO PUSH2 0x52B JUMPI DUP5 DUP10 ADD MLOAD DUP3 SSTORE PUSH1 0x1 DUP3 ADD SWAP2 POP PUSH1 0x20 DUP6 ADD SWAP5 POP PUSH1 0x20 DUP2 ADD SWAP1 POP PUSH2 0x506 JUMP JUMPDEST DUP7 DUP4 LT ISZERO PUSH2 0x548 JUMPI DUP5 DUP10 ADD MLOAD PUSH2 0x544 PUSH1 0x1F DUP10 AND DUP3 PUSH2 0x457 JUMP JUMPDEST DUP4 SSTORE POP JUMPDEST PUSH1 0x1 PUSH1 0x2 DUP9 MUL ADD DUP9 SSTORE POP POP POP JUMPDEST POP POP POP POP POP POP JUMP JUMPDEST PUSH2 0x9BE DUP1 PUSH2 0x56A PUSH0 CODECOPY PUSH0 RETURN INVALID PUSH1 0x80 PUSH1 0x40 MSTORE CALLVALUE DUP1 ISZERO PUSH2 0xF JUMPI PUSH0 PUSH0 REVERT JUMPDEST POP PUSH1 0x4 CALLDATASIZE LT PUSH2 0x55 JUMPI PUSH0 CALLDATALOAD PUSH1 0xE0 SHR DUP1 PUSH4 0x42F6487A EQ PUSH2 0x59 JUMPI DUP1 PUSH4 0x6CC014DE EQ PUSH2 0x77 JUMPI DUP1 PUSH4 0xA03A8247 EQ PUSH2 0x96 JUMPI DUP1 PUSH4 0xB69EF8A8 EQ PUSH2 0xC6 JUMPI DUP1 PUSH4 0xC75226EC EQ PUSH2 0xE4 JUMPI JUMPDEST PUSH0 PUSH0 REVERT JUMPDEST PUSH2 0x61 PUSH2 0x100 JUMP JUMPDEST PUSH1 0x40 MLOAD PUSH2 0x6E SWAP2 SWAP1 PUSH2 0x388 JUMP JUMPDEST PUSH1 0x40 MLOAD DUP1 SWAP2 SUB SWAP1 RETURN JUMPDEST PUSH2 0x7F PUSH2 0x112 JUMP JUMPDEST PUSH1 0x40 MLOAD PUSH2 0x8D SWAP3 SWAP2 SWAP1 PUSH2 0x429 JUMP JUMPDEST PUSH1 0x40 MLOAD DUP1 SWAP2 SUB SWAP1 RETURN JUMPDEST PUSH2 0xB0 PUSH1 0x4 DUP1 CALLDATASIZE SUB DUP2 ADD SWAP1 PUSH2 0xAB SWAP2 SWAP1 PUSH2 0x492 JUMP JUMPDEST PUSH2 0x1A8 JUMP JUMPDEST PUSH1 0x40 MLOAD PUSH2 0xBD SWAP2 SWAP1 PUSH2 0x388 JUMP JUMPDEST PUSH1 0x40 MLOAD DUP1 SWAP2 SUB SWAP1 RETURN JUMPDEST PUSH2 0xCE PUSH2 0x2B4 JUMP JUMPDEST PUSH1 0x40 MLOAD PUSH2 0xDB SWAP2 SWAP1 PUSH2 0x4BD JUMP JUMPDEST PUSH1 0x40 MLOAD DUP1 SWAP2 SUB SWAP1 RETURN JUMPDEST PUSH2 0xFE PUSH1 0x4 DUP1 CALLDATASIZE SUB DUP2 ADD SWAP1 PUSH2 0xF9 SWAP2 SWAP1 PUSH2 0x602 JUMP JUMPDEST PUSH2 0x2BA JUMP JUMPDEST STOP JUMPDEST PUSH1 0x2 PUSH0 SWAP1 SLOAD SWAP1 PUSH2 0x100 EXP SWAP1 DIV PUSH1 0xFF AND DUP2 JUMP JUMPDEST PUSH0 DUP1 PUSH0 ADD SLOAD SWAP1 DUP1 PUSH1 0x1 ADD DUP1 SLOAD PUSH2 0x127 SWAP1 PUSH2 0x689 JUMP JUMPDEST DUP1 PUSH1 0x1F ADD PUSH1 0x20 DUP1 SWAP2 DIV MUL PUSH1 0x20 ADD PUSH1 0x40 MLOAD SWAP1 DUP2 ADD PUSH1 0x40 MSTORE DUP1 SWAP3 SWAP2 SWAP1 DUP2 DUP2 MSTORE PUSH1 0x20 ADD DUP3 DUP1 SLOAD PUSH2 0x153 SWAP1 PUSH2 0x689 JUMP JUMPDEST DUP1 ISZERO PUSH2 0x19E JUMPI DUP1 PUSH1 0x1F LT PUSH2 0x175 JUMPI PUSH2 0x100 DUP1 DUP4 SLOAD DIV MUL DUP4 MSTORE SWAP2 PUSH1 0x20 ADD SWAP2 PUSH2 0x19E JUMP JUMPDEST DUP3 ADD SWAP2 SWAP1 PUSH0 MSTORE PUSH1 0x20 PUSH0 KECCAK256 SWAP1 JUMPDEST DUP2 SLOAD DUP2 MSTORE SWAP1 PUSH1 0x1 ADD SWAP1 PUSH1 0x20 ADD DUP1 DUP4 GT PUSH2 0x181 JUMPI DUP3 SWAP1 SUB PUSH1 0x1F AND DUP3 ADD SWAP2 JUMPDEST POP POP POP POP POP SWAP1 POP DUP3 JUMP JUMPDEST PUSH0 PUSH2 0x2710 DUP3 SUB PUSH2 0x205 JUMPI DUP2 PUSH1 0x3 SLOAD PUSH2 0x1C0 SWAP2 SWAP1 PUSH2 0x6E6 JUMP JUMPDEST PUSH1 0x3 DUP2 SWAP1 SSTORE POP PUSH0 PUSH1 0x2 PUSH0 PUSH2 0x100 EXP DUP2 SLOAD DUP2 PUSH1 0xFF MUL NOT AND SWAP1 DUP4 PUSH1 0x2 DUP2 GT ISZERO PUSH2 0x1EA JUMPI PUSH2 0x1E9 PUSH2 0x315 JUMP JUMPDEST JUMPDEST MUL OR SWAP1 SSTORE POP PUSH1 0x2 PUSH0 SWAP1 SLOAD SWAP1 PUSH2 0x100 EXP SWAP1 DIV PUSH1 0xFF AND SWAP1 POP PUSH2 0x2AF JUMP JUMPDEST PUSH0 DUP3 SUB PUSH2 0x25F JUMPI DUP2 PUSH1 0x3 SLOAD PUSH2 0x21A SWAP2 SWAP1 PUSH2 0x6E6 JUMP JUMPDEST PUSH1 0x3 DUP2 SWAP1 SSTORE POP PUSH1 0x2 DUP1 PUSH0 PUSH2 0x100 EXP DUP2 SLOAD DUP2 PUSH1 0xFF MUL NOT AND SWAP1 DUP4 PUSH1 0x2 DUP2 GT ISZERO PUSH2 0x244 JUMPI PUSH2 0x243 PUSH2 0x315 JUMP JUMPDEST JUMPDEST MUL OR SWAP1 SSTORE POP PUSH1 0x2 PUSH0 SWAP1 SLOAD SWAP1 PUSH2 0x100 EXP SWAP1 DIV PUSH1 0xFF AND SWAP1 POP PUSH2 0x2AF JUMP JUMPDEST DUP2 PUSH1 0x3 SLOAD PUSH2 0x26D SWAP2 SWAP1 PUSH2 0x6E6 JUMP JUMPDEST PUSH1 0x3 DUP2 SWAP1 SSTORE POP PUSH1 0x1 PUSH1 0x2 PUSH0 PUSH2 0x100 EXP DUP2 SLOAD DUP2 PUSH1 0xFF MUL NOT AND SWAP1 DUP4 PUSH1 0x2 DUP2 GT ISZERO PUSH2 0x298 JUMPI PUSH2 0x297 PUSH2 0x315 JUMP JUMPDEST JUMPDEST MUL OR SWAP1 SSTORE POP PUSH1 0x2 PUSH0 SWAP1 SLOAD SWAP1 PUSH2 0x100 EXP SWAP1 DIV PUSH1 0xFF AND SWAP1 POP JUMPDEST SWAP2 SWAP1 POP JUMP JUMPDEST PUSH1 0x3 SLOAD DUP2 JUMP JUMPDEST PUSH2 0x2C2 PUSH2 0x2FC JUMP JUMPDEST DUP3 DUP2 PUSH0 ADD DUP2 DUP2 MSTORE POP POP DUP2 DUP2 PUSH1 0x20 ADD DUP2 SWAP1 MSTORE POP DUP1 PUSH0 PUSH0 DUP3 ADD MLOAD DUP2 PUSH0 ADD SSTORE PUSH1 0x20 DUP3 ADD MLOAD DUP2 PUSH1 0x1 ADD SWAP1 DUP2 PUSH2 0x2F3 SWAP2 SWAP1 PUSH2 0x8B9 JUMP JUMPDEST POP SWAP1 POP POP POP POP POP JUMP JUMPDEST PUSH1 0x40 MLOAD DUP1 PUSH1 0x40 ADD PUSH1 0x40 MSTORE DUP1 PUSH0 DUP2 MSTORE PUSH1 0x20 ADD PUSH1 0x60 DUP2 MSTORE POP SWAP1 JUMP JUMPDEST PUSH32 0x4E487B7100000000000000000000000000000000000000000000000000000000 PUSH0 MSTORE PUSH1 0x21 PUSH1 0x4 MSTORE PUSH1 0x24 PUSH0 REVERT JUMPDEST PUSH1 0x3 DUP2 LT PUSH2 0x353 JUMPI PUSH2 0x352 PUSH2 0x315 JUMP JUMPDEST JUMPDEST POP JUMP JUMPDEST PUSH0 DUP2 SWAP1 POP PUSH2 0x363 DUP3 PUSH2 0x342 JUMP JUMPDEST SWAP2 SWAP1 POP JUMP JUMPDEST PUSH0 PUSH2 0x372 DUP3 PUSH2 0x356 JUMP JUMPDEST SWAP1 POP SWAP2 SWAP1 POP JUMP JUMPDEST PUSH2 0x382 DUP2 PUSH2 0x368 JUMP JUMPDEST DUP3 MSTORE POP POP JUMP JUMPDEST PUSH0 PUSH1 0x20 DUP3 ADD SWAP1 POP PUSH2 0x39B PUSH0 DUP4 ADD DUP5 PUSH2 0x379 JUMP JUMPDEST SWAP3 SWAP2 POP POP JUMP JUMPDEST PUSH0 DUP2 SWAP1 POP SWAP2 SWAP1 POP JUMP JUMPDEST PUSH2 0x3B3 DUP2 PUSH2 0x3A1 JUMP JUMPDEST DUP3 MSTORE POP POP JUMP JUMPDEST PUSH0 DUP2 MLOAD SWAP1 POP SWAP2 SWAP1 POP JUMP JUMPDEST PUSH0 DUP3 DUP3 MSTORE PUSH1 0x20 DUP3 ADD SWAP1 POP SWAP3 SWAP2 POP POP JUMP JUMPDEST DUP3 DUP2 DUP4 MCOPY PUSH0 DUP4 DUP4 ADD MSTORE POP POP POP JUMP JUMPDEST PUSH0 PUSH1 0x1F NOT PUSH1 0x1F DUP4 ADD AND SWAP1 POP SWAP2 SWAP1 POP JUMP JUMPDEST PUSH0 PUSH2 0x3FB DUP3 PUSH2 0x3B9 JUMP JUMPDEST PUSH2 0x405 DUP2 DUP6 PUSH2 0x3C3 JUMP JUMPDEST SWAP4 POP PUSH2 0x415 DUP2 DUP6 PUSH1 0x20 DUP7 ADD PUSH2 0x3D3 JUMP JUMPDEST PUSH2 0x41E DUP2 PUSH2 0x3E1 JUMP JUMPDEST DUP5 ADD SWAP2 POP POP SWAP3 SWAP2 POP POP JUMP JUMPDEST PUSH0 PUSH1 0x40 DUP3 ADD SWAP1 POP PUSH2 0x43C PUSH0 DUP4 ADD DUP6 PUSH2 0x3AA JUMP JUMPDEST DUP2 DUP2 SUB PUSH1 0x20 DUP4 ADD MSTORE PUSH2 0x44E DUP2 DUP5 PUSH2 0x3F1 JUMP JUMPDEST SWAP1 POP SWAP4 SWAP3 POP POP POP JUMP JUMPDEST PUSH0 PUSH1 0x40 MLOAD SWAP1 POP SWAP1 JUMP JUMPDEST PUSH0 PUSH0 REVERT JUMPDEST PUSH0 PUSH0 REVERT JUMPDEST PUSH2 0x471 DUP2 PUSH2 0x3A1 JUMP JUMPDEST DUP2 EQ PUSH2 0x47B JUMPI PUSH0 PUSH0 REVERT JUMPDEST POP JUMP JUMPDEST PUSH0 DUP2 CALLDATALOAD SWAP1 POP PUSH2 0x48C DUP2 PUSH2 0x468 JUMP JUMPDEST SWAP3 SWAP2 POP POP JUMP JUMPDEST PUSH0 PUSH1 0x20 DUP3 DUP5 SUB SLT ISZERO PUSH2 0x4A7 JUMPI PUSH2 0x4A6 PUSH2 0x460 JUMP JUMPDEST JUMPDEST PUSH0 PUSH2 0x4B4 DUP5 DUP3 DUP6 ADD PUSH2 0x47E JUMP JUMPDEST SWAP2 POP POP SWAP3 SWAP2 POP POP JUMP JUMPDEST PUSH0 PUSH1 0x20 DUP3 ADD SWAP1 POP PUSH2 0x4D0 PUSH0 DUP4 ADD DUP5 PUSH2 0x3AA JUMP JUMPDEST SWAP3 SWAP2 POP POP JUMP JUMPDEST PUSH0 PUSH0 REVERT JUMPDEST PUSH0 PUSH0 REVERT JUMPDEST PUSH32 0x4E487B7100000000000000000000000000000000000000000000000000000000 PUSH0 MSTORE PUSH1 0x41 PUSH1 0x4 MSTORE PUSH1 0x24 PUSH0 REVERT JUMPDEST PUSH2 0x514 DUP3 PUSH2 0x3E1 JUMP JUMPDEST DUP2 ADD DUP2 DUP2 LT PUSH8 0xFFFFFFFFFFFFFFFF DUP3 GT OR ISZERO PUSH2 0x533 JUMPI PUSH2 0x532 PUSH2 0x4DE JUMP JUMPDEST JUMPDEST DUP1 PUSH1 0x40 MSTORE POP POP POP JUMP JUMPDEST PUSH0 PUSH2 0x545 PUSH2 0x457 JUMP JUMPDEST SWAP1 POP PUSH2 0x551 DUP3 DUP3 PUSH2 0x50B JUMP JUMPDEST SWAP2 SWAP1 POP JUMP JUMPDEST PUSH0 PUSH8 0xFFFFFFFFFFFFFFFF DUP3 GT ISZERO PUSH2 0x570 JUMPI PUSH2 0x56F PUSH2 0x4DE JUMP JUMPDEST JUMPDEST PUSH2 0x579 DUP3 PUSH2 0x3E1 JUMP JUMPDEST SWAP1 POP PUSH1 0x20 DUP2 ADD SWAP1 POP SWAP2 SWAP1 POP JUMP JUMPDEST DUP3 DUP2 DUP4 CALLDATACOPY PUSH0 DUP4 DUP4 ADD MSTORE POP POP POP JUMP JUMPDEST PUSH0 PUSH2 0x5A6 PUSH2 0x5A1 DUP5 PUSH2 0x556 JUMP JUMPDEST PUSH2 0x53C JUMP JUMPDEST SWAP1 POP DUP3 DUP2 MSTORE PUSH1 0x20 DUP2 ADD DUP5 DUP5 DUP5 ADD GT ISZERO PUSH2 0x5C2 JUMPI PUSH2 0x5C1 PUSH2 0x4DA JUMP JUMPDEST JUMPDEST PUSH2 0x5CD DUP5 DUP3 DUP6 PUSH2 0x586 JUMP JUMPDEST POP SWAP4 SWAP3 POP POP POP JUMP JUMPDEST PUSH0 DUP3 PUSH1 0x1F DUP4 ADD SLT PUSH2 0x5E9 JUMPI PUSH2 0x5E8 PUSH2 0x4D6 JUMP JUMPDEST JUMPDEST DUP2 CALLDATALOAD PUSH2 0x5F9 DUP5 DUP3 PUSH1 0x20 DUP7 ADD PUSH2 0x594 JUMP JUMPDEST SWAP2 POP POP SWAP3 SWAP2 POP POP JUMP JUMPDEST PUSH0 PUSH0 PUSH1 0x40 DUP4 DUP6 SUB SLT ISZERO PUSH2 0x618 JUMPI PUSH2 0x617 PUSH2 0x460 JUMP JUMPDEST JUMPDEST PUSH0 PUSH2 0x625 DUP6 DUP3 DUP7 ADD PUSH2 0x47E JUMP JUMPDEST SWAP3 POP POP PUSH1 0x20 DUP4 ADD CALLDATALOAD PUSH8 0xFFFFFFFFFFFFFFFF DUP2 GT ISZERO PUSH2 0x646 JUMPI PUSH2 0x645 PUSH2 0x464 JUMP JUMPDEST JUMPDEST PUSH2 0x652 DUP6 DUP3 DUP7 ADD PUSH2 0x5D5 JUMP JUMPDEST SWAP2 POP POP SWAP3 POP SWAP3 SWAP1 POP JUMP JUMPDEST PUSH32 0x4E487B7100000000000000000000000000000000000000000000000000000000 PUSH0 MSTORE PUSH1 0x22 PUSH1 0x4 MSTORE PUSH1 0x24 PUSH0 REVERT JUMPDEST PUSH0 PUSH1 0x2 DUP3 DIV SWAP1 POP PUSH1 0x1 DUP3 AND DUP1 PUSH2 0x6A0 JUMPI PUSH1 0x7F DUP3 AND SWAP2 POP JUMPDEST PUSH1 0x20 DUP3 LT DUP2 SUB PUSH2 0x6B3 JUMPI PUSH2 0x6B2 PUSH2 0x65C JUMP JUMPDEST JUMPDEST POP SWAP2 SWAP1 POP JUMP JUMPDEST PUSH32 0x4E487B7100000000000000000000000000000000000000000000000000000000 PUSH0 MSTORE PUSH1 0x11 PUSH1 0x4 MSTORE PUSH1 0x24 PUSH0 REVERT JUMPDEST PUSH0 PUSH2 0x6F0 DUP3 PUSH2 0x3A1 JUMP JUMPDEST SWAP2 POP PUSH2 0x6FB DUP4 PUSH2 0x3A1 JUMP JUMPDEST SWAP3 POP DUP3 DUP3 ADD SWAP1 POP DUP1 DUP3 GT ISZERO PUSH2 0x713 JUMPI PUSH2 0x712 PUSH2 0x6B9 JUMP JUMPDEST JUMPDEST SWAP3 SWAP2 POP POP JUMP JUMPDEST PUSH0 DUP2 SWAP1 POP DUP2 PUSH0 MSTORE PUSH1 0x20 PUSH0 KECCAK256 SWAP1 POP SWAP2 SWAP1 POP JUMP JUMPDEST PUSH0 PUSH1 0x20 PUSH1 0x1F DUP4 ADD DIV SWAP1 POP SWAP2 SWAP1 POP JUMP JUMPDEST PUSH0 DUP3 DUP3 SHL SWAP1 POP SWAP3 SWAP2 POP POP JUMP JUMPDEST PUSH0 PUSH1 0x8 DUP4 MUL PUSH2 0x775 PUSH32 0xFFFFFFFFFFFFFFFFFFFFFFFFFFFFFFFFFFFFFFFFFFFFFFFFFFFFFFFFFFFFFFFF DUP3 PUSH2 0x73A JUMP JUMPDEST PUSH2 0x77F DUP7 DUP4 PUSH2 0x73A JUMP JUMPDEST SWAP6 POP DUP1 NOT DUP5 AND SWAP4 POP DUP1 DUP7 AND DUP5 OR SWAP3 POP POP POP SWAP4 SWAP3 POP POP POP JUMP JUMPDEST PUSH0 DUP2 SWAP1 POP SWAP2 SWAP1 POP JUMP JUMPDEST PUSH0 PUSH2 0x7BA PUSH2 0x7B5 PUSH2 0x7B0 DUP5 PUSH2 0x3A1 JUMP JUMPDEST PUSH2 0x797 JUMP JUMPDEST PUSH2 0x3A1 JUMP JUMPDEST SWAP1 POP SWAP2 SWAP1 POP JUMP JUMPDEST PUSH0 DUP2 SWAP1 POP SWAP2 SWAP1 POP JUMP JUMPDEST PUSH2 0x7D3 DUP4 PUSH2 0x7A0 JUMP JUMPDEST PUSH2 0x7E7 PUSH2 0x7DF DUP3 PUSH2 0x7C1 JUMP JUMPDEST DUP5 DUP5 SLOAD PUSH2 0x746 JUMP JUMPDEST DUP3 SSTORE POP POP POP POP JUMP JUMPDEST PUSH0 PUSH0 SWAP1 POP SWAP1 JUMP JUMPDEST PUSH2 0x7FE PUSH2 0x7EF JUMP JUMPDEST PUSH2 0x809 DUP2 DUP5 DUP5 PUSH2 0x7CA JUMP JUMPDEST POP POP POP JUMP JUMPDEST JUMPDEST DUP2 DUP2 LT ISZERO PUSH2 0x82C JUMPI PUSH2 0x821 PUSH0 DUP3 PUSH2 0x7F6 JUMP JUMPDEST PUSH1 0x1 DUP2 ADD SWAP1 POP PUSH2 0x80F JUMP JUMPDEST POP POP JUMP JUMPDEST PUSH1 0x1F DUP3 GT ISZERO PUSH2 0x871 JUMPI PUSH2 0x842 DUP2 PUSH2 0x719 JUMP JUMPDEST PUSH2 0x84B DUP5 PUSH2 0x72B JUMP JUMPDEST DUP2 ADD PUSH1 0x20 DUP6 LT ISZERO PUSH2 0x85A JUMPI DUP2 SWAP1 POP JUMPDEST PUSH2 0x86E PUSH2 0x866 DUP6 PUSH2 0x72B JUMP JUMPDEST DUP4 ADD DUP3 PUSH2 0x80E JUMP JUMPDEST POP POP JUMPDEST POP POP POP JUMP JUMPDEST PUSH0 DUP3 DUP3 SHR SWAP1 POP SWAP3 SWAP2 POP POP JUMP JUMPDEST PUSH0 PUSH2 0x891 PUSH0 NOT DUP5 PUSH1 0x8 MUL PUSH2 0x876 JUMP JUMPDEST NOT DUP1 DUP4 AND SWAP2 POP POP SWAP3 SWAP2 POP POP JUMP JUMPDEST PUSH0 PUSH2 0x8A9 DUP4 DUP4 PUSH2 0x882 JUMP JUMPDEST SWAP2 POP DUP3 PUSH1 0x2 MUL DUP3 OR SWAP1 POP SWAP3 SWAP2 POP POP JUMP JUMPDEST PUSH2 0x8C2 DUP3 PUSH2 0x3B9 JUMP JUMPDEST PUSH8 0xFFFFFFFFFFFFFFFF DUP2 GT ISZERO PUSH2 0x8DB JUMPI PUSH2 0x8DA PUSH2 0x4DE JUMP JUMPDEST JUMPDEST PUSH2 0x8E5 DUP3 SLOAD PUSH2 0x689 JUMP JUMPDEST PUSH2 0x8F0 DUP3 DUP3 DUP6 PUSH2 0x830 JUMP JUMPDEST PUSH0 PUSH1 0x20 SWAP1 POP PUSH1 0x1F DUP4 GT PUSH1 0x1 DUP2 EQ PUSH2 0x921 JUMPI PUSH0 DUP5 ISZERO PUSH2 0x90F JUMPI DUP3 DUP8 ADD MLOAD SWAP1 POP JUMPDEST PUSH2 0x919 DUP6 DUP3 PUSH2 0x89E JUMP JUMPDEST DUP7 SSTORE POP PUSH2 0x980 JUMP JUMPDEST PUSH1 0x1F NOT DUP5 AND PUSH2 0x92F DUP7 PUSH2 0x719 JUMP JUMPDEST PUSH0 JUMPDEST DUP3 DUP2 LT ISZERO PUSH2 0x956 JUMPI DUP5 DUP10 ADD MLOAD DUP3 SSTORE PUSH1 0x1 DUP3 ADD SWAP2 POP PUSH1 0x20 DUP6 ADD SWAP5 POP PUSH1 0x20 DUP2 ADD SWAP1 POP PUSH2 0x931 JUMP JUMPDEST DUP7 DUP4 LT ISZERO PUSH2 0x973 JUMPI DUP5 DUP10 ADD MLOAD PUSH2 0x96F PUSH1 0x1F DUP10 AND DUP3 PUSH2 0x882 JUMP JUMPDEST DUP4 SSTORE POP JUMPDEST PUSH1 0x1 PUSH1 0x2 DUP9 MUL ADD DUP9 SSTORE POP POP POP JUMPDEST POP POP POP POP POP POP JUMP INVALID LOG2 PUSH5 0x6970667358 0x22 SLT KECCAK256 PC SWAP4 SWAP14 MCOPY 0xDA BLOBBASEFEE MSIZE 0xC6 GAS 0xBB 0xC1 0x25 0xAA 0xD3 0xB6 SIGNEXTEND SGT DUP1 MSTORE 0xB8 0xB1 SMOD GAS JUMP INVALID DUP2 DUP11 SHL PUSH30 0xF6305D64736F6C634300081F003300000000000000000000000000000000 "
				},
				"gasEstimates": {
					"creation": {
						"codeDepositCost": "498800",
						"executionCost": "infinite",
						"totalCost": "infinite"
					},
					"external": {
						"balance()": "2469",
						"change(uint256,string)": "infinite",
						"payment()": "2532",
						"s1()": "infinite",
						"updatePayment(uint256)": "infinite"
					}
				},
				"methodIdentifiers": {
					"balance()": "b69ef8a8",
					"change(uint256,string)": "c75226ec",
					"payment()": "42f6487a",
					"s1()": "6cc014de",
					"updatePayment(uint256)": "a03a8247"
				}
			},
			"storageLayout": {
				"storage": [
					{
						"astId": 9,
						"contract": "sixth1.sol:advance",
						"label": "s1",
						"offset": 0,
						"slot": "0",
						"type": "t_struct(Student)6_storage"
					},
					{
						"astId": 66,
						"contract": "sixth1.sol:advance",
						"label": "payment",
						"offset": 0,
						"slot": "2",
						"type": "t_enum(Status)61"
					},
					{
						"astId": 69,
						"contract": "sixth1.sol:advance",
						"label": "balance",
						"offset": 0,
						"slot": "3",
						"type": "t_uint256"
					}
				],
				"types": {
					"t_enum(Status)61": {
						"encoding": "inplace",
						"label": "enum advance.Status",
						"numberOfBytes": "1"
					},
					"t_string_storage": {
						"encoding": "bytes",
						"label": "string",
						"numberOfBytes": "32"
					},
					"t_struct(Student)6_storage": {
						"encoding": "inplace",
						"label": "struct Student",
						"members": [
							{
								"astId": 3,
								"contract": "sixth1.sol:advance",
								"label": "uid",
								"offset": 0,
								"slot": "0",
								"type": "t_uint256"
							},
							{
								"astId": 5,
								"contract": "sixth1.sol:advance",
								"label": "name",
								"offset": 0,
								"slot": "1",
								"type": "t_string_storage"
							}
						],
						"numberOfBytes": "64"
					},
					"t_uint256": {
						"encoding": "inplace",
						"label": "uint256",
						"numberOfBytes": "32"
					}
				}
			},
			"userdoc": {
				"kind": "user",
				"methods": {},
				"version": 1
			}
		}
	}
}