{
	"data": {
		"bytecode": {
			"linkReferences": {},
			"object": "60806040526040518060a00160405280600a60ff168152602001601460ff168152602001601e60ff168152602001602860ff168152602001603260ff168152505f90600561004e9291906100f7565b506040518060e001604052807fffffffffffffffffffffffffffffffffffffffffffffffffffffffffffffffff5f0b815260200160025f0b815260200160035f0b815260200160045f0b815260200160055f0b81526020017ffffffffffffffffffffffffffffffffffffffffffffffffffffffffffffffffa5f0b815260200160075f0b81525060059060076100e592919061013c565b503480156100f1575f5ffd5b506101b6565b826005810192821561012b579160200282015b8281111561012a578251829060ff1690559160200191906001019061010a565b5b5090506101389190610180565b5090565b826007810192821561016f579160200282015b8281111561016e57825182905f0b90559160200191906001019061014f565b5b50905061017c919061019b565b5090565b5b80821115610197575f815f905550600101610181565b5090565b5b808211156101b2575f815f90555060010161019c565b5090565b610553806101c35f395ff3fe608060405234801561000f575f5ffd5b5060043610610060575f3560e01c80630687a937146100645780636db932ab146100805780638105d4071461008a578063abc9378f146100ba578063af0b4b4e146100d8578063fb8cbced146100f6575b5f5ffd5b61007e60048036038101906100799190610282565b610114565b005b61008861013d565b005b6100a4600480360381019061009f91906102e0565b610164565b6040516100b1919061031a565b60405180910390f35b6100c261017d565b6040516100cf91906103ea565b60405180910390f35b6100e06101d3565b6040516100ed9190610419565b60405180910390f35b6100fe6101df565b60405161010b91906104d7565b60405180910390f35b600c81908060018154018082558091505060019003905f5260205f20015f909190919091505550565b600c80548061014f5761014e6104f0565b5b600190038181905f5260205f20015f90559055565b60058160078110610173575f80fd5b015f915090505481565b6060600c8054806020026020016040519081016040528092919081815260200182805480156101c957602002820191905f5260205f20905b8154815260200190600101908083116101b5575b5050505050905090565b5f600c80549050905090565b6101e7610229565b5f60058060200260405190810160405280929190826005801561021f576020028201915b81548152602001906001019080831161020b575b5050505050905090565b6040518060a00160405280600590602082028036833780820191505090505090565b5f5ffd5b5f819050919050565b6102618161024f565b811461026b575f5ffd5b50565b5f8135905061027c81610258565b92915050565b5f602082840312156102975761029661024b565b5b5f6102a48482850161026e565b91505092915050565b5f819050919050565b6102bf816102ad565b81146102c9575f5ffd5b50565b5f813590506102da816102b6565b92915050565b5f602082840312156102f5576102f461024b565b5b5f610302848285016102cc565b91505092915050565b6103148161024f565b82525050565b5f60208201905061032d5f83018461030b565b92915050565b5f81519050919050565b5f82825260208201905092915050565b5f819050602082019050919050565b6103658161024f565b82525050565b5f610376838361035c565b60208301905092915050565b5f602082019050919050565b5f61039882610333565b6103a2818561033d565b93506103ad8361034d565b805f5b838110156103dd5781516103c4888261036b565b97506103cf83610382565b9250506001810190506103b0565b5085935050505092915050565b5f6020820190508181035f830152610402818461038e565b905092915050565b610413816102ad565b82525050565b5f60208201905061042c5f83018461040a565b92915050565b5f60059050919050565b5f81905092915050565b5f819050919050565b610458816102ad565b82525050565b5f610469838361044f565b60208301905092915050565b5f602082019050919050565b61048a81610432565b610494818461043c565b925061049f82610446565b805f5b838110156104cf5781516104b6878261045e565b96506104c183610475565b9250506001810190506104a2565b505050505050565b5f60a0820190506104ea5f830184610481565b92915050565b7f4e487b71000000000000000000000000000000000000000000000000000000005f52603160045260245ffdfea2646970667358221220d87a0eac826a8d099e1311ba73782df5b55fee23dc30bc2a2b6ccfdeaaf3287364736f6c634300081f0033",
			"opcodes": "PUSH1 0x80 PUSH1 0x40 MSTORE PUSH1 0x40 MLOAD DUP1 PUSH1 0xA0 ADD PUSH1 0x40 MSTORE DUP1 PUSH1 0xA PUSH1 0xFF AND DUP2 MSTORE PUSH1 0x20 ADD PUSH1 0x14 PUSH1 0xFF AND DUP2 MSTORE PUSH1 0x20 ADD PUSH1 0x1E PUSH1 0xFF AND DUP2 MSTORE PUSH1 0x20 ADD PUSH1 0x28 PUSH1 0xFF AND DUP2 MSTORE PUSH1 0x20 ADD PUSH1 0x32 PUSH1 0xFF AND DUP2 MSTORE POP PUSH0 SWAP1 PUSH1 0x5 PUSH2 0x4E SWAP3 SWAP2 SWAP1 PUSH2 0xF7 JUMP JUMPDEST POP PUSH1 0x40 MLOAD DUP1 PUSH1 0xE0 ADD PUSH1 0x40 MSTORE DUP1 PUSH32 0xFFFFFFFFFFFFFFFFFFFFFFFFFFFFFFFFFFFFFFFFFFFFFFFFFFFFFFFFFFFFFFFF PUSH0 SIGNEXTEND DUP2 MSTORE PUSH1 0x20 ADD PUSH1 0x2 PUSH0 SIGNEXTEND DUP2 MSTORE PUSH1 0x20 ADD PUSH1 0x3 PUSH0 SIGNEXTEND DUP2 MSTORE PUSH1 0x20 ADD PUSH1 0x4 PUSH0 SIGNEXTEND DUP2 MSTORE PUSH1 0x20 ADD PUSH1 0x5 PUSH0 SIGNEXTEND DUP2 MSTORE PUSH1 0x20 ADD PUSH32 0xFFFFFFFFFFFFFFFFFFFFFFFFFFFFFFFFFFFFFFFFFFFFFFFFFFFFFFFFFFFFFFFA PUSH0 SIGNEXTEND DUP2 MSTORE PUSH1 0x20 ADD PUSH1 0x7 PUSH0 SIGNEXTEND DUP2 MSTORE POP PUSH1 0x5 SWAP1 PUSH1 0x7 PUSH2 0xE5 SWAP3 SWAP2 SWAP1 PUSH2 0x13C JUMP JUMPDEST POP CALLVALUE DUP1 ISZERO PUSH2 0xF1 JUMPI PUSH0 PUSH0 REVERT JUMPDEST POP PUSH2 0x1B6 JUMP JUMPDEST DUP3 PUSH1 0x5 DUP2 ADD SWAP3 DUP3 ISZERO PUSH2 0x12B JUMPI SWAP2 PUSH1 0x20 MUL DUP3 ADD JUMPDEST DUP3 DUP2 GT ISZERO PUSH2 0x12A JUMPI DUP3 MLOAD DUP3 SWAP1 PUSH1 0xFF AND SWAP1 SSTORE SWAP2 PUSH1 0x20 ADD SWAP2 SWAP1 PUSH1 0x1 ADD SWAP1 PUSH2 0x10A JUMP JUMPDEST JUMPDEST POP SWAP1 POP PUSH2 0x138 SWAP2 SWAP1 PUSH2 0x180 JUMP JUMPDEST POP SWAP1 JUMP JUMPDEST DUP3 PUSH1 0x7 DUP2 ADD SWAP3 DUP3 ISZERO PUSH2 0x16F JUMPI SWAP2 PUSH1 0x20 MUL DUP3 ADD JUMPDEST DUP3 DUP2 GT ISZERO PUSH2 0x16E JUMPI DUP3 MLOAD DUP3 SWAP1 PUSH0 SIGNEXTEND SWAP1 SSTORE SWAP2 PUSH1 0x20 ADD SWAP2 SWAP1 PUSH1 0x1 ADD SWAP1 PUSH2 0x14F JUMP JUMPDEST JUMPDEST POP SWAP1 POP PUSH2 0x17C SWAP2 SWAP1 PUSH2 0x19B JUMP JUMPDEST POP SWAP1 JUMP JUMPDEST JUMPDEST DUP1 DUP3 GT ISZERO PUSH2 0x197 JUMPI PUSH0 DUP2 PUSH0 SWAP1 SSTORE POP PUSH1 0x1 ADD PUSH2 0x181 JUMP JUMPDEST POP SWAP1 JUMP JUMPDEST JUMPDEST DUP1 DUP3 GT ISZERO PUSH2 0x1B2 JUMPI PUSH0 DUP2 PUSH0 SWAP1 SSTORE POP PUSH1 0x1 ADD PUSH2 0x19C JUMP JUMPDEST POP SWAP1 JUMP JUMPDEST PUSH2 0x553 DUP1 PUSH2 0x1C3 PUSH0 CODECOPY PUSH0 RETURN INVALID PUSH1 0x80 PUSH1 0x40 MSTORE CALLVALUE DUP1 ISZERO PUSH2 0xF JUMPI PUSH0 PUSH0 REVERT JUMPDEST POP PUSH1 0x4 CALLDATASIZE LT PUSH2 0x60 JUMPI PUSH0 CALLDATALOAD PUSH1 0xE0 SHR DUP1 PUSH4 0x687A937 EQ PUSH2 0x64 JUMPI DUP1 PUSH4 0x6DB932AB EQ PUSH2 0x80 JUMPI DUP1 PUSH4 0x8105D407 EQ PUSH2 0x8A JUMPI DUP1 PUSH4 0xABC9378F EQ PUSH2 0xBA JUMPI DUP1 PUSH4 0xAF0B4B4E EQ PUSH2 0xD8 JUMPI DUP1 PUSH4 0xFB8CBCED EQ PUSH2 0xF6 JUMPI JUMPDEST PUSH0 PUSH0 REVERT JUMPDEST PUSH2 0x7E PUSH1 0x4 DUP1 CALLDATASIZE SUB DUP2 ADD SWAP1 PUSH2 0x79 SWAP2 SWAP1 PUSH2 0x282 JUMP JUMPDEST PUSH2 0x114 JUMP JUMPDEST STOP JUMPDEST PUSH2 0x88 PUSH2 0x13D JUMP JUMPDEST STOP JUMPDEST PUSH2 0xA4 PUSH1 0x4 DUP1 CALLDATASIZE SUB DUP2 ADD SWAP1 PUSH2 0x9F SWAP2 SWAP1 PUSH2 0x2E0 JUMP JUMPDEST PUSH2 0x164 JUMP JUMPDEST PUSH1 0x40 MLOAD PUSH2 0xB1 SWAP2 SWAP1 PUSH2 0x31A JUMP JUMPDEST PUSH1 0x40 MLOAD DUP1 SWAP2 SUB SWAP1 RETURN JUMPDEST PUSH2 0xC2 PUSH2 0x17D JUMP JUMPDEST PUSH1 0x40 MLOAD PUSH2 0xCF SWAP2 SWAP1 PUSH2 0x3EA JUMP JUMPDEST PUSH1 0x40 MLOAD DUP1 SWAP2 SUB SWAP1 RETURN JUMPDEST PUSH2 0xE0 PUSH2 0x1D3 JUMP JUMPDEST PUSH1 0x40 MLOAD PUSH2 0xED SWAP2 SWAP1 PUSH2 0x419 JUMP JUMPDEST PUSH1 0x40 MLOAD DUP1 SWAP2 SUB SWAP1 RETURN JUMPDEST PUSH2 0xFE PUSH2 0x1DF JUMP JUMPDEST PUSH1 0x40 MLOAD PUSH2 0x10B SWAP2 SWAP1 PUSH2 0x4D7 JUMP JUMPDEST PUSH1 0x40 MLOAD DUP1 SWAP2 SUB SWAP1 RETURN JUMPDEST PUSH1 0xC DUP2 SWAP1 DUP1 PUSH1 0x1 DUP2 SLOAD ADD DUP1 DUP3 SSTORE DUP1 SWAP2 POP POP PUSH1 0x1 SWAP1 SUB SWAP1 PUSH0 MSTORE PUSH1 0x20 PUSH0 KECCAK256 ADD PUSH0 SWAP1 SWAP2 SWAP1 SWAP2 SWAP1 SWAP2 POP SSTORE POP JUMP JUMPDEST PUSH1 0xC DUP1 SLOAD DUP1 PUSH2 0x14F JUMPI PUSH2 0x14E PUSH2 0x4F0 JUMP JUMPDEST JUMPDEST PUSH1 0x1 SWAP1 SUB DUP2 DUP2 SWAP1 PUSH0 MSTORE PUSH1 0x20 PUSH0 KECCAK256 ADD PUSH0 SWAP1 SSTORE SWAP1 SSTORE JUMP JUMPDEST PUSH1 0x5 DUP2 PUSH1 0x7 DUP2 LT PUSH2 0x173 JUMPI PUSH0 DUP1 REVERT JUMPDEST ADD PUSH0 SWAP2 POP SWAP1 POP SLOAD DUP2 JUMP JUMPDEST PUSH1 0x60 PUSH1 0xC DUP1 SLOAD DUP1 PUSH1 0x20 MUL PUSH1 0x20 ADD PUSH1 0x40 MLOAD SWAP1 DUP2 ADD PUSH1 0x40 MSTORE DUP1 SWAP3 SWAP2 SWAP1 DUP2 DUP2 MSTORE PUSH1 0x20 ADD DUP3 DUP1 SLOAD DUP1 ISZERO PUSH2 0x1C9 JUMPI PUSH1 0x20 MUL DUP3 ADD SWAP2 SWAP1 PUSH0 MSTORE PUSH1 0x20 PUSH0 KECCAK256 SWAP1 JUMPDEST DUP2 SLOAD DUP2 MSTORE PUSH1 0x20 ADD SWAP1 PUSH1 0x1 ADD SWAP1 DUP1 DUP4 GT PUSH2 0x1B5 JUMPI JUMPDEST POP POP POP POP POP SWAP1 POP SWAP1 JUMP JUMPDEST PUSH0 PUSH1 0xC DUP1 SLOAD SWAP1 POP SWAP1 POP SWAP1 JUMP JUMPDEST PUSH2 0x1E7 PUSH2 0x229 JUMP JUMPDEST PUSH0 PUSH1 0x5 DUP1 PUSH1 0x20 MUL PUSH1 0x40 MLOAD SWAP1 DUP2 ADD PUSH1 0x40 MSTORE DUP1 SWAP3 SWAP2 SWAP1 DUP3 PUSH1 0x5 DUP1 ISZERO PUSH2 0x21F JUMPI PUSH1 0x20 MUL DUP3 ADD SWAP2 JUMPDEST DUP2 SLOAD DUP2 MSTORE PUSH1 0x20 ADD SWAP1 PUSH1 0x1 ADD SWAP1 DUP1 DUP4 GT PUSH2 0x20B JUMPI JUMPDEST POP POP POP POP POP SWAP1 POP SWAP1 JUMP JUMPDEST PUSH1 0x40 MLOAD DUP1 PUSH1 0xA0 ADD PUSH1 0x40 MSTORE DUP1 PUSH1 0x5 SWAP1 PUSH1 0x20 DUP3 MUL DUP1 CALLDATASIZE DUP4 CALLDATACOPY DUP1 DUP3 ADD SWAP2 POP POP SWAP1 POP POP SWAP1 JUMP JUMPDEST PUSH0 PUSH0 REVERT JUMPDEST PUSH0 DUP2 SWAP1 POP SWAP2 SWAP1 POP JUMP JUMPDEST PUSH2 0x261 DUP2 PUSH2 0x24F JUMP JUMPDEST DUP2 EQ PUSH2 0x26B JUMPI PUSH0 PUSH0 REVERT JUMPDEST POP JUMP JUMPDEST PUSH0 DUP2 CALLDATALOAD SWAP1 POP PUSH2 0x27C DUP2 PUSH2 0x258 JUMP JUMPDEST SWAP3 SWAP2 POP POP JUMP JUMPDEST PUSH0 PUSH1 0x20 DUP3 DUP5 SUB SLT ISZERO PUSH2 0x297 JUMPI PUSH2 0x296 PUSH2 0x24B JUMP JUMPDEST JUMPDEST PUSH0 PUSH2 0x2A4 DUP5 DUP3 DUP6 ADD PUSH2 0x26E JUMP JUMPDEST SWAP2 POP POP SWAP3 SWAP2 POP POP JUMP JUMPDEST PUSH0 DUP2 SWAP1 POP SWAP2 SWAP1 POP JUMP JUMPDEST PUSH2 0x2BF DUP2 PUSH2 0x2AD JUMP JUMPDEST DUP2 EQ PUSH2 0x2C9 JUMPI PUSH0 PUSH0 REVERT JUMPDEST POP JUMP JUMPDEST PUSH0 DUP2 CALLDATALOAD SWAP1 POP PUSH2 0x2DA DUP2 PUSH2 0x2B6 JUMP JUMPDEST SWAP3 SWAP2 POP POP JUMP JUMPDEST PUSH0 PUSH1 0x20 DUP3 DUP5 SUB SLT ISZERO PUSH2 0x2F5 JUMPI PUSH2 0x2F4 PUSH2 0x24B JUMP JUMPDEST JUMPDEST PUSH0 PUSH2 0x302 DUP5 DUP3 DUP6 ADD PUSH2 0x2CC JUMP JUMPDEST SWAP2 POP POP SWAP3 SWAP2 POP POP JUMP JUMPDEST PUSH2 0x314 DUP2 PUSH2 0x24F JUMP JUMPDEST DUP3 MSTORE POP POP JUMP JUMPDEST PUSH0 PUSH1 0x20 DUP3 ADD SWAP1 POP PUSH2 0x32D PUSH0 DUP4 ADD DUP5 PUSH2 0x30B JUMP JUMPDEST SWAP3 SWAP2 POP POP JUMP JUMPDEST PUSH0 DUP2 MLOAD SWAP1 POP SWAP2 SWAP1 POP JUMP JUMPDEST PUSH0 DUP3 DUP3 MSTORE PUSH1 0x20 DUP3 ADD SWAP1 POP SWAP3 SWAP2 POP POP JUMP JUMPDEST PUSH0 DUP2 SWAP1 POP PUSH1 0x20 DUP3 ADD SWAP1 POP SWAP2 SWAP1 POP JUMP JUMPDEST PUSH2 0x365 DUP2 PUSH2 0x24F JUMP JUMPDEST DUP3 MSTORE POP POP JUMP JUMPDEST PUSH0 PUSH2 0x376 DUP4 DUP4 PUSH2 0x35C JUMP JUMPDEST PUSH1 0x20 DUP4 ADD SWAP1 POP SWAP3 SWAP2 POP POP JUMP JUMPDEST PUSH0 PUSH1 0x20 DUP3 ADD SWAP1 POP SWAP2 SWAP1 POP JUMP JUMPDEST PUSH0 PUSH2 0x398 DUP3 PUSH2 0x333 JUMP JUMPDEST PUSH2 0x3A2 DUP2 DUP6 PUSH2 0x33D JUMP JUMPDEST SWAP4 POP PUSH2 0x3AD DUP4 PUSH2 0x34D JUMP JUMPDEST DUP1 PUSH0 JUMPDEST DUP4 DUP2 LT ISZERO PUSH2 0x3DD JUMPI DUP2 MLOAD PUSH2 0x3C4 DUP9 DUP3 PUSH2 0x36B JUMP JUMPDEST SWAP8 POP PUSH2 0x3CF DUP4 PUSH2 0x382 JUMP JUMPDEST SWAP3 POP POP PUSH1 0x1 DUP2 ADD SWAP1 POP PUSH2 0x3B0 JUMP JUMPDEST POP DUP6 SWAP4 POP POP POP POP SWAP3 SWAP2 POP POP JUMP JUMPDEST PUSH0 PUSH1 0x20 DUP3 ADD SWAP1 POP DUP2 DUP2 SUB PUSH0 DUP4 ADD MSTORE PUSH2 0x402 DUP2 DUP5 PUSH2 0x38E JUMP JUMPDEST SWAP1 POP SWAP3 SWAP2 POP POP JUMP JUMPDEST PUSH2 0x413 DUP2 PUSH2 0x2AD JUMP JUMPDEST DUP3 MSTORE POP POP JUMP JUMPDEST PUSH0 PUSH1 0x20 DUP3 ADD SWAP1 POP PUSH2 0x42C PUSH0 DUP4 ADD DUP5 PUSH2 0x40A JUMP JUMPDEST SWAP3 SWAP2 POP POP JUMP JUMPDEST PUSH0 PUSH1 0x5 SWAP1 POP SWAP2 SWAP1 POP JUMP JUMPDEST PUSH0 DUP2 SWAP1 POP SWAP3 SWAP2 POP POP JUMP JUMPDEST PUSH0 DUP2 SWAP1 POP SWAP2 SWAP1 POP JUMP JUMPDEST PUSH2 0x458 DUP2 PUSH2 0x2AD JUMP JUMPDEST DUP3 MSTORE POP POP JUMP JUMPDEST PUSH0 PUSH2 0x469 DUP4 DUP4 PUSH2 0x44F JUMP JUMPDEST PUSH1 0x20 DUP4 ADD SWAP1 POP SWAP3 SWAP2 POP POP JUMP JUMPDEST PUSH0 PUSH1 0x20 DUP3 ADD SWAP1 POP SWAP2 SWAP1 POP JUMP JUMPDEST PUSH2 0x48A DUP2 PUSH2 0x432 JUMP JUMPDEST PUSH2 0x494 DUP2 DUP5 PUSH2 0x43C JUMP JUMPDEST SWAP3 POP PUSH2 0x49F DUP3 PUSH2 0x446 JUMP JUMPDEST DUP1 PUSH0 JUMPDEST DUP4 DUP2 LT ISZERO PUSH2 0x4CF JUMPI DUP2 MLOAD PUSH2 0x4B6 DUP8 DUP3 PUSH2 0x45E JUMP JUMPDEST SWAP7 POP PUSH2 0x4C1 DUP4 PUSH2 0x475 JUMP JUMPDEST SWAP3 POP POP PUSH1 0x1 DUP2 ADD SWAP1 POP PUSH2 0x4A2 JUMP JUMPDEST POP POP POP POP POP POP JUMP JUMPDEST PUSH0 PUSH1 0xA0 DUP3 ADD SWAP1 POP PUSH2 0x4EA PUSH0 DUP4 ADD DUP5 PUSH2 0x481 JUMP JUMPDEST SWAP3 SWAP2 POP POP JUMP JUMPDEST PUSH32 0x4E487B7100000000000000000000000000000000000000000000000000000000 PUSH0 MSTORE PUSH1 0x31 PUSH1 0x4 MSTORE PUSH1 0x24 PUSH0 REVERT INVALID LOG2 PUSH5 0x6970667358 0x22 SLT KECCAK256 0xD8 PUSH27 0xEAC826A8D099E1311BA73782DF5B55FEE23DC30BC2A2B6CCFDEAA RETURN 0x28 PUSH20 0x64736F6C634300081F0033000000000000000000 "
		},
		"gasEstimates": {
			"creation": {
				"codeDepositCost": "272600",
				"executionCost": "infinite",
				"totalCost": "infinite"
			},
			"external": {
				"DeleteDynamic()": "29441",
				"Lenght()": "2506",
				"SetDynamic(int256)": "46799",
				"ValueArr()": "infinite",
				"arrneg(uint256)": "2744",
				"getArr()": "infinite"
			}
		},
		"methodIdentifiers": {
			"DeleteDynamic()": "6db932ab",
			"Lenght()": "af0b4b4e",
			"SetDynamic(int256)": "0687a937",
			"ValueArr()": "abc9378f",
			"arrneg(uint256)": "8105d407",
			"getArr()": "fb8cbced"
		}
	},
	"abi": [
		{
			"inputs": [],
			"name": "DeleteDynamic",
			"outputs": [],
			"stateMutability": "nonpayable",
			"type": "function"
		},
		{
			"inputs": [],
			"name": "Lenght",
			"outputs": [
				{
					"internalType": "uint256",
					"name": "",
					"type": "uint256"
				}
			],
			"stateMutability": "view",
			"type": "function"
		},
		{
			"inputs": [
				{
					"internalType": "int256",
					"name": "value",
					"type": "int256"
				}
			],
			"name": "SetDynamic",
			"outputs": [],
			"stateMutability": "nonpayable",
			"type": "function"
		},
		{
			"inputs": [],
			"name": "ValueArr",
			"outputs": [
				{
					"internalType": "int256[]",
					"name": "",
					"type": "int256[]"
				}
			],
			"stateMutability": "view",
			"type": "function"
		},
		{
			"inputs": [
				{
					"internalType": "uint256",
					"name": "",
					"type": "uint256"
				}
			],
			"name": "arrneg",
			"outputs": [
				{
					"internalType": "int256",
					"name": "",
					"type": "int256"
				}
			],
			"stateMutability": "view",
			"type": "function"
		},
		{
			"inputs": [],
			"name": "getArr",
			"outputs": [
				{
					"internalType": "uint256[5]",
					"name": "",
					"type": "uint256[5]"
				}
			],
			"stateMutability": "view",
			"type": "function"
		}
	]
}