{
	"data": {
		"bytecode": {
			"linkReferences": {},
			"object": "6080604052604051806101400160405280600a60ff168152602001601460ff168152602001601e60ff168152602001602860ff168152602001603260ff168152602001603c60ff168152602001604660ff168152602001605060ff168152602001605a60ff168152602001606460ff168152505f90600a610081929190610093565b5034801561008d575f5ffd5b506100f3565b82600a81019282156100c7579160200282015b828111156100c6578251829060ff169055916020019190600101906100a6565b5b5090506100d491906100d8565b5090565b5b808211156100ef575f815f9055506001016100d9565b5090565b61024a806101005f395ff3fe608060405234801561000f575f5ffd5b5060043610610034575f3560e01c806369bd01c414610038578063853255cc14610056575b5f5ffd5b610040610074565b60405161004d9190610127565b60405180910390f35b61005e6100c8565b60405161006b9190610127565b60405180910390f35b5f5f5f5f600a8310156100be575f83600a811061009457610093610140565b5b0154915082806100a39061019a565b935050603282036100b357600190505b8193505050506100c5565b8293505050505b90565b5f5f5f5f90505b600a811015610107575f81600a81106100eb576100ea610140565b5b0154826100f891906101e1565b915080806001019150506100cf565b508091505090565b5f819050919050565b6101218161010f565b82525050565b5f60208201905061013a5f830184610118565b92915050565b7f4e487b71000000000000000000000000000000000000000000000000000000005f52603260045260245ffd5b7f4e487b71000000000000000000000000000000000000000000000000000000005f52601160045260245ffd5b5f6101a48261010f565b91507fffffffffffffffffffffffffffffffffffffffffffffffffffffffffffffffff82036101d6576101d561016d565b5b600182019050919050565b5f6101eb8261010f565b91506101f68361010f565b925082820190508082111561020e5761020d61016d565b5b9291505056fea2646970667358221220b42736c682f5f606e72159098abe0e5d4cda5616c335542bc47b3b9c9e22c0cd64736f6c634300081f0033",
			"opcodes": "PUSH1 0x80 PUSH1 0x40 MSTORE PUSH1 0x40 MLOAD DUP1 PUSH2 0x140 ADD PUSH1 0x40 MSTORE DUP1 PUSH1 0xA PUSH1 0xFF AND DUP2 MSTORE PUSH1 0x20 ADD PUSH1 0x14 PUSH1 0xFF AND DUP2 MSTORE PUSH1 0x20 ADD PUSH1 0x1E PUSH1 0xFF AND DUP2 MSTORE PUSH1 0x20 ADD PUSH1 0x28 PUSH1 0xFF AND DUP2 MSTORE PUSH1 0x20 ADD PUSH1 0x32 PUSH1 0xFF AND DUP2 MSTORE PUSH1 0x20 ADD PUSH1 0x3C PUSH1 0xFF AND DUP2 MSTORE PUSH1 0x20 ADD PUSH1 0x46 PUSH1 0xFF AND DUP2 MSTORE PUSH1 0x20 ADD PUSH1 0x50 PUSH1 0xFF AND DUP2 MSTORE PUSH1 0x20 ADD PUSH1 0x5A PUSH1 0xFF AND DUP2 MSTORE PUSH1 0x20 ADD PUSH1 0x64 PUSH1 0xFF AND DUP2 MSTORE POP PUSH0 SWAP1 PUSH1 0xA PUSH2 0x81 SWAP3 SWAP2 SWAP1 PUSH2 0x93 JUMP JUMPDEST POP CALLVALUE DUP1 ISZERO PUSH2 0x8D JUMPI PUSH0 PUSH0 REVERT JUMPDEST POP PUSH2 0xF3 JUMP JUMPDEST DUP3 PUSH1 0xA DUP2 ADD SWAP3 DUP3 ISZERO PUSH2 0xC7 JUMPI SWAP2 PUSH1 0x20 MUL DUP3 ADD JUMPDEST DUP3 DUP2 GT ISZERO PUSH2 0xC6 JUMPI DUP3 MLOAD DUP3 SWAP1 PUSH1 0xFF AND SWAP1 SSTORE SWAP2 PUSH1 0x20 ADD SWAP2 SWAP1 PUSH1 0x1 ADD SWAP1 PUSH2 0xA6 JUMP JUMPDEST JUMPDEST POP SWAP1 POP PUSH2 0xD4 SWAP2 SWAP1 PUSH2 0xD8 JUMP JUMPDEST POP SWAP1 JUMP JUMPDEST JUMPDEST DUP1 DUP3 GT ISZERO PUSH2 0xEF JUMPI PUSH0 DUP2 PUSH0 SWAP1 SSTORE POP PUSH1 0x1 ADD PUSH2 0xD9 JUMP JUMPDEST POP SWAP1 JUMP JUMPDEST PUSH2 0x24A DUP1 PUSH2 0x100 PUSH0 CODECOPY PUSH0 RETURN INVALID PUSH1 0x80 PUSH1 0x40 MSTORE CALLVALUE DUP1 ISZERO PUSH2 0xF JUMPI PUSH0 PUSH0 REVERT JUMPDEST POP PUSH1 0x4 CALLDATASIZE LT PUSH2 0x34 JUMPI PUSH0 CALLDATALOAD PUSH1 0xE0 SHR DUP1 PUSH4 0x69BD01C4 EQ PUSH2 0x38 JUMPI DUP1 PUSH4 0x853255CC EQ PUSH2 0x56 JUMPI JUMPDEST PUSH0 PUSH0 REVERT JUMPDEST PUSH2 0x40 PUSH2 0x74 JUMP JUMPDEST PUSH1 0x40 MLOAD PUSH2 0x4D SWAP2 SWAP1 PUSH2 0x127 JUMP JUMPDEST PUSH1 0x40 MLOAD DUP1 SWAP2 SUB SWAP1 RETURN JUMPDEST PUSH2 0x5E PUSH2 0xC8 JUMP JUMPDEST PUSH1 0x40 MLOAD PUSH2 0x6B SWAP2 SWAP1 PUSH2 0x127 JUMP JUMPDEST PUSH1 0x40 MLOAD DUP1 SWAP2 SUB SWAP1 RETURN JUMPDEST PUSH0 PUSH0 PUSH0 PUSH0 PUSH1 0xA DUP4 LT ISZERO PUSH2 0xBE JUMPI PUSH0 DUP4 PUSH1 0xA DUP2 LT PUSH2 0x94 JUMPI PUSH2 0x93 PUSH2 0x140 JUMP JUMPDEST JUMPDEST ADD SLOAD SWAP2 POP DUP3 DUP1 PUSH2 0xA3 SWAP1 PUSH2 0x19A JUMP JUMPDEST SWAP4 POP POP PUSH1 0x32 DUP3 SUB PUSH2 0xB3 JUMPI PUSH1 0x1 SWAP1 POP JUMPDEST DUP2 SWAP4 POP POP POP POP PUSH2 0xC5 JUMP JUMPDEST DUP3 SWAP4 POP POP POP POP JUMPDEST SWAP1 JUMP JUMPDEST PUSH0 PUSH0 PUSH0 PUSH0 SWAP1 POP JUMPDEST PUSH1 0xA DUP2 LT ISZERO PUSH2 0x107 JUMPI PUSH0 DUP2 PUSH1 0xA DUP2 LT PUSH2 0xEB JUMPI PUSH2 0xEA PUSH2 0x140 JUMP JUMPDEST JUMPDEST ADD SLOAD DUP3 PUSH2 0xF8 SWAP2 SWAP1 PUSH2 0x1E1 JUMP JUMPDEST SWAP2 POP DUP1 DUP1 PUSH1 0x1 ADD SWAP2 POP POP PUSH2 0xCF JUMP JUMPDEST POP DUP1 SWAP2 POP POP SWAP1 JUMP JUMPDEST PUSH0 DUP2 SWAP1 POP SWAP2 SWAP1 POP JUMP JUMPDEST PUSH2 0x121 DUP2 PUSH2 0x10F JUMP JUMPDEST DUP3 MSTORE POP POP JUMP JUMPDEST PUSH0 PUSH1 0x20 DUP3 ADD SWAP1 POP PUSH2 0x13A PUSH0 DUP4 ADD DUP5 PUSH2 0x118 JUMP JUMPDEST SWAP3 SWAP2 POP POP JUMP JUMPDEST PUSH32 0x4E487B7100000000000000000000000000000000000000000000000000000000 PUSH0 MSTORE PUSH1 0x32 PUSH1 0x4 MSTORE PUSH1 0x24 PUSH0 REVERT JUMPDEST PUSH32 0x4E487B7100000000000000000000000000000000000000000000000000000000 PUSH0 MSTORE PUSH1 0x11 PUSH1 0x4 MSTORE PUSH1 0x24 PUSH0 REVERT JUMPDEST PUSH0 PUSH2 0x1A4 DUP3 PUSH2 0x10F JUMP JUMPDEST SWAP2 POP PUSH32 0xFFFFFFFFFFFFFFFFFFFFFFFFFFFFFFFFFFFFFFFFFFFFFFFFFFFFFFFFFFFFFFFF DUP3 SUB PUSH2 0x1D6 JUMPI PUSH2 0x1D5 PUSH2 0x16D JUMP JUMPDEST JUMPDEST PUSH1 0x1 DUP3 ADD SWAP1 POP SWAP2 SWAP1 POP JUMP JUMPDEST PUSH0 PUSH2 0x1EB DUP3 PUSH2 0x10F JUMP JUMPDEST SWAP2 POP PUSH2 0x1F6 DUP4 PUSH2 0x10F JUMP JUMPDEST SWAP3 POP DUP3 DUP3 ADD SWAP1 POP DUP1 DUP3 GT ISZERO PUSH2 0x20E JUMPI PUSH2 0x20D PUSH2 0x16D JUMP JUMPDEST JUMPDEST SWAP3 SWAP2 POP POP JUMP INVALID LOG2 PUSH5 0x6970667358 0x22 SLT KECCAK256 0xB4 0x27 CALLDATASIZE 0xC6 DUP3 CREATE2 0xF6 MOD SWAPN 0x21 MSIZE MULMOD DUP11 0xBE 0xE TSTORE 0x4C 0xDA JUMP AND 0xC3 CALLDATALOAD SLOAD 0x2B 0xC4 PUSH28 0x3B9C9E22C0CD64736F6C634300081F00330000000000000000000000 "
		},
		"gasEstimates": {
			"creation": {
				"codeDepositCost": "117200",
				"executionCost": "infinite",
				"totalCost": "infinite"
			},
			"external": {
				"getvalue()": "infinite",
				"sum()": "infinite"
			}
		},
		"methodIdentifiers": {
			"getvalue()": "69bd01c4",
			"sum()": "853255cc"
		}
	},
	"abi": [
		{
			"inputs": [],
			"name": "getvalue",
			"outputs": [
				{
					"internalType": "uint256",
					"name": "",
					"type": "uint256"
				}
			],
			"stateMutability": "view",
			"type": "function"
		},
		{
			"inputs": [],
			"name": "sum",
			"outputs": [
				{
					"internalType": "uint256",
					"name": "",
					"type": "uint256"
				}
			],
			"stateMutability": "view",
			"type": "function"
		}
	]
}